:100000000C94480E0C94650E0C94650E0C94650EC1
:100010000C94650E0C94650E0C94650E0C94650E94
:100020000C94650E0C94650E0C9435210C9477207D
:100030000C94CE2B0C94650E0C94650E0C94650EEE
:100040000C94650E0C94650E0C94650E0C94650E64
:100050000C94650E0C948D2B0C94650E0C94650E0F
:100060000C94650E0C94650E0C94650E0C94650E44
:100070000C94650E0C94650E0C94650E0C94650E34
:100080000C94650E0C94650E0C94650E0C94650E24
:100090000C94650E0C94650E0C94650E0C94650E14
:1000A0000C94650E0C94650E0C94650E7C107F10FC
:1000B0008210851088108B108E10A510A51091103D
:1000C000971094109A10A510A5107910A510A510DE
:1000D000A510A510A510A510A51076107310A510D9
:1000E000A510A510A510A510A510A510A510A51068
:1000F0009D10A01063118F118F118F118F118F110F
:100100008F118A118711841181117E117B11781151
:100110007511721160116F116C11691166117D12E8
:1001200083127112771289128F129512F2126613CE
:10013000FA12C412C812FE12CB1201130C13D612FB
:100140005C13DA121013DE1214133E13E2121813AA
:100150004813E8121E132813CF120513D2120813E6
:10016000ED122313341354135613C012F6126F13E7
:1001700075147514A714A71418153415C216C216D1
:1001800039151716281628168E1EB51E5F20B51EA7
:100190005F20011F241F5F201A202A20A129A429E3
:1001A000A729AA29AD29B029B32901014001010AD3
:1001B000000101400101090001013E01010F0001A0
:1001C000013E01010C0001013E01010E0001013E52
:1001D00001010B000102E0780103E035300001016C
:1001E0003E0101090001013E0101100001013E0133
:1001F00001060001013E0101050001013E0101046B
:10020000000102E0780103E035320001013E010106
:10021000130001013E0101190001013E01011A0014
:1002200001013F0101120001013F01011100010123
:100230003F0101100001013F01010F0001013F01D9
:10024000010E000102E02D3D0103E0000102E03D4E
:100250000103E00001013E0101170001013E01011F
:10026000180001013E01011B0001013E01011C00BB
:1002700001013E0101220001013E010123000101B3
:100280003F0101200001013F01011F0001013F0169
:10029000011E0001013E01011E0001013F01010894
:1002A0000001013F0101060001013E0101160001AC
:1002B000013F01011D0001013F01010A000102E0AF
:1002C00063740103E00001013F010107000102E046
:1002D000636E0103E00001013E010126000102E01E
:1002E000636A0103E0000102E0630103E00102E14F
:1002F000320103E1000102E06378760103E00001CE
:1003000002E06378770103E0000102E0637879019D
:1003100003E0000102E063660103E0000102E06324
:10032000620103E00001013F0101140001013F01EE
:100330000115000102E0630103E001013400010244
:10034000E063780103E00102E2770103E2000102C9
:10035000E0636C0103E00101280001013F0101138A
:100360000001013F0101180001013F0101090001E5
:10037000013F0101190001013E01011D000102E0E0
:10038000780103E0726A000102E0780103E0722064
:10039000000102E0780103E07269000102E07801E7
:1003A00003E072730001013F0101160001014201E7
:1003B0000115000102E0780103E0010105000101DF
:1003C0003E0101110001013E0101120001013F0146
:1003D000011C0001013F01011B0001013E0101243C
:1003E0000001013E0101080001013E010107000179
:1003F000013E0101150001013E0101200001013E05
:1004000001011F0001013E0101210001013E010126
:1004100025006B633A2025752C20636F6C3A2025EC
:10042000752C20726F773A2025752C2070726573B9
:100430007365643A2025750A000631FF0974A1012D
:100440000975150026FF00952075088102097615AB
:100450000026FF00952075089102C005010980A1C2
:1004600001850319012AB700150126B7009501750A
:10047000108100C0050C0901A101850419012AA001
:1004800002150126A002950175108100C005010921
:1004900006A1018506050719E029E7150025019544
:1004A00008750181020507190029EF15002501953E
:1004B000F07501810205081901290595057501915D
:1004C00002950175039101C005010902A10109010D
:1004D000A1000509190129081500250195087501D4
:1004E00081020501093009311581257F95027508C2
:1004F000810609381581257F950175088106050C4F
:100500000A38021581257F950175088106C0C0054E
:10051000010906A101050719E029E7150025019544
:1005200008750181029501750881010507190029E7
:10053000FF150026FF0095067508810005081901C2
:100540002905950575019102950175039101C05B1F
:10055000435D005B445D005B535D005B575D005B8A
:10056000525D0009027400040100A0FA09040000B1
:1005700001030101000921110100012240000705CA
:10058000810308000109040100010301020009219F
:100590001101000122470007058203080001090438
:1005A00002000103000000092111010001226D0079
:1005B0000705830320000109040300020300000073
:1005C00009211101000122220007058403200001F6
:1005D0000705040320000112010002000000089733
:1005E00032744901000102000116034500720067E0
:1005F000006F0044006F007800200045005A0000A2
:100600000028035A00530041002000540065006395
:100610000068006E006F006C006F006700790020BA
:10062000004C006100620073000000040309040034
:1006300000000000000000000000000000000000BA
:1006400000000000000000000000000000000000AA
:100650000000007E0F00D4FFFFFFC70000007800FD
:10066000000000000000002A2B280000000000000D
:100670000000000000000000000029000000002C25
:100680001E3420212224342627252E362D373827C4
:100690001E1F202122232425263333362E37381FD0
:1006A0000405060708090A0B0C0D0E0F1011121392
:1006B0001415161718191A1B1C1D2F3130232D3530
:1006C0000405060708090A0B0C0D0E0F1011121372
:1006D0001415161718191A1B1C1D2F3130354C0014
:1006E000002A00294B4A00000000000000144D04BD
:1006F000221D4C0000000000001A2816211B2900B2
:10070000002C7E0000084F0724064700002C000044
:10071000001545094119434C000000000017000A6C
:1007200000050000000000000000000000000000C4
:1007300000000000000000000000000000000000B9
:10074000001C000B00110000000000000018460D06
:100750004210442B00000000000C490E34364800C3
:10076000002C00000012380F3137390000005252BF
:100770000013003332344E000000005100457E2843
:100780004A4D0000000000010001000100010001CD
:1007900000000001000000E1000000010001000174
:1007A00000E300E000E0080100010001002F52E238
:1007B0000000000100010001000000010000000134
:1007C0000001000100000000000000000001000125
:1007D0000001000000010000000100010001000014
:1007E0000001000000010001002D0038003600006B
:1007F0000001000100240021421E0001000100014F
:1008000000254922001F00010001000100260023ED
:100810000020000100010001000000270037000156
:1008200000010001000100010001000100000001C1
:100830000001000100010001000000010049003832
:10084000000000010001000100260250000000012C
:1008500000010001005200510039000100010001B7
:100860000027024F41250201000100010000004263
:100870007E000000000100010001000000010000F6
:100880000001000100010000000100000001000162
:100890000000000000000000000100010000000155
:1008A0000000000100010001002952E600000001E3
:1008B0000001000100E700E400E41801000100016C
:1008C000000000E50000000100010001000100013E
:1008D0000001000100000001000100010001000111
:1008E00000000001000000E1000000010001000123
:1008F00000E300E000E0080100010001000000E268
:100900000027520100010001000000000001000169
:1009100000010001000000000000000000010001D3
:1009200000010000000100000001000100010000C2
:1009300000010000000100010000000000000000B4
:10094000000100010042003E003A000100010001E8
:100950000043003F003B0001000100010044004053
:10096000003C00010001000100450041003D000184
:100970000001000100010001000100010000000170
:10098000000100010001000100000001000000441E
:100990007E00000100010001002F00437E000001E5
:1009A0000001000100547E537E000001000100019F
:1009B0000030001E020000010001000100000038AC
:1009C0000200000000010001000100000001000021
:1009D0000001000100010000000100000001000111
:1009E0000000000000000000000100010000000005
:1009F0000001000100010001000000E60028520192
:100A00000001000100E700E400E41801000100011A
:100A1000000000E5000000010001000100010001EC
:100A200000010001000000010001000100010001BF
:100A300000000001000000E10000000100010001D1
:100A400000E300E000E0080100010001002F52E295
:100A50000000000100010001000100000000000191
:100A60000001000100000000000000000001000182
:100A70000001000000010000000100010001000071
:100A8000000100000001000100000000004E000015
:100A90000001000100057E200200000100010001AC
:100AA00000067E3100000001000100010000003559
:100AB0000000000100010001004B003502000001B0
:100AC000000100010001000100010001000000011F
:100AD0000001000100010001000000010000002DE4
:100AE00002000001000100010000002E00000001D2
:100AF0000001000100047E2D000000010001000142
:100B000000037E2E02000001000100010000000031
:100B100000000000000100010001000000010000D1
:100B200000010001000100000001000000010001BF
:100B300000000000000000000001000100010000B2
:100B40000000000100010001000049E60000000172
:100B50000001000100E700E400E4180100010001C9
:100B6000000000E50000000100010001000100019B
:100B7000000100010000000100010001000100016E
:100B80000000000100000000000000010001000161
:100B9000000000E000000001000100010000000072
:100BA00000010001000100010000000000235201CB
:100BB0000001000100000000000000000001000131
:100BC0000001000000010000000100010001000020
:100BD0000001000000010001000000000000000012
:100BE000000100010000001F0200000100010001DF
:100BF000000C7E21026E00010001000100000022B5
:100C00000200000100010001006B0023020000014E
:100C100000010001000100010001000100000001CD
:100C200000010001000100010000000100000000BF
:100C30000000000100010001002F0200000000017F
:100C40000001000100487E497E4B070100010001C0
:100C50000030023102000001000100010000002408
:100C6000020000000001000100010000000100007E
:100C7000000100010001000000010000000100016E
:100C80000000000000000000000100010000000062
:100C900000245201000100010000000000010001D9
:100CA000000100010000000000000001000100013F
:100CB000000000000000000100010001000100012F
:100CC000000100010000000100010001000100011D
:100CD0000000000100147E417E127E01000100012F
:100CE00000237E160F00000100010001001F7E1E80
:100CF0007E2A7E0100010001000D7E277E227E01FA
:100D00000001000100170F207E1D7E000001000180
:100D100000010000000100000001000100010000CE
:100D200000010000000100010000000000000000C0
:100D30000001000100004600420000010001000126
:100D4000000100000000000100010001000000009F
:100D5000000000010001000100000000000000018F
:100D6000000100010001000100010001000000017C
:100D7000000100010001000100000001001A7E4D89
:100D80007E4C7E0100010001001B7E467E477E01F5
:100D90000001000100197E00004F7E0100010001EA
:100DA00000187E4B7E4A7E0100010001001C7E502F
:100DB0007E4E7E00000100010001000000010000E5
:100DC000000100010001000000010000000100011D
:100DD0000000000000000000000100010000000011
:100DE00000000001000100010000000000000001FF
:100DF00000010001000000000000000100010001EE
:100E000000000000000000010001000100010001DD
:100E100000010001000000010001000100010001CB
:100E200000000001000000000000000100010001BE
:100E300000000000000000010001000100000000AF
:100E4000000000010001000100000000000000019E
:100E5000000100010000000000000000000100018E
:100E6000000100000001000000010001000100007D
:100E7000000100000001000100017E377E2F7E008E
:100E800000010001000000347E00000100010001AB
:100E900000327E367E0000010001000100357E3305
:100EA0007E00000100010001002E7E000000000114
:100EB000000100010001000100010001000000012B
:100EC000000100010001000100000001000000001D
:100ED000000000010001000100000000000000010E
:100EE00000010001000000000000000100010001FD
:100EF00000000000000000010001000100000000EF
:100F000000000000000100010001000000010000DD
:100F100000010001000100000001000000010001CB
:100F20000000000000000000000100010000003F80
:100F30007E00000100010001002E7E2F7E000001D6
:100F4000000100010000003E7E00000100010001E0
:100F5000000000000000000100010001000100018C
:100F6000000100010000000100010001000100017A
:100F7000000000010000000000000001000100016D
:100F8000000000000000000100010001000000005E
:100F9000000000010001000100000000000000014D
:100FA000000100010000000000000000000100013D
:100FB000000100000001000000010001000100002C
:100FC000000100000001000100000000000000001E
:100FD00000010001000000050D00000100010001FA
:100FE00000040D060D0000010001000100000007D3
:100FF0000D000001000100010000000000000001E0
:1010000000010001000100010001000100000001D9
:1010100000010001000100010000000100000000CB
:10102000000000010001000100407E3B7E00000145
:1010300000010001003A7E3D7E517E010001000169
:101040000000003C7E0000010001000100397E002C
:10105000000000000001000100010000000100008C
:10106000000100010001000000010000000100017A
:10107000000000000000000000010001000000006E
:10108000000000010001000100000000000000015C
:10109000000100010000000000000001000100014B
:1010A000000000000000000100010001000100013B
:1010B0000001000100000001000100010001000129
:1010C000000000010000000000000001000100011C
:1010D000000000000000000100010001000100000C
:1010E0000000000100010001002552215200000112
:1010F00000010001000000000000000000010001EC
:1011000000010000000100000001000100010000DA
:101110000001000000010001007300287E71000042
:101120000001000100130D100D110D01000100015F
:10113000001B0D0A0D120D010001000100140D0B22
:101140000D0F0D0100010001007200270D7000015C
:101150000001000100010001000100010000000188
:10116000000100010001000100000001000000007A
:10117000000100010001000100000000000000016A
:10118000000100010000000000000001000100015A
:10119000000000000000000100010001000000004C
:1011A000000000000001000100010000000100003B
:1011B0000001000100010000000100000001000129
:1011C00000000000000000000001000100BC00ACB5
:1011D000000000010001000100A900AA00000001B8
:1011E0000001000100BB00AB000000010001000194
:1011F000000000AE0000000100010001000100003D
:101200007C077E01000000010001000100010001D7
:1012100000000001000000000000000100010001CA
:1012200000000000000000010001000100000000BB
:1012300000000001000100010000000000000001AA
:10124000000100010000000000000000000100019A
:101250000001000000010000000100010001000089
:10126000000100000001000100000000000000007B
:101270000001000100210D1E0D1F0D0100010001E4
:1012800000230D0D0D200D010001000100220D0EA7
:101290000D1D0D0100010001000000000000000113
:1012A0000001000100010001000100010000000137
:1012B0000001000100010001000000010000000029
:1012C00000117E0100010001002B7E0000000001E2
:1012D0000001000100267E257E00000100010001C2
:1012E000000F7E217E0000010001000100387E0019
:1012F000000E7E000001000100010000000100005E
:1013000000010001000100000001000000010001D7
:1013100000000000000000000001000100000001CA
:1013200000000001000100010001000000000001B8
:1013300000010001000000000000000100010001A8
:101340000000000000000001000100010001000198
:101350000001000100000001000100010001000186
:101360000000000100000000000000010001000179
:101370000000000000000001000100010001000069
:101380000000000100010001000000010000000158
:101390000001000100000000000000000001000149
:1013A0000001000000010000000100010001000038
:1013B0000001000000010001000000297E00000083
:1013C0000001000100190D160D170D0100010001AB
:1013D000001C0D090D180D0100010001001A0D0877
:1013E0000D150D010001000100317E00000000011B
:1013F00000010001000100010001000100000001E6
:10140000000100010001000100000001000000389F
:10141000523E5201000100010014000400210501A8
:1014200000010001001A0016002205010001000160
:1014300000080007000C0D01000100010025052334
:101440000500000000010001000100000001000093
:101450000001000100010000000100000001000186
:101460000040003D003A000000010001002400CFD0
:10147000001E00D20001000100CD00CE001F0001BF
:1014800000D10001002600D0002000010001000171
:1014900000420039523B52010001000100010001ED
:1014A0000001000100000001000100010001000135
:1014B0000000000100000000000000010001000128
:1014C0000000000000000001000100010000000019
:1014D0000000000100010001000000000000000108
:1014E00000010001000000000000000000010001F8
:1014F00000010000000100000001000100010000E7
:1015000000010000000100010000000000000000D8
:1015100000010001000000000000000100010001C6
:1015200000000000000000010001000100000000B8
:1015300000000001000100010000000000000001A7
:101540000001000100010001000100010000000194
:101550000001000100010001000000010000000086
:10156000000000010001000100027E137E00000166
:1015700000010001000000107E00000100010001D8
:101580000000000000000001000100010000000058
:101590000000000000010001000100000001000047
:1015A0000001000100010000000100000001000135
:1015B0000000000000000000000100010000000029
:1015C0000000000100010001000000000000000117
:1015D0000001000100000000000000010001000106
:1015E00000000000000000010001000100010001F6
:1015F00000010001000000010001000100010001E4
:1016000000000001000000000000000100010001D6
:101610000000000B7E000001000100010000000935
:101620007E00000100010001000000010000000137
:1016300000010001000000000000000000010001A6
:101640000001000000010000000100010001000095
:101650000001000000010001000000000000000087
:101660000001000100000001000000010001000174
:10167000000000087E000001000100010000000AD7
:101680007E000001000100010000000000000001D8
:101690000001000100010001000100010000000143
:1016A0000001000100010001000000010000000134
:1016B00000000001000100010014000400210501E8
:1016C00000010001001A00160022050100010001BE
:1016D00000080007000C0D01000100010025052392
:1016E00005000000000100010001000000010000F1
:1016F00000010001000100000001000000010001E4
:101700000040053D053A050000010001002405CF19
:10171000001E05010001000100CD00CE001F0501E3
:1017200000010001002605D0002005010001000194
:1017300000420527053C05010001000100010001F0
:101740000001000100000001000100010001000192
:101750000000000100000043010000010001000141
:10176000001400040021050100010001001A001608
:10177000002205010001000100080007000C0D0116
:101780000001000100250523050000000001000103
:101790000001000000010000000100010001000044
:1017A00000010000000100010040013D013A01007C
:1017B00000010001002401CF001E01010001000111
:1017C00000CD00CE001F010100010001002601D064
:1017D000002001010001000100420101003C010163
:1017E00000010001000100010001000100000001F2
:1017F000000100010001000100000001000000E103
:10180000000000010001000100E300E000E0080129
:1018100000010001000000E2001C52010001000173
:1018200000000000000C0DDD0001000100000000C0
:1018300000000000000100010001000000010000A4
:101840000001000100010000000100000001000192
:10185000000000000000000000010001000000CFB7
:10186000000000D20001000100CD00CE001C52019A
:1018700000D10001000000D00000000100010001C3
:1018800000000000002D7E010001000100010001A8
:101890000001000100000001000100010001000141
:1018A0000000000100000000000000010001000134
:1018B0000000000000000001000100010000000025
:1018C0000000000100010001000000000000000114
:1018D0000001000100000000000000000001000104
:1018E00000010000000100000001000100010000F3
:1018F00000010000000100010000000000000000E5
:1019000000010001000000000000000100010001D2
:1019100000000000000000010001000100000000C4
:1019200000000001000100010000000000000001B3
:1019300000010001000100010001000100000001A0
:10194000000100010001000100000001000000E1B1
:10195000000000010001000100E300E000E00801D8
:1019600000010001000000E2000000010001000190
:1019700000000000000C0D0100010001000000004B
:101980000000000000010001000100000001000053
:101990000001000100010000000100000001000141
:1019A000002C7E000000000000010001000000DBB0
:1019B000000000010001000100D900DA0000000170
:1019C00000010001000000DC000000010001000136
:1019D0000000000000000001000100010001000102
:1019E00000010001000000010001000100010001F0
:1019F00000000001000000000000000100010001E3
:101A000000000000000000010001000100000000D3
:101A100000000001000100010000000000000001C2
:101A200000010001000000000000000000010001B2
:101A300000010000000100000001000100010000A1
:101A40000001000000010001000000000000000093
:101A50000001000100000000000000010001000181
:101A60000000000000000001000100010000000073
:101A70000000000100010001000000000000000162
:101A8000000100010001000100010001000000014F
:101A90000001000100010001000000010000000041
:101AA00000010001000100010014000400210501F3
:101AB00000010001001A00160022050100010001CA
:101AC00000080007000C0D0100010001002505239E
:101AD00005000000000100010001000000010000FD
:101AE00000010001000100000001000000010001F0
:101AF0000040133D133A130000010001002413CFEE
:101B0000001E13010001000100CD00CE001F1301D3
:101B100000010001002613D0002013010001000184
:101B200000421327073C13010001000100010001DE
:101B3000000100010000000100010001000100019E
:101B40000000000100000000000000010001000191
:101B50000000000000000001000100010000000082
:101B60000000000100010001000000000000000171
:101B70000001000100000000000000000001000161
:101B80000001000000010000000100010001000050
:101B90000001000000010001000000000000000042
:101BA0000001000100000000000000010001000130
:101BB0000000000000000001000100010000000022
:101BC0000000000100010001000000000000000111
:101BD0000001000100010001000100010000006C93
:101BE00065667420736964652061747461636865F7
:101BF000640A006C6566742073696465206E6F7496
:101C000020726573706F6E64696E670A0074727912
:101C1000696E6720746F207265736574206D6370E0
:101C200032333031380A000A0025303862003A2059
:101C30000025303258000A722F632030313233349D
:101C40003536370A00290A002575002F0025750052
:101C50005D28002564002000256400200025640024
:101C600020002564007C0025303258006D6F7573AC
:101C7000656B6579205B62746E7C782079207620B4
:101C8000685D287265702F61636C293A205B0000E3
:101C900011241FBECFEFDAE0DEBFCDBF11E0A0E020
:101CA000B1E0EAEDF5E602C005900D92AE35B10760
:101CB000D9F725E0AEE5B1E001C01D92AD3AB2071B
:101CC000E1F70E94F5220C94EB320C940000FF9394
:101CD000EF93E0915E01F0915F01309709F0099573
:101CE000EF91FF910895FC018591803011F0EFDFB5
:101CF000FBCF0895FF27E0E230E247FF0CC041959B
:101D000097FF09C0EDE26095709580959095611DF3
:101D1000711D811D911D27FF02C0219530E350E206
:101D2000AA27660F771F881F991FAA1FA41710F0F4
:101D3000A41B63955A95A9F7AA3008F0A95FA05D86
:101D4000AF93F395611571058105910541F7ED326A
:101D500011F4EF93F395F21718F43F93F395FBCF3B
:101D60008F91B5DFFA95E1F70895E991F9918591A1
:101D7000803021F0853219F0AADFF9CF089520E0F4
:101D8000E89455915532C1F3503311F4689455914C
:101D90005A3348F4505390F3220F022E220F220F91
:101DA000200D250FF4CF0EF421958991999153368A
:101DB00019F3533729F1533559F1BC018827992775
:101DC000E8945C3621F48991999168945591543640
:101DD00039F446EF7EF077FF0DC08FEF9FEF0AC01A
:101DE00055374AE039F0583540E121F0523642E0AB
:101DF00009F00895FF93EF937DDFEF91FF91B7CF47
:101E0000FF93EF93FC0181918030B9F360DFFBCF4A
:101E1000FF93EF9368DFF1CFDF93CF93CDB7DEB7BA
:101E20002596A3DFCF91DF910895AAE0B0E0EBE122
:101E3000FFE00C941E31FC0180819181238134816B
:101E4000232B31F09F3F31F491E08F3F19F403C011
:101E500091E001C090E090FDD1C77F0185E0DE01F7
:101E6000169601900D928A95E1F7F70122818E81F5
:101E70009F81222349F00E947519182F682F8E81A7
:101E80009F810E94B11B03C00E947C1B182F6E8192
:101E90007F81812F0E94DA228C0180916004811160
:101EA00047C0F7018281811157C40435FCE71F0741
:101EB00029F198F403353CE7130709F0A9C00E9403
:101EC000FD290E947D1C0E946E1C80E691E090938B
:101ED00047058093460581E01EC006358CE718074C
:101EE000E9F007359CE7190709F092C060910601F7
:101EF000709107014FEF8AE594E017C00E94FD2919
:101F00000E947D1C0E946E1C8AE594E09093470518
:101F10008093460582E0809360040CC460910801C0
:101F20007091090141E080E691E00E94102D02C409
:101F3000980123553C472330310508F052C091E009
:101F40000535ECE71E0709F490E0F7012281291717
:101F500009F4F0C38130A1F0823009F03FC0009154
:101F600046051091470510925905609195057091AD
:101F7000960580919705909198050E94B02726C0FC
:101F800000914605109147051092590560919505FD
:101F90007091960580919705909198050E94B027C1
:101FA000F1E000361F0739F0F80136978281882367
:101FB00011F08F01F5CF10930901009308010EC0B5
:101FC000F80136968281882329F08F0124E00A35B2
:101FD0001207B1F7109307010093060110926004F5
:101FE000A9C3813059F0823099F460910801709151
:101FF000090197014FEF8AE594E008C0609106015E
:1020000070910701970141E080E691E00E94871DF1
:102010000115FEE71F0709F040C0F7018281882300
:10202000E1F19091480581E0890F8770987F8530B4
:1020300020F4892B8093480502C090934805809135
:1020400048058770FFEF8F9FC001112495958795F4
:102050009595879599279093890080938800909310
:102060008B0080938A0090938D0080938C00409128
:1020700048055091490560914A0570914B058FE0E4
:1020800090E00E9475316091950570919605809160
:102090009705909198050E94B027F70182811F92C1
:1020A0008F9381811F928F9380811F928F931F93B3
:1020B0000F9382E194E09F938F930E940C0F0FB6D1
:1020C000F894DEBF0FBECDBFF7018281882309F4EB
:1020D000FEC1F801E153FE47E432F105B0F5EA5ADA
:1020E000FF4F0C94B73189E192E02CC082E192E07D
:1020F00029C08BE092E026C081E092E023C08AEF05
:1021000091E020C083EF91E01DC08CEE91E01AC0F9
:1021100085EE91E017C08EED91E014C084ED91E062
:1021200011C08DEC91E00EC086EC91E00BC08FEBFE
:1021300091E008C088EB91E005C081EB91E002C01E
:102140008AEA91E00E94DC1C9AC00634FEE71F0771
:1021500009F45BC038F509313EE7130709F45EC0A6
:1021600090F406319EE7190709F452C00831EEE7F2
:102170001E0709F450C00531FEE71F0709F059C0DA
:1021800083E492E053C00B312EE7120709F44CC0F0
:1021900008F447C00C318EE7180709F04AC080E206
:1021A00092E044C00C349EE7190749F160F40A3408
:1021B000FEE71F07F1F000F507343EE71307C9F506
:1021C0008BE592E033C00E348EE7180761F0D0F053
:1021D0000F34EEE71E0751F00035FEE71F0749F503
:1021E0008EE792E023C08CE892E020C085E892E080
:1021F0001DC087E792E01AC080E792E017C089E629
:1022000092E014C082E692E011C084E592E00EC034
:102210008CE492E00BC08CE392E008C085E392E08E
:1022200005C08EE292E002C087E292E00E94DC1CD0
:102230003DC000312EE71207D1F058F402308EE78E
:10224000180791F00C309EE71907C9F488EA92E06C
:1022500013C00331EEE71E0769F00234FEE71F07E3
:1022600071F483E992E008C08FEA92E005C081EA48
:1022700092E002C08AE992E00E94DC1C50C0023168
:102280002EE7120759F004313EE7130751F00131F0
:102290008EE7180759F48DEB92E005C086EC92E0CA
:1022A00002C086EB92E00E94DC1C58C0F801E751A6
:1022B000FE47E531F10598F5E658FF4F0C94B7312C
:1022C0008AE593E029C08EE493E026C08EE393E094
:1022D00023C083E393E020C08CE293E01DC085E23D
:1022E00093E01AC08CE193E017C083E193E014C03F
:1022F00089E093E011C08FEF92E00EC085EF92E08D
:102300000BC086EE92E008C08DED92E005C086ED30
:1023100092E002C08DEC92E00E94DC1C3EC00930CD
:102320009EE7190799F038F40830FEE71F07B1F46B
:1023300086E793E010C00A302EE7120751F00B3009
:102340003EE7130759F481E693E005C08FE693E07A
:1023500002C088E693E00E94DC1C28C004308EE7AF
:102360001807B1F038F40330EEE71E07B1F487E840
:1023700093E010C00530FEE71F0739F006302EE766
:10238000120759F481E993E005C08BE993E002C09C
:102390008DE793E00E94DC1C17C001303EE7130775
:1023A00029F485EA93E00E94DC1C91C001158EE7B8
:1023B000180751F49FEFE4E3FCE09150E040F04057
:1023C000E1F700C00000BAC009332EE7120709F494
:1023D0005AC038F50D328EE7180709F461C090F441
:1023E0000D31EEE71E0709F46DC00C32FEE71F0742
:1023F00009F44FC00D302EE7120709F068C08CEACF
:1024000093E062C00F323EE7130709F455C008F4A9
:1024100050C008339EE7190709F059C088EE93E0D1
:1024200053C00334EEE71E0741F188F40F332EE763
:10243000120709F444C001343EE7130709F10E33D3
:102440008EE7180709F043C08EEB93E03DC00534DA
:102450009EE7190761F070F00135FEE71F07B1F044
:1024600002352EE7120799F58BE094E02DC084E049
:1024700094E02AC08DEF93E027C086EF93E024C05C
:102480008FEE93E021C081EE93E01EC08AED93E0D1
:102490001BC060E070E080E094E00E94E71B4EC04B
:1024A00060E070E080E190E00E94E71B259A2D9AA1
:1024B00045C083ED93E008C08CEC93E005C085EC4B
:1024C00093E002C083EB93E00E94DC1C37C0F8016C
:1024D000E851FC47E730F10588F5E157FF4F0C94D0
:1024E000B73106E221EE41EE6AE17CE723C007E264
:1024F00025EE45EE6BE17CE71DC006E221EE40EEE5
:1025000068E17CE717C007E225EE44EE69E17CE76D
:1025100011C006E221EE42EE6CE17CE70BC007E25F
:1025200025EE46EE6DE17CE705C008E221E045EED0
:102530006EE17CE7C7010E94A72CFCC0F7018281F5
:10254000882309F481C110929B05C8019057839795
:1025500008F0DBC084E090E00E945D319093A70515
:102560008093A605F801E150F047E232F10520F42E
:10257000EA56FF4F0C94B7318091A6058160ACC03C
:102580008091A7058860B4C08091A6058260A4C030
:102590008091A60520C08091A60588609DC080918D
:1025A000A7051EC08091A7058260A2C08091A605E4
:1025B000806192C08091A60580628EC08091A60540
:1025C00080648AC00E947D1C8091A605806884C0BA
:1025D0008091A605886084607FC08091A705826095
:1025E000816086C08091A6058E7F76C08091A70508
:1025F000877F7EC08091A6058D7F6EC08091A605E5
:1026000020C08091A605877F67C08091A7051EC066
:102610008091A7058D7F6CC08091A6058F7E5CC0E0
:102620008091A6058F7D58C08091A6058F7B54C0F0
:102630000E947D1C8091A6058F774EC08091A605D3
:10264000877F8B7F49C08091A7058D7F8E7F50C08B
:102650008091A60582FB222720F991E0922790FB2A
:1026600082F990FB83F938C08091A705982F909547
:1026700091708E7F892B90FB81F93AC08091A605DD
:1026800086FB222720F991E0922790FB86F924C04F
:102690000E947D1C8091A60587FB222720F991E0EE
:1026A000922790FB87F918C061E001C060E08EE0DE
:1026B00090E00E9463311EC08091A60584FB222712
:1026C00020F991E0922790FB84F906C08091A6053D
:1026D000982F909590FB80F98093A6050BC0809170
:1026E000A70583FB222720F991E0922790FB83F92D
:1026F0008093A7056091A6057091A70584E090E0FE
:102700000E9481310E947D1C15C006312CE7120702
:1027100049F5809113058A7A91E009F490E090934D
:10272000610481115DC369E282E694E00E941B2C82
:102730000E94AD188091F104877009F45FC3F7011E
:102740008281882309F45AC38091A70582FF56C36A
:1027500082E00E94181C52C30115FEE71F0709F40E
:1027600060CC9BCC0330FCE71F0709F458C050F441
:1027700001153CE71307B1F001308CE7180709F4A5
:1027800054C067C00B359CE7190709F459C00C35D4
:10279000ECE71E0709F44CC00A351C4709F059C084
:1027A00081E04FC00E947D1C0FEF14E32CE001502C
:1027B00010402040E1F700C00000F89481E08093D1
:1027C000E00080E28093D8001092C9008FE19EE47F
:1027D0000197F1F700C000001DBA109268001CBC00
:1027E00010BE1FBA10927A0010926E0010926F0005
:1027F00010927100109272001092C9001092BC00E9
:1028000014B817B81AB81DB810BA1092BC0015B891
:1028100018B81BB81EB811BA0C94003F8BCF6FEFDD
:102820007FEF80E090E00E9481310E949A2782CF62
:102830008091A70582FB882780F991E0892701C054
:1028400080E00E94351C05C006313CE7130709F4FF
:10285000C9C2F701828100811181882349F0C80132
:102860000E947519D82E682FC8010E94B11B04C0A0
:10287000C8010E947C1BD82EB8018D2D0E94DA223F
:102880000E9402178C01982EF701D280A580A29495
:102890009FE0A9228091F1048770B9F0DD20A9F0B2
:1028A000812F807F803421F080E2800F883068F0B3
:1028B0008091A70582FF09C082E00E94181C8091C8
:1028C000F1048770CC24C3948111C12CB12EB29431
:1028D0008FE0B8228B2D90E08C30910508F052C229
:1028E000FC01E854FF4F0C94B731812F807F1F709B
:1028F000882311F01295107FDD20B9F0112309F41F
:102900002EC280E2800F883010F0911006C09091A6
:102910001305192B1093130505C090911205192B5F
:10292000109312050E94AD181AC2802F0E940C2F1E
:10293000112309F427C2005E083080F1992071F15B
:102940001095909112051923109312052AC0812F1A
:10295000807F1F70803211F01295107F992029F02E
:10296000F1E09F1609F441C04DC08091A70582FD9A
:102970001BC0DD2069F0112339F090911305192B4C
:10298000109313050E94AD1880E00E94702FFAC1C9
:1029900080E00E940C2F112309F4F4C1812F0E94C2
:1029A000A6180E94AD18EEC1DD2081F080911405BB
:1029B000AA2051F001E0A01207C0182B181709F443
:1029C000E1C110931405DEC1812B16C0A11003C014
:1029D0000E94A01829C021E0A21609F4D3C1812FBA
:1029E0000E94AC1C0E94A018CDC1DD2041F031E056
:1029F0003A1508F4C7C1812F0E94B31CC3C1A110AE
:102A0000C1C112C0DD2019F0AA20A9F3A8C1AA20D3
:102A100059F0093309F0B3C18FEF97EEE3E081502D
:102A20009040E040E1F7A9C1812F0E94AC1CAAC1EF
:102A3000812F86958695837019F0813059F0A2C157
:102A4000DD2019F0C801937002C080E090E00E9480
:102A5000752C9EC1DD2019F0C801937002C080E082
:102A600090E00E94502C94C16D2D802F0E94342E36
:102A70008FC1812F837009F069C0D11087C1902F59
:102A8000929596959770990F990F802F8F70882E39
:102A9000912CA12CB12C092E04C0880C991CAA1CC5
:102AA000BB1C0A94D2F704FF12C04FE050E060E074
:102AB00070E004C0440F551F661F771F9A95D2F728
:102AC000DB01CA0180959095A095B09503C080E088
:102AD00090E0DC0116951695412F4370423019F1B4
:102AE000C8F400914C0510914D0520914E05309190
:102AF0004F05413059F088299929AA29BB29BC01E1
:102B0000CD0160237123822393230AC0802A912A56
:102B1000A22AB32ABC01CD01682979298A299B29D7
:102B20000E94741C33C188299929AA29BB290091C4
:102B30004C0510914D0520914E0530914F05BC017B
:102B4000CD016027712782279327EACFDD2019F076
:102B5000812F817001C08695882309F417C1902FB9
:102B6000929596959770990F990F802F8F70882E58
:102B7000912CA12CB12C092E04C0880C991CAA1CE4
:102B8000BB1C0A94D2F704FF12C04FE050E060E093
:102B900070E004C0440F551F661F771F9A95D2F747
:102BA000DB01CA0180959095A095B09503C080E0A7
:102BB00090E0DC0116951695412F43704230D9F014
:102BC00068F5009195051091960520919705309133
:102BD0009805413059F088299929AA29BB29BC01B7
:102BE000CD0160237123822393231EC0802A912A62
:102BF000A22AB32A13C088299929AA29BB2900919E
:102C00009505109196052091970530919805BC0186
:102C1000CD01602771278227932706C0BC01CD0113
:102C2000682979298A299B290E94E71BAFC01F7058
:102C3000DD2039F0812F0E944C1C802F0E94B31C94
:102C4000A5C0802F0E94AC1C812F0E94F21B9EC049
:102C5000802FF2EF9F1609F441C0F91538F020EFEC
:102C6000921659F031EF9316A1F174C093EF9916B3
:102C7000E1F1E4EF9E1649F16DC0DD2009F1A110EC
:102C800081C01F7181E090E0A0E0B0E0AC01BD0127
:102C900004C0440F551F661F771F1A95D2F7809105
:102CA000950590919605A0919705B09198058A0198
:102CB0009B01082719272A273B27C901B80125C0EE
:102CC00021E02A1508F45EC0DCCF8091A70582FDC3
:102CD00022C0DD2029F0812F8F712FC0DD20D9F394
:102CE000812F8F710E94F21B4DC0DD2089F01F7172
:102CF00081E090E0A0E0B0E0BC01CD0104C0660F2F
:102D0000771F881F991F1A95D2F70E94E71B3AC0B8
:102D10000E946E1C37C0DD2099F01F71812F0E9428
:102D20004C1C8091A70582FF07C038E0139FC001AB
:102D3000112483608093F104812F0E944C1C22C0D7
:102D400081E00E94181C81E08A15E0F482E00E9474
:102D5000181C18C0DD2029F0AA2009F4BCCF802F50
:102D600014CEAA2009F4BCCF893349F49FEFE7EED3
:102D7000F3E09150E040F040E1F700C00000802F08
:102D80000E940C2F88EF8B0D843010F40E949A2C37
:102D9000CC20A9F08091F10480FD11C0F7011282CE
:102DA0008595859585950E944C1CC7010E94150F3D
:102DB0008091F1048595859585950E94F21B85E0AB
:102DC000F701DE01119601900D928A95E1F70981D4
:102DD0001A81C8010E947C1BB8010E94DA220EC031
:102DE00065E3A2CC80916104811106C069E282E6AC
:102DF00094E00E94F32B9CCC65E3F9CF2A96ECE09B
:102E00000C943A31CF93DF938238910569F1B0F495
:102E10008133910509F477C048F48932910509F4AA
:102E200069C08A32910509F473C092C08533910557
:102E300009F45BC089339105B9F08AC0833E9105DE
:102E400091F138F4803E9105D1F0823E910531F147
:102E50007FC0863E9105D9F1873E9105E9F1843E18
:102E6000910509F075C028C02091A60520FD5BC022
:102E700021FD59C02091A70523FD61C069C0809143
:102E8000A60580FD4AC08091A70580FF4CC08091B7
:102E9000A60584FD50C183EE90E04FC18091A60548
:102EA00082FF3EC0F4CF8091A60582FD39C080919B
:102EB000A70580FD38C0EBCF8091A70581FF39C001
:102EC0008091A60584FD37C187EE90E036C18091E0
:102ED000A60583FF2BC0F4CF8091A60583FD26C0F5
:102EE0008091A70581FD25C0EBCF8091A60585FDCA
:102EF00026C022C08091A60585FD1EC08091A70531
:102F000083FF1DC00AC08091A60586FD1BC01DC0A1
:102F10008091A60586FD19C015C089E390E00DC11A
:102F200082EE90E00AC180EE90E007C186EE90E06C
:102F300004C184EE90E001C185E390E0FEC089E227
:102F400090E0FBC08AE290E0F8C081E390E0F5C039
:102F5000EC01811530E5930708F053C0811560E45A
:102F6000960720F0CE019F70906AE7C0803E9105E1
:102F700088F58D3C910518F0CE019065DEC0883A49
:102F80009105C0F4853A910550F08C2F855AC82FD1
:102F9000D0E0CB5EDE4F888190E09064CEC081307F
:102FA000910509F4C5C008F4C6C0049708F4C3C06D
:102FB000CE01C3C0813C910508F0BDC08C2F885A5A
:102FC000C82FD0E0CC0FDD1FC85EDE4F888199810D
:102FD0009464B3C08115904258F08D2F8F710E9478
:102FE0009722282F2F71CE0199279062922BA5C08E
:102FF000C11581E0D807E0F6C83ED10508F09BC0B6
:10300000D7CFC03692E5D90708F053C0C03422E5C7
:10301000D207B8F08C2F8F718695869570E2879FC6
:10302000A00111248C2F837021E030E0B90102C08F
:10303000660F771F8A95E2F7CB019C68842B952B4E
:103040007CC0C03232E5D30740F08C2F8F7190E006
:10305000982F8827816F906A70C0C11562E5D607E6
:10306000B0F08C2F8695869520E2829FA0011124D6
:103070008C2F837021E030E0B90102C0660F771F0A
:103080008A95E2F7CB01842B952B9D6856C08C2F37
:103090008F710E94972295E0D695C7959A95E1F792
:1030A000CF70D0E0DC2FCC27D0699E01282BC9013E
:1030B00044C0C03A72E5D70708F58C2F8F71C0382D
:1030C00092E5D907A8F48695869570E2879F9001CE
:1030D00011248C2F837041E050E0BA0102C0660FCA
:1030E000771F8A95E2F7CB019A68822B932B25C034
:1030F00090E0982F8827846F906A1FC0C03C22E51B
:10310000D20750F48C2F8F710E9497228F7190E01C
:10311000982F8827906211C0C03E32E5D30758F43B
:10312000CE018F719927982F8827806F906A05C0EC
:1031300081E090E002C080E090E0DF91CF910895BF
:103140008091140581111092140508958095909135
:103150001305892380931305089590911305809199
:103160001205982B90936204809114058823D9F05E
:10317000892B8093620480910A01882331F0809129
:10318000A60587FF02C08EE101C086E0E4E6F4E018
:1031900090E0815028F021912223D9F39F5FF9CF4D
:1031A00091110E94A01840E250E062EF74E082E6C4
:1031B00094E00E94DE32892B21F180E2E2E6F4E025
:1031C000A2EFB4E001900D928A95E1F7E0919E059F
:1031D000F0919F053097A9F080910A01882359F05A
:1031E0008091A60587FF07C08091620480936304E5
:1031F00086E0809362040280F381E02D82E694E011
:10320000099508958091F0049091BF04891719F0F1
:103210008F5F8770FBCF08950F931F93CF93DF933A
:103220008091BE0482958F7009F05AC08091BB04D2
:10323000882309F455C08091F0041091BF04609177
:10324000B9047091BA04C091BC04D091BD0491E05E
:103250006F3F09F090E0292F06E0811709F440C084
:10326000209721F07F3F21F030E003C031E001C022
:10327000322F90E030FD31C0089FF001099FF00D22
:103280001124DF01A054BB4F11963C9111973713C5
:1032900024C03C91361321C012963C9112973111F3
:1032A0001CC013964D915C9114974C1B5D0B4F3ACB
:1032B000510598F48091BE048F7080618093BE04A4
:1032C000EB53FB4F80818F708061808389EB94E0AA
:1032D0000E94150F0E94021903C001968770BDCF8E
:1032E000DF91CF911F910F910895A0E0B0E0EBE73F
:1032F000F9E10C9421318C01C0909505D090960590
:10330000E0909705F090980580914C0590914D05BF
:10331000A0914E05B0914F05C82AD92AEA2AFB2A66
:10332000CFE1D0E0D701C6010C2E04C0B695A79519
:10333000979587950A94D2F780FD04C0219790F75E
:10334000B12C09C0BC2EB8018C2F0E94DA220E9439
:103350000217019799F38B2DCDB7DEB7E9E00C94F6
:103360003D31CF93DF93EC010E947519BE010E949D
:10337000DA220E940217DF91CF910895CF93FC01CA
:103380008081918123813481232B31F09F3F31F45F
:1033900091E08F3F19F403C091E001C090E0C92F84
:1033A000C17090FD1CC0808191810E94B1199295DD
:1033B0009F70963079F010F4925001C09A5092307C
:1033C00088F4803F71F018F4883E60F40AC0843FAE
:1033D00049F407C0883E28F0813F21F402C0C0E0D4
:1033E00001C0C1E08C2FCF910895A1E1B0E0EBEFD7
:1033F000F9E10C941F318C0185E0F801DE011D9686
:1034000001900D928A95E1F7F801E2809091B9045C
:103410006091BA044091BC045091BD04411551051E
:1034200031F06F3F31F481E09F3F19F403C081E038
:1034300001C080E0F82FF1709F2E80FD1BC1F801C4
:1034400030812181C380D48089EBA82E84E0B82EFE
:10345000F090BB04F601E41BF50BFF2009F4C7C094
:103460008091BE04EF3AF10508F092C0482F407FEA
:1034700009F051C0621311C093130FC0FE2CE1106C
:103480000CC08F7080618093BE04C5010E94150F2F
:103490008091BE04F80185832AC1C114D10431F0A2
:1034A0002F3F31F481E03F3F19F403C081E001C0B8
:1034B00080E080FD03C081E08E2502C080E090E0C6
:1034C000F82FF170FF2E80FF1CC08091F004409116
:1034D000BF0456E0841709F4E8C090E0589FF0015B
:1034E000599FF00D1124E054FB4F6181261306C053
:1034F0006081631303C06281E61203C00196877086
:10350000E9CFFE2CEE2009F4F2C08091BE04816068
:103510008093BE0449C0621306C0931304C0E11037
:1035200002C0F80186C0C8010E94BE19882351F16B
:10353000EE2041F12091BE04822F82958F7090E0A1
:10354000029774F08091B9049091BA0498878F83A0
:103550001986DB86CA862C87CE0107960E94150F36
:1035600086E0F801A9EBB4E001900D928A95E1F7AD
:103570000E940C190AC06217C9F0C8010E94BE1946
:1035800081111EC0C8010E94150FFF24F394AFC023
:10359000482F407F81F789EB94E00E94150F86E069
:1035A000F50111928A95E9F7F12CA1C09313E5CFAB
:1035B000E110E3CFF8018583C8010E94150F54C0C4
:1035C000EE2001F32091BE04822F82958F7090E04F
:1035D000029734F28091B9049091BA049A83898356
:1035E0001B82DD82CC822E83CE010196B7CFEF3ACB
:1035F000F105D0F5FE2CEE2029F2621327C09313BB
:1036000025C02091BE0420FD18C0822F82958F70A6
:10361000482F50E04115510581F0F80125834F30C6
:10362000510541F08F5F982F9295907F822F8F7078
:10363000892B8583C8010E94150F86E0F801A9EB4C
:10364000B4E001900D928A95E1F751C0C8010E9443
:10365000BE19811185CF8091BE0481608093BE0424
:10366000C8010E94150F43C086E0F50111928A95AA
:10367000E9F73DC0EE2009F485CFC8010E94BE19CC
:10368000F82E882309F47ECF86E0F801A9EBB4E098
:1036900001900D928A95E1F78091B9049091BA0456
:1036A0000E94B1190E940C1922C03D872E878D857A
:1036B0009E850E94B119292F22952F70223028F45F
:1036C0009F7039F0811105C00BC0243028F49F7021
:1036D00049F4805E883020F0C8010E94150F9F2CAD
:1036E000F92C05C0F8019581907F99F7F9CF8F2DBE
:1036F0006196EBE00C943B31292F9E3080F58630AB
:1037000070F590E036E0239F800D911D1124682F05
:10371000677023E0969587952A95E1F725E0289F25
:10372000F001299FF00D1124EE57FB4F40E050E0CF
:1037300080E0219130E0062E02C0369527950A944C
:10374000E2F721703327042E01C0220F0A94EAF712
:10375000822B4F5F5F4F4530510559F7089580E048
:103760000895292F9E3090F5863080F590E036E060
:10377000239F800D911D1124282F277051E001C037
:10378000550F2A95EAF723E0969587952A95E1F754
:1037900025E0289FF001299FF00D1124EE57FB4FE3
:1037A00020E030E070E04081CB01022E02C096950F
:1037B00087950A94E2F78170819584278523842771
:1037C00081932F5F3F4F2530310569F708950E949F
:1037D000B027609395057093960580939705909315
:1037E000980508950F931F9341E050E060E070E06A
:1037F00004C0440F551F661F771F8A95D2F7409566
:103800005095609570958091950590919605A09141
:103810009705B09198058A019B01082319232A2353
:103820003B23C901B8010E94E71B1F910F91089526
:103830002091F104809582238093F104982F977052
:1038400099F430E0482F082E000C550B241735074B
:1038500059F09091A70592FF07C0859585958595AC
:103860000E94F21B1092F10408959091A70592FB1B
:10387000222720F9281779F080FB92F99093A70569
:103880006091A6057091A70584E090E00E948131C7
:1038900082E00E94181C08950F931F9341E050E0AE
:1038A00060E070E004C0440F551F661F771F8A95C3
:1038B000D2F78091950590919605A0919705B091CA
:1038C00098058A019B01082B192B2A2B3B2BC90138
:1038D000B8010E94E71B1F910F91089560E070E00E
:1038E000CB010E94E71B089560934C0570934D0532
:1038F00080934E0590934F05089510921305809183
:103900000A01882331F08091A60587FF02C08EE16D
:1039100001C086E0E4E6F4E0DF011D928A95E9F754
:1039200080E090E00E94752C80E090E00E94502C96
:10393000109212050E94AD18E0E9F5E085E0DF0184
:103940001D928A95E9F710928A05109286051092C9
:1039500089050E94472D0895882321F00E94A6180A
:103960000E94AD180895882339F090911305892B92
:10397000809313050E94AD1808951F93CF93DF9392
:10398000182F893319F0C0E0D0E002C0C0E5D0E0C4
:10399000812F0E94702F209741F08FE99FE00197BF
:1039A000F1F700C000002197F6CF812F0E940C2F65
:1039B000DF91CF911F910895A0E0B0E0E2EEFCE12D
:1039C0000C942031EC018AE0A82EFE0124912223E0
:1039D00009F498C0213009F03DC0319684918130BE
:1039E00021F42296FE01849187C0823031F4229620
:1039F000FE0184910E94702F83C0833031F422969F
:103A0000FE0184910E940C2F7BC0843009F077C0A6
:103A10002296FE01249180E090E030E020533109AD
:103A20002A30310560F4A89EA001A99E500D1124F2
:103A3000C901840F951F2196FE012491EECF0097B6
:103A400009F45EC0EFE9FFE03197F1F700C0000034
:103A50000197F5CFE22FF0E0E15AF94FB490822FB1
:103A600086958695869590E0FC01E15BF94FE490A0
:103A70002770F12C022E02C0F594E7940A94E2F725
:103A8000F1E0EF22FF24FC01E15CF94FC490D12C5E
:103A9000022E02C0D594C7940A94E2F731E0C32203
:103AA000DD24FC01E15DF94F049110E002C01595A1
:103AB00007952A95E2F701701127E114F10419F036
:103AC00081EE0E94702FC114D10419F086EE0E947D
:103AD000702F8B2D0E94BD1CC114D10419F086EEED
:103AE0000E940C2FE114F10419F081EE0E940C2FBA
:103AF0000115110529F08CE20E94BD1C01C0EF01E7
:103B0000219663CFCDB7DEB7EAE00C943C31F901E2
:103B10002281A0914605B0914705211103C0A81745
:103B2000B907C9F086E04802A0011124CD01841B29
:103B3000950B6817790779F086E001900D928A95C8
:103B4000E1F78091460590914705480F591F509322
:103B50004705409346050895AAE2B0E0E2EBFDE197
:103B60000C942731EEE3F5E08091F100819345E07C
:103B7000E634F407C9F780913F05833009F463C048
:103B800030F4813071F0823009F49DC0B4C08A30C5
:103B900009F489C08B3009F46EC0893009F0ABC0DC
:103BA00020C080913E05813A09F0A5C08091E800CF
:103BB000877F8093E8008091420590914305892B8F
:103BC00021F460E28AE195E003C060E080E090E0EB
:103BD00070E00E942F2B8091E8008B778093E800A3
:103BE0008AC080913E05813209F085C080914205EE
:103BF00090914305009719F0029709F07CC08091DD
:103C0000E800877F8093E8008091E80082FD05C08E
:103C100080913C058111F8CF6EC02091F300809116
:103C2000F20090E0922B029731F48091F100813004
:103C300011F0863021F48091F10080931905809174
:103C4000E8008B7754C080913E05813A09F053C05B
:103C50008091420590914305892B09F04CC08091D9
:103C6000E800877F8093E8008091E80080FFFCCF28
:103C700080910A0137C080913E058132E1F5809143
:103C8000420590914305892BB1F58091E800877F2B
:103C90008093E8000E94DB2A8091400580930A010E
:103CA0000E947D1C28C080913E05813221F58091C3
:103CB000E800877F8093E8000E94DB2A809141051D
:103CC0008093180518C080913E05813AA1F4809137
:103CD000E800877F8093E8008091E80080FFFCCFB8
:103CE000809118058093F1008091E8008E77809391
:103CF000E8000E94DB2A8091E80083FFE0C1809108
:103D00003E0590913F05492F50E04A30510508F09B
:103D1000D6C1FA01EC53FF4F0C94B731803821F033
:103D2000823809F0CCC108C080913A0590913B05DA
:103D3000992389F082600FC0809142058F7087308F
:103D400008F0BDC18093E9008091EB0085FB8827D6
:103D500080F91092E9009091E800977F9093E80035
:103D60008093F1001092F10071C1282F2D7F09F08E
:103D7000A6C1882319F0823061F0A1C1809140056D
:103D8000813009F09CC1933009F080E080933B05BD
:103D90002EC08091400581112AC0809142058F700C
:103DA0002FEF280F263008F08AC18093E900209178
:103DB000EB0020FF1CC0933021F48091EB00806267
:103DC00014C09091EB0090619093EB0021E030E003
:103DD000A90102C0440F551F8A95E2F74093EA00FB
:103DE0001092EA008091EB0088608093EB001092C3
:103DF000E9008091E800877F8093E8000E94DB2A39
:103E00005EC181115CC1109140051F778091E30074
:103E10008078812B8093E3008091E800877F8093F6
:103E2000E8000E94DB2A8091E80080FFFCCF8091AF
:103E3000E30080688093E300111102C082E001C0BA
:103E400083E080933C053BC18058823008F037C145
:103E500020914005309141052C3D53E0350779F51F
:103E600083E08A838AE289834FB7F894DE01139650
:103E700020E03EE051E2E32FF0E050935700E49160
:103E800020FF03C0E295EF703F5FEF708E2F90E050
:103E9000EA3010F0C79601C0C0968D939D932F5FB6
:103EA000243149F74FBF8091E800877F8093E80075
:103EB0006AE270E0CE0101960E942F2BB5C080917E
:103EC000420590914305432F552743305105A9F0F2
:103ED00068F44130510509F401C14230510509F03F
:103EE000EEC084E790E0E3E6F5E04BC041325105D7
:103EF00029F14232510589F1E2C0C9019927813087
:103F00009105A1F058F0029709F0D9C0E9EEF5E06B
:103F1000E4918E2F90E0E9EEF5E030C0EBE2F6E0C0
:103F2000E4918E2F90E0EBE2F6E028C0E1E0F6E0CD
:103F3000E4918E2F90E0E1E0F6E020C0843091051E
:103F400008F0BDC0880F991FFC01EA5AFE4F01908E
:103F5000F081E02D89E090E014C08430910508F0F4
:103F6000AEC0FC01EE0FFF1FE25BFE4F0190F0813F
:103F7000E02DDC01A65BBE4F8C9190E0009709F428
:103F80009EC02091E800277F2093E80020914405FF
:103F9000309145058217930708F49C0140E02115F4
:103FA000310589F180913C05882309F43DC08530B5
:103FB000D9F18091E80083FD37C08091E80082FD4F
:103FC0002FC08091E80080FFEACF4091F3008091FC
:103FD000F20090E0942B2115310559F088309105BD
:103FE00040F444914093F1003196215031090196FB
:103FF000F2CF41E0089709F040E08091E8008E7729
:104000008093E800CCCF4111CDCF0AC080913C0510
:10401000882351F0853041F08091E80083FD04C091
:104020008091E80082FFF2CF8091E8008B77809347
:10403000E80045C0803809F042C08091E800877FE1
:104040008093E80080913D058093F1008091E80025
:104050008E77D2CE811133C0809140059091410579
:104060009927029764F58091E800877F8093E800A4
:104070001091400510933D050E94DB2A111106C0E6
:104080008091E30087FD02C081E001C084E080935D
:104090003C0542E061EC81E00E94FA2A42E061ECDA
:1040A00082E00E94FA2A42E261EC83E00E94FA2A4E
:1040B00042E261EC84E00E94FA2A80913C05809102
:1040C000E80083FF10C08091E800877F8093E800BC
:1040D0008091EB0080628093EB0005C082E190E06C
:1040E000E7EDF5E04ECFAA96E3E00C9443311F9242
:1040F0000F920FB60F9211242F933F934F935F931C
:104100006F937F938F939F93AF93BF93CF93DF93DF
:10411000EF93FF93C091E900CF708091EC00D82F0E
:10412000D17080FDD0E81092E9008091F000877F87
:104130008093F00078940E94AC1D1092E900809169
:10414000F00088608093F000CD2BCF70C093E90021
:10415000FF91EF91DF91CF91BF91AF919F918F919F
:104160007F916F915F914F913F912F910F900FBE73
:104170000F901F901895E8EDF0E080818E7F80838E
:104180001092E2001092DA001092E100A0EEB0E08E
:104190008C9181608C9380818F77808319BCA7ED8F
:1041A000B0E08C918E7F8C9380818F7E8083109283
:1041B00017050895A0E0B0E0E0EEF0E20C942231A3
:1041C000C8EDD0E088818F7E8883E7EDF0E08081C4
:1041D0008160808384E082BF81E0809317058881BD
:1041E0008E7F888302EE10E0F80110821092DA00D0
:1041F00081EEC82ED12CF601108288818F778883BA
:1042000088818068888388818F7D888319BC10921B
:104210003C0510923D0510923B0510923A0590EE38
:10422000E92EF12CF70180818B7F8083888181606A
:10423000888342E060E080E00E94FA2AF6018081F3
:104240008E7F8083F8018081816080838081886097
:104250008083F70180818E7F80838881806188835D
:10426000CDB7DEB7E8E00C943E311F920F920FB647
:104270000F9211242F933F934F935F936F937F93EC
:104280008F939F93AF93BF93EF93FF938091E10040
:1042900082FF49C08091E20082FF45C08091E10029
:1042A0008B7F8093E100209116052F5F822F62E3C0
:1042B0000E949731992319F02093160534C010926B
:1042C000160580911505882371F180913C05843095
:1042D00041F58091E9008F702091EC00922F917050
:1042E00020FD90E8892B94E09093E9009091EB00F9
:1042F00090FF14C09091EE0097FF10C09091E800DD
:1043000095FF03C01092F100F9CF9091E80090FF63
:1043100005C09091E8009E779093E8008F7080939D
:10432000E900109215058091DA0080FF32C080917B
:10433000D80080FF2EC08091DA008E7F8093DA0053
:104340008091D90080FF1CC080E189BD82E189BDD8
:1043500009B400FEFDCF81E080933C058FE495E039
:104360000E94730E80911705811113C00E94BB201B
:104370000E94DA208091E20084608093E20009C00C
:1043800019BC10923C0583E595E00E94730E1092D3
:1043900017058091E10080FF1BC08091E20080FF43
:1043A00017C08091E2008E7F8093E2008091E2004E
:1043B00080618093E2008091D80080628093D80071
:1043C00019BC85E080933C0587E595E00E94730E5B
:1043D0008091E10084FF38C08091E20084FF34C006
:1043E00080E189BD82E189BD09B400FEFDCF8091E5
:1043F000D8008F7D8093D8008091E1008F7E8093DC
:10440000E1008091E2008F7E8093E2008091E200E3
:1044100081608093E20080913D05882311F084E063
:1044200007C08091E30087FD02C081E001C083E006
:1044300080933C058BE595E00E94730E0E947D1CE5
:104440000E949A2C80913C058091E10083FF2BC053
:104450008091E20083FF27C08091E100877F8093F5
:10446000E10082E080933C0510923D058091E100DF
:104470008E7F8093E1008091E2008E7F8093E20046
:104480008091E20080618093E20042E060E080E0A1
:104490000E94FA2A8091F00088608093F0008FE5F6
:1044A00095E00E94730EFF91EF91BF91AF919F91A4
:1044B0008F917F916F915F914F913F912F910F90CD
:1044C0000FBE0F901F9018952091E4003091E500E9
:1044D00095E64091EC00842F817040FF23C08091CD
:1044E000E80080FD1DC080913C05882399F085304F
:1044F00099F08091EB0085FD11C04091E40050914E
:10450000E5002417350729F3915011F09A01E1CF06
:1045100084E0089582E0089583E0089581E008959D
:1045200080E008954091E80042FFDDCF089590912A
:10453000A60592FF0DC0282F2871283019F4877F17
:10454000846006C0282F2471243011F48B7F88608A
:1045500093FF0DC0282F2871283119F4877E8461BC
:1045600006C0282F2471243111F48B7E886120919C
:10457000A70520FF0DC0382F3871383019F4877F18
:10458000816006C0382F3171313011F48E7F886020
:1045900021FF0DC0282F2871283119F4877E8161F1
:1045A00006C0282F2171213111F48E7E886194FD7F
:1045B000877E08957E30B0F46630A0F4803290F4A7
:1045C00094E5899FF001112486E0789FE00DF11DAC
:1045D0001124E60FF11DEE0FFF1FE152F94F8591F7
:1045E0009491089580E090E00895AFE0B0E0EBEFA3
:1045F000F2E20C94193185B7806885BF85B7806871
:1046000085BF84B7877F84BF0FB6F894A895809143
:104610006000886180936000109260000FBE90E09F
:1046200080E80FB6F89480936100909361000FBE0C
:1046300088E09AE290935F0180935E010E94BB2024
:104640000E94DA208091E20084608093E2007894F6
:1046500080913C058823A1F01091E9001F70909192
:10466000EC00892F817090FD80E8182B1092E900F2
:104670008091E80083FD0E94AC1D1F701093E9003B
:1046800082E084BD93E095BD9AEF97BD80936E0064
:104690000E94942890E090931401809313010E944B
:1046A000B7298098889A8198899A84988C9A859855
:1046B0008D9A86988E9A87988F9AAAE6B5E0EAE551
:1046C000F5E011921D9225E0E836F207D1F78EE071
:1046D00090E00E94BD318093510590935205FC01FA
:1046E0000E9611928E179F07E1F789EA809380005A
:1046F00089E08093810024982C983F988AB18F7C20
:104700008AB96E98479A8BB180638BB9769A8FE09D
:1047100090E00E945731609348057093490580935B
:104720004A0590934B0567703FEF639FB0011124DA
:104730007595679575956795772770938900609350
:10474000880070938B0060938A0070938D00609353
:104750008C000E940B2980E090E00E945D31873E32
:104760009E4F09F473C067EE7EEF80E090E00E94F8
:10477000813160E082E090E00E94633160E083E09C
:1047800090E00E94633110924C0510924D051092FA
:104790004E0510924F0560E074E184E090E00E94C5
:1047A000813160E086E090E00E9463316FEF87E046
:1047B00090E00E94633140E050E0BA0188E090E070
:1047C0000E94753160E08DE090E00E94633140E02E
:1047D00050E0BA0188E190E00E94753160E087E125
:1047E00090E00E94633140E050E0BA018CE190E03B
:1047F0000E94753160E070E080E290E00E948131BB
:1048000040E050E0BA0188E190E00E9475311092DA
:1048100048051092490510924A0510924B0584E014
:104820008061809348054091480550914905609109
:104830004A0570914B058FE090E00E94753140E091
:1048400050E0BA0183E190E00E94753182E090E08F
:104850000E944F3180938B0584E090E00E945D318F
:104860009093A7058093A60583E090E00E944F31C6
:10487000682F70E080E090E00E94741C60919505C4
:104880007091960580919705909198050E94B027A8
:104890008BE091E090939F0580939E0551E3E52E78
:1048A0005CE1F52E69E2C62E6CE1D62E7724739476
:1048B0004EE1642E8091130190911401892BC1F077
:1048C000809150058F5F80935005811111C08DE05C
:1048D0009CE10E94730E0E94942890E09093140132
:1048E00080931301892B59F083EF9BE10E94730E93
:1048F0003AE5A32E35E0B32E00E010E01CC08FEDAA
:104900009BE10E94730E0E940B29F2CF912C882DFF
:104910000E94C6298F73F5019781891709F1878352
:1049200081E0982A09290E94B7291F5FFFEFAF1A7B
:10493000BF0A1730B9F027E0822E810E812F0E9426
:104940006329882D0E946329812F0E94C6298F73B5
:10495000D5019C918917D1F28C9399249394D7CF48
:1049600080E0DFCF10925705109156051123C9F151
:104970000E94C22B2091540530915505AC01421B79
:10498000530B9A0190935505809354054F3F510561
:1049900009F020F4452B09F415C202C02FEF30E0D6
:1049A0001092560510925305E0915105F091520571
:1049B000AF01425F5F4F90E030E08081882341F09B
:1049C000281718F01082912F03C0821B8083312F8B
:1049D0003196E417F50789F7309356059093530500
:1049E000F1C1002309F4E5C10E94C22B9093550543
:1049F00080935405E0915105F0915205809157053F
:104A000090915605BF01625F7F4F0AE515E02AE6E7
:104A100035E0D8014C91D9015C91541781F0508157
:104A200051110DC060824C93D8019C919427482F5E
:104A300050E0492B81E0452B09F480E091E031966C
:104A40002F5F3F4F0F5F1F4FE617F70711F7809358
:104A500057059093560580915905882369F025984C
:104A60002D98809158058F5F80935805853610F0FA
:104A7000259A2D9A0E94C22B98E7A92E95E0B92E6F
:104A8000AAE6B5E0F50191918D91892725E0E638F8
:104A9000F20719F08823B9F322C0811120C00E94C7
:104AA000C22B8C0180916805909169050817190740
:104AB00009F485C08FEF8E838F8318860E94C22BE6
:104AC0008160782F9A8789874E815F8168858A8582
:104AD0000E94EB26109369050093680570C08091D1
:104AE0008B0581FD04C00AE615E0912C2EC086E3FB
:104AF0009CE10E94730E8AE6882E85E0982E00E0E5
:104B000010E01F930F93FF92EF920E940C0F8EE222
:104B10009CE10E94730ED4018D914D010E94882763
:104B20001F928F93DF92CF920E940C0F87E29CE13D
:104B30000E94730E0F5F1F4F0FB6F894DEBF0FBEBB
:104B4000CDBF0E301105E9F6CECFD8013D908D01D5
:104B5000F5014080432409F1812C55245394842D80
:104B60008521A1F08B869C8691E0832D852109F417
:104B700090E09D870E94C22B8160782F9F878E874F
:104B80004B855C856D858F850E94EB268394550C43
:104B9000F6E08F12E4CFD5013C929394BFEFAB1AAD
:104BA000BB0AEEE09E12D1CF8FB7F8944091A205D8
:104BB0005091A3056091A4057091A5058FBF85E074
:104BC000E0E9F5E0DE01119601900D928A95E1F79A
:104BD00010929105109292051092930510929405EF
:104BE0001A81111104C08B81882309F44BC0809174
:104BF0008E0590918F050E94B32B459708F442C013
:104C000080918A058F3F19F08F5F80938A05112369
:104C100061F00E94122E111614F09FEF01C091E076
:104C2000899F802D1124809391051B81112361F0B0
:104C30000E94122E111614F09FEF01C091E0899F7F
:104C4000802D112480939205309191053323D1F06A
:104C5000209192052223B1F045EB3403C0011124C9
:104C6000992319F09093910502C07092910555EB2C
:104C70002503C0011124992319F09093920502C0D5
:104C8000709292051C81111104C08D81882309F452
:104C900050C080918C0590918D050E94B32B9C0192
:104CA00090918605992309F491C02333310508F4C6
:104CB00040C09F3F19F09F5F90938605112361F0DC
:104CC0000E94F02D111614F09FEF01C091E0899F12
:104CD000802D1124809393051D81112361F00E9482
:104CE000F02D111614F09FEF01C091E0899F802DE7
:104CF000112480939405309193053323D1F02091B2
:104D000094052223B1F045EB3403C001112499230B
:104D100019F09093930502C07092930555EB25030B
:104D2000C0011124992319F09093940502C0709248
:104D3000940545E050E0BE016F5F7F4F80E995E04C
:104D40000E94DE32892BA9F48091910581110FC058
:104D50008091920581110BC080919305811107C04C
:104D600081E090919405911103C080E001C081E041
:104D700080FD0E94472D85E0FE013196A0E9B5E057
:104D800001900D928A95E1F70E949A2C90918705E7
:104D9000891709F48FCD809387058FB7F8944091D8
:104DA000A2055091A3056091A4057091A5058FBF40
:104DB0007FCD80E090915305992309F44CCE811169
:104DC00019CE12CE011116CE81E0F4CF2139314037
:104DD00008F071CFAECFA7E1B0E0E1EFF6E20C94BE
:104DE00027314B8B5C8B6D8B7E8B8F8B611110927F
:104DF000120586E09E01235F3F4FD901E82F1D92E7
:104E0000EA95E9F795E0FE017396D90101900D92BC
:104E10009A95E1F79C894E895F897B897D879E877A
:104E20006F87598B488BF901DE01179601900D921F
:104E30008A95E1F7CE0107960E94F51981113EC0CF
:104E400086E0FE013796DE01119601900D928A955B
:104E5000E1F7FF81E8856A857B856115710531F091
:104E6000EF3F31F481E0FF3F19F403C081E001C05E
:104E700080E080FD23C02091BF0430E0C90101968D
:104E8000877099274091F00450E08417950779F1D5
:104E9000F983EA837D836C8396E0929FD001939F90
:104EA000B00D1124A054BB4FFE01319601900D921C
:104EB0009A95E1F78093BF040E94021916E0809151
:104EC000F0049091BF048917F9F0189FC0011124D4
:104ED00080549B4F0E94F5198823B1F08091F00413
:104EE00090E00196877099278093F004E8CF0E94A4
:104EF0007D1C1092BF041092F004E9EBF4E086E010
:104F0000DF011D928A95E9F76796E3E00C9443313F
:104F10008295982F937344E0949F900111248C7C88
:104F200086958695282B822F8575880F2A7A269557
:104F3000822B08950E947D1C2FEF84E39CE021507A
:104F400080409040E1F700C000009AE088E10FB691
:104F5000F894A895809360000FBE90936000FFCFF7
:104F60008F929F92AF92BF92CF92DF92EF92FF9279
:104F70006C01EE24FF24C114D104E104F10411F00A
:104F800020E103C06B017C0120E08D2C9E2CAF2C16
:104F9000BB2481149104A104B10419F0285F7501A8
:104FA00064014601570154E0B694A79497948794FE
:104FB0005A95D1F781149104A104B10419F02C5F22
:104FC000750164014601570142E0B694A794979495
:104FD00087944A95D1F781149104A104B10419F082
:104FE0002E5F75016401F694E794D794C794CD2899
:104FF000CE28CF2809F02F5F293151F028F4243131
:1050000039F0283129F007C02B3111F02E3119F475
:10501000259A2D9A02C025982D986B017C0120E2DB
:10502000C22220E8D222EE24FF24DC01CB0120E2C0
:10503000C21620E8D206E104F10411F4A26001C016
:10504000AD7F6C017D0128E8C222DD24EE24FF241F
:1050500028E8C216D104E104F10411F4A16001C0F2
:10506000AE7F6C017D0124E0C22222E0D222EE2438
:10507000FF2424E0C21622E0D206E104F10411F478
:10508000A46001C0AB7F6C017D0120E4C22222E05C
:10509000D222EE24FF2420E4C21622E0D206E1044C
:1050A000F10411F4A06401C0AF7B6C017D0122E02A
:1050B000C22220E8D222EE24FF2422E0C21620E8F9
:1050C000D206E104F10411F4A86001C0A77F6C01CD
:1050D0007D0126E0C222DD24EE24FF2426E0C21654
:1050E000D104E104F10411F4A06801C0AF776C01B0
:1050F0007D0120E1C22221E0D222EE24FF24BC0166
:10510000CD0120E1C21621E0D206E104F10411F440
:10511000906201C09F7DFF90EF90DF90CF90BF9095
:10512000AF909F908F90089580E290E0909314014B
:10513000809313018091880581110EC00E94343044
:1051400081E0809388052FEF83ED90E3215080402C
:105150009040E1F700C0000064E670E080E40E9447
:105160003A309093140180931301892B09F04EC0BB
:1051700064E670E080E00E94AD309093140180936B
:105180001301892B09F042C064E670E080E00E94C0
:10519000AD309093140180931301892BB9F564E627
:1051A00070E08FE30E94AD3090931401809313015F
:1051B000892B61F50E94003164E670E080E40E9472
:1051C0003A309093140180931301892BF9F464E62B
:1051D00070E08CE00E94AD30909314018093130135
:1051E000892BA1F464E670E080E00E94AD309093DA
:1051F000140180931301892B49F464E670E08FE376
:105200000E94AD3090931401809313010E940031ED
:1052100080911301089556985E9825982D982698A8
:105220002E9827982F988FEF90E090938900809385
:10523000880090938B0080938A0090938D008093D8
:105240008C00259A2D9A2FEF80E792E02150804024
:105250009040E1F700C00000269A2E9A2FEF80E7D9
:1052600092E0215080409040E1F700C00000279A72
:105270002F9A2FEF80E792E0215080409040E1F795
:1052800000C0000025982D982FEF80E792E0215074
:1052900080409040E1F700C0000026982E982FEF44
:1052A00080E792E0215080409040E1F700C000008C
:1052B00027982F9856985E9825982D9826982E987E
:1052C00027982F980895CF93E82F873080F5809105
:1052D000130190911401892B09F047C0CE2F64E689
:1052E00070E080E40E943A3090931401809313019F
:1052F000892BD1F464E670E082E10E94AD30909396
:10530000140180931301892B79F481E090E001C0AE
:10531000880FCA95EAF764E670E080950E94AD3088
:1053200090931401809313010E9400311EC090E0FD
:10533000FC013797E730F105C0F4E253FF4F0C94BE
:10534000B731209A289811C0219A29980EC0229A24
:105350002A980BC0239A2B9808C0529A5A9805C0D5
:10536000539A5B9802C03E9A4698CF910895209830
:1053700028982198299822982A9823982B9852980F
:105380005A9853985B983E9846980895CF938730E3
:1053900040F58091130190911401892B59F564E631
:1053A00070E081E40E943A309093140180931301DD
:1053B000892B11F0C0E011C084E690E00E94DC303F
:1053C00097FF05C09093140180931301F3CFC82F6A
:1053D000C09510921401109213010E9400318C2F7D
:1053E0000AC09FB18FB1807F869586959370892B77
:1053F000809501C080E0CF91089581E080935905A8
:105400000E94C22B259A2D9A08958091190508951E
:105410009FB7F894109215059FBF90913C0594306A
:1054200009F057C09091E9009F703091EC00232F54
:10543000217030FD20E8922B24E02093E900209198
:10544000EB0020FF43C02091EE0027FF3FC02091DA
:10545000A805222321F02091E80025FF37C01092F3
:10546000A80526E03091E80035FD15C030913C05D7
:10547000343061F53091EB0035FD28C0215021F426
:1054800081E08093A80522C0EFE9FFE03197F1F7B2
:1054900000C00000E7CF8093F1008091E80085FD17
:1054A0000AC08091E80080FFFCCF8091E8008E77F1
:1054B0008093E80006C08FB7F89421E0209315058B
:1054C0008FBF9F709093E90080E008959F70909344
:1054D000E9008FEF08950F931F93CF93DF938B0114
:1054E000EA0190913C05943079F58F708093E90042
:1054F0008FEF9091E800815095FD06C095ED9A954B
:10550000F1F700008111F5CF8091E80085FF1CC004
:105510000E946422882361F08091E8008E77809356
:10552000E80012C0F80181918F018093F10021976A
:10553000209791F38091E80085FDF4CF8091E800F9
:105540008E778093E800E4CFDF91CF911F910F9188
:10555000089543E050E0BC0183E00E946B2A089567
:1055600045E050E0BC0182E00E946B2A0895CF9391
:10557000DF93EC0180910A01811105C048E050E001
:10558000BE0181E00BC08091A60587FF03C040E209
:1055900083E002C048E081E050E0BE010E946B2A37
:1055A00080E2FE01AAE1B5E001900D928A95E1F753
:1055B000DF91CF91089580913E0587FF11C08091C2
:1055C000E80082FD05C080913C058111F8CF11C033
:1055D0008091E8008B770BC080913C05882349F0CF
:1055E0008091E80080FFF8CF8091E8008E7780936B
:1055F000E8000895982F973068F59093E900981780
:1056000039F07091EC002091ED005091F00003C052
:10561000242F762F50E021FD02C09F5FECCF309108
:10562000EB003E7F3093EB003091ED003D7F3093F7
:10563000ED003091EB0031603093EB007093EC00A3
:105640002093ED005093F0002091EE0027FDE5CF70
:1056500080E008958F708093E90081E008952091A3
:105660004405309145052617370748F06115710547
:1056700039F42091E8002E772093E80001C0B901A9
:10568000FC0120E06115710579F180913C058823CA
:10569000F1F18530F1F18091E80083FD3CC080910B
:1056A000E80082FD2EC08091E80080FFEBCF2091C2
:1056B000F3008091F20090E0922B6115710551F09A
:1056C0008830910538F421912093F10061507109DF
:1056D0000196F3CF21E0089709F020E08091E800DF
:1056E0008E778093E800CECF2111CFCF0AC0809172
:1056F0003C05882361F0853061F08091E80083FDEE
:105700000AC08091E80082FFF2CF80E0089582E035
:10571000089583E0089581E0089578941F920F9290
:105720000FB60F9211248F939F93AF93BF938091E5
:10573000A2059091A305A091A405B091A50501969D
:10574000A11DB11D8093A2059093A305A093A4056C
:10575000B093A505BF91AF919F918F910F900FBE10
:105760000F901F9018959C014FB7F8948091A20557
:105770009091A305A091A405B091A5054FBF821BF0
:10578000930B08952FB7F8948091A2059091A305EB
:10579000A091A405B091A5052FBF08951F920F9267
:1057A0000FB60F9211248F939F93AF93BF93809165
:1057B000A2059091A305A091A405B091A5054196DD
:1057C000A11DB11D8093A2059093A305A093A405EC
:1057D000B093A505BF91AF919F918F910F900FBE90
:1057E0000F901F90189520910A012223C9F0209153
:1057F000A60527FF15C0262F2695269526952E311E
:10580000C8F4FC01E20FF11D677081E090E001C077
:10581000880F6A95EAF7809592818923828308959B
:10582000FC0106962281621301C012823196E817AC
:10583000F907C1F7089520910A012223C1F02091B0
:10584000A60527FF14C0262F2695269526952E31CE
:1058500030F5FC01E20FF11D677081E090E001C0BE
:10586000880F6A95EAF79281892B82830895FC015B
:1058700032962FEF30E04191641789F02F3F19F4F1
:10588000411101C0232F3F5F3630A9F72F3F39F078
:10589000FC01E20FF11D27FDFA956283089508953A
:1058A000A3E0B0E0E6E5FCE20C9428312091A005ED
:1058B0003091A10528173907A1F09093A105809395
:1058C000A005E0919E05F0919F05309751F024E0EE
:1058D00029839B838A830680F781E02DCE01019680
:1058E00009952396E2E00C944431A3E0B0E0EBE7A5
:1058F000FCE20C94283120919C0530919D052817DD
:105900003907A1F090939D0580939C05E0919E0539
:10591000F0919F05309751F023E029839B838A8380
:105920000680F781E02DCE01019609952396E2E0ED
:105930000C944431E0919E05F0919F05309729F039
:105940000190F081E02D0995089580E008950F936E
:105950001F93CF93DF93C42FD22FFC018281882322
:10596000B1F040939B050E94C22B90939A058093BF
:10597000990580E28C0F883008F04DC0C77081E037
:1059800001C0880FCA95EAF70E94B31C44C08091F9
:105990009B05481330C08091990590919A050E940B
:1059A000B32B8F3A910538F510E21D0FCD17B9F0E2
:1059B00080E28C0F883040F4C77081E001C0880F0E
:1059C000CA95EAF70E94AC1C183010F581E09D2FB3
:1059D000977001C0880F9A95EAF70E94B31C802F38
:1059E0000E94BD1C1830B8F4D77081E001C0880F48
:1059F000DA95EAF70AC080E28C0F883060F4C7704D
:105A000081E001C0880FCA95EAF70E94AC1C03C070
:105A1000802F0E94BD1CDF91CF911F910F9108959F
:105A20008F929F92AF92BF92EF92FF920F931F932C
:105A3000CF93DF93EC017B01042F8090950590902C
:105A40009605A0909705B09098050E947D1C0E9435
:105A50006E1C86E0080280011124CE15DF0531F0AE
:105A6000CE010E94150FC00FD11FF7CF0E947D1CE1
:105A7000C501B4010E94E71BDF91CF911F910F91E7
:105A8000FF90EF90BF90AF909F908F90089580917E
:105A90008B0583FF7EC08CE69CE10E94730E809193
:105AA00090051F928F9387E69CE19F938F930E94AE
:105AB0000C0F85E69CE10E94730E80919105282FC2
:105AC000082E000C330B3F938F9382E69CE19F934B
:105AD0008F930E940C0F80E69CE10E94730E8091D0
