:100000000C94080E0C94250E0C94250E0C94250EC1
:100010000C94250E0C94250E0C94250E0C94250E94
:100020000C94250E0C94250E0C940E250C94502443
:100030000C94A72B0C94250E0C94250E0C94250ED5
:100040000C94250E0C94250E0C94250E0C94250E64
:100050000C94250E0C945A2B0C94250E0C94250E02
:100060000C94250E0C94250E0C94250E0C94250E44
:100070000C94250E0C94250E0C94250E0C94250E34
:100080000C94250E0C94250E0C94250E0C94250E24
:100090000C94250E0C94250E0C94250E0C94250E14
:1000A0000C94250E0C94250E0C94250E16101F1082
:1000B0002E103D104C104F10641067106D106A1018
:1000C00070107B107B101C10191073107610C91063
:1000D000CC10CF10D210D510C610C310B710BA1064
:1000E000BD10C010B41016113711341131112E117A
:1000F0002B11191128112511221113111F111C1177
:10010000EF11F511E311E911FB110112071264124D
:10011000D8126C1236123A1270123D1273127E12FD
:100120004812CE124C12821250128612B012541281
:100130008A12BA125A1290129A124112771244126B
:100140007A125F129512A612C612C81232126812E3
:10015000E112EB13EB131D141D149B14B9144A1672
:100160004A16BE149A15AB15AB1567228E22382499
:100170008E223824DA22FD223824F32303246E2928
:100180007129742977297A297D2980290101400163
:10019000010A000101400101090001013E01010FB6
:1001A0000001013E01010C0001013E01010E0001B0
:1001B000013E01010B000102E0780103E03530004F
:1001C0000101410001013E01011000010141000156
:1001D0000141000101410001013E0101190001013D
:1001E0003E01011A000102E0780103E0010105006F
:1001F00001013E0101200001013E01011F0001013A
:100200003E0101110001013E0101120001013F0107
:10021000011C0001013F01011B0001013F0101120E
:100220000001013F0101110001013F010110000126
:10023000013F01010F0001013F01010E0001013EDC
:100240000101170001013E0101180001013E0101F9
:100250001B0001013E01011C0001013E01012200C1
:1002600001013E0101230001013F01011F000101C5
:100270003E01011E0001013F0101080001013E0194
:1002800001160001013F01011D0001013F01010AAA
:100290000001013F010107000102E0636E0103E07C
:1002A0000001013E0101260001013F01011400018E
:1002B00002E0630103E00102E1320103E100010217
:1002C000E06378770103E0000102E06378790103DD
:1002D000E0000102E063660103E0000102E0636206
:1002E0000103E00001013F010115000102E063018B
:1002F00003E0010134000102E063780103E0010240
:10030000E2770103E2000102E0636C0103E0010116
:10031000280001013F0101130001013F0101180004
:1003200001013F0101090001013F01011900010123
:100330003E01011D000102E0780103E0726A000144
:1003400002E0780103E07220000102E0780103E09E
:100350007269000102E0780103E072730001013F5D
:1003600001011600010141000101410001013E01AE
:1003700001210001013E010125006B633A20257532
:100380002C20636F6C3A2025752C20726F773A20F1
:1003900025752C20707265737365643A2025750A83
:1003A0000000002A00294B4A000000000000001451
:1003B0004D04221D4C0000000000001A2816211BCD
:1003C0002900003F520000084F0724064700008024
:1003D0007E00001545094119434C0000000000173C
:1003E000000A0005000000000000000000000000FE
:1003F00000000000000000000000000000000000FD
:100400000000001C000B001100000000000000189C
:10041000460D4210442B00000000000C490E3436FB
:100420004800002C00000012380F31373900003E20
:1004300052520013003332344E0000000051007E4F
:100440007E284A4D0000000000010001000100016B
:10045000000100000001000000E1000000010001B7
:10046000000100E300E000E0080100010001002FAE
:1004700052E2000000010001000100000001000044
:100480000001000100010000000000000000000168
:100490000001000100000001000000010001000156
:1004A00000000001000000010001002D00380036AE
:1004B00000000001000100240021421E0001000193
:1004C000000100254922001F000100010001002653
:1004D0000023002000010001000100000027003778
:1004E0000001000100010001000100010001000005
:1004F00000010001000100010001000000010049AD
:100500000038000000010001000100260250000038
:1005100000010001000100520051003900010001FA
:1005200000010027024F41250201000100010000E7
:1005300000517E00000000010001000100000001E8
:1005400000000001000100010000000100000001A6
:100550000001000000000000000000010001000098
:1005600000010000000100010001002952E6000026
:1005700000010001000100E700E400E418010001AF
:100580000001000000E50000000100010001000181
:100590000001000100010000000100010001000154
:1005A000000100000001000000E100000001000166
:1005B000000100E300E000E008010001000100008C
:1005C00000E20027520100010001000000000001CC
:1005D0000001000100010000000000000000000117
:1005E0000001000100000001000000010001000105
:1005F00000000001000000010001000000000000F8
:100600000000000100010042003E003A000100012C
:1006100000010043003F003B0001000100010044D5
:100620000040003C00010001000100450041003D88
:1006300000010001000100010001000100010000B3
:1006400000010001000100010001000000010000A4
:10065000007D7E00000100010001002F007C7E0073
:10066000000100010001007B7E7A7E000001000194
:1006700000010030001E0200000100010001000026
:10068000003802000000000100010001000000012C
:100690000000000100010001000000010000000155
:1006A0000001000000000000000000010001000047
:1006B00000000001000100010001000000E6002828
:1006C00052010001000100E700E400E4180100010C
:1006D0000001000000E50000000100010001000130
:1006E0000001000100010000000100010001000103
:1006F000000100000001000000E100000001000115
:10070000000100E300E000E0080100010001002F0B
:1007100052E20000000100010001000100000000A1
:1007200000010001000100000000000000000001C5
:1007300000010001000000010000000100010001B3
:100740000000000100000001000100000000004E58
:1007500000000001000100557E20020000010001A0
:10076000000100567E310000000100010001000080
:1007700000350000000100010001004B00350200BF
:100780000001000100010001000100010001000062
:100790000001000100010001000100000001000053
:1007A000002D02000001000100010000002E0000E9
:1007B00000010001000100547E2D00000001000135
:1007C000000100537E2E0200000100010001000024
:1007D0000000000000000001000100010000000115
:1007E0000000000100010001000000010000000104
:1007F00000010000000000000000000100010001F5
:1008000000000000000100010001000049E60000B6
:1008100000010001000100E700E400E4180100010C
:100820000001000000E500000001000100010001DE
:1008300000010001000100000001000100010001B1
:1008400000010000000100000000000000010001A4
:100850000001000000E000000001000100010000B4
:100860000000000100010001000100000000002361
:100870005201000100010000000000000000000122
:100880000001000100000001000000010001000162
:100890000000000100000001000100000000000055
:1008A0000000000100010000001F02000001000123
:1008B000000100527E21026E0001000100010000D3
:1008C00000220200000100010001006B0023020071
:1008D0000001000100010001000100010001000011
:1008E0000001000100010001000100000001000002
:1008F00000000000000100010001002F02000000C4
:1009000000010001000100787E797E4B07010001A3
:10091000000100300231020000010001000100006E
:10092000002402000000000100010001000000019D
:1009300000000001000100010000000100000001B2
:1009400000010000000000000000000100010000A4
:10095000000000245201000100010000000000011D
:100960000001000100010000000000000001000182
:100970000001000000000000000100010001000172
:100980000001000100010000000100010001000160
:10099000000100000001005C7E00005B7E010001A0
:1009A000000100467E160F00000100010001004317
:1009B0007E427E4D7E01000100010000004B7E0062
:1009C00000010001000100170F00006B7E00000114
:1009D0000001000100000001000000010001000111
:1009E0000000000100000001000100000000000004
:1009F000000000010001000046004200000100016B
:100A000000010001000000000001000100010000E1
:100A100000000000000100010001000000000000D3
:100A200000010001000100010001000100010000BF
:100A30000001000100010001000100000001005F51
:100A40007E677E667E010001000100607E627E633B
:100A50007E0100010001005E7E0000687E01000151
:100A60000001005D7E657E647E0100010001006181
:100A70007E000000000000010001000100000001F4
:100A80000000000100010001000000010000000161
:100A90000001000000000000000000010001000053
:100AA0000000000000010001000100000000000043
:100AB0000001000100010000000000000001000131
:100AC0000001000000000000000100010001000121
:100AD000000100010001000000010001000100010F
:100AE0000001000000010000000000000001000102
:100AF00000010000000000000001000100010000F2
:100B000000000000000100010001000000000000E2
:100B100000010001000100000000000000000001D1
:100B200000010001000000010000000100010001BF
:100B300000000001000000010001004E7E717E6A8D
:100B40007E00000100010000006E7E000001000137
:100B50000001006C7E707E00000100010001006F4A
:100B60007E6D7E0000010001000100697E00000032
:100B7000000100010001000100010001000100006E
:100B8000000100010001000100010000000100005F
:100B90000000000000010001000100000000000052
:100BA0000001000100010000000000000001000140
:100BB0000001000000000000000100010001000031
:100BC0000000000000000001000100010000000121
:100BD0000000000100010001000000010000000110
:100BE0000001000000000000000000010001000002
:100BF00000777E0000010001000100697E6A7E002E
:100C0000000100010001000000767E0000010001EB
:100C100000010000000000000001000100010001CF
:100C200000010001000100000001000100010001BD
:100C300000010000000100000000000000010001B0
:100C400000010000000000000001000100010000A0
:100C50000000000000010001000100000000000091
:100C60000001000100010000000000000000000180
:100C7000000100010000000100000001000100016E
:100C80000000000100000001000100000000000061
:100C9000000000010001000000050D00000100013E
:100CA000000100040D060D0000010001000100001C
:100CB00000070D000001000100010000000000001D
:100CC000000100010001000100010001000100001D
:100CD000000100010001000100010000000100000E
:100CE00000000000000100010001000000737E0010
:100CF00000010001000100727E757E00000100010C
:100D00000001000000747E0000010001000100836A
:100D10007E00000000000001000100010000000151
:100D200000000001000100010000000100000001BE
:100D300000010000000000000000000100010000B0
:100D400000000000000100010001000000000000A0
:100D5000000100010001000000000000000100018E
:100D6000000100000000000000010001000100017E
:100D7000000100010001000000010001000100016C
:100D8000000100000001000000000000000100015F
:100D9000000100000000000000010001000100014E
:100DA0000000000000010001000100255221520056
:100DB000000100010001000000000000000000012F
:100DC000000100010000000100000001000100011D
:100DD00000000001000000010001007300447E716A
:100DE00000000001000100130D100D110D010001A4
:100DF0000001001B0D0A0D120D010001000100147D
:100E00000D0B0D0F0D0100010001007200270D7088
:100E100000010001000100010001000100010000CB
:100E200000010001000100010001000000010000BC
:100E300000000001000100010001000000000000AE
:100E4000000100010001000000000000000100019D
:100E5000000100000000000000010001000100008E
:100E6000000000000000000100010001000000017E
:100E7000000000010001000100000001000000016D
:100E8000000100000000000000000001000100BCA3
:100E900000AC000000010001000100A900AA000050
:100EA00000010001000100BB00AB000000010001D7
:100EB0000001000000AE000000010001000100017F
:100EC00000007C817E0100000001000100010001A2
:100ED000000100000001000000000000000100010E
:100EE00000010000000000000001000100010000FE
:100EF00000000000000100010001000000000000EF
:100F000000010001000100000000000000000001DD
:100F100000010001000000010000000100010001CB
:100F200000000001000000010001000000000000BE
:100F300000000001000100210D1E0D1F0D01000128
:100F4000000100230D0D0D200D0100010001002204
:100F50000D0E0D1D0D01000100010000000000003C
:100F6000000100010001000100010001000100007A
:100F7000000100010001000100010000000100006B
:100F80000000000000010001000100477E00000099
:100F9000000100010001004A7E497E0000010001BD
:100FA0000001000000457E000001000100010082F8
:100FB0007E000000000000010001000100000001AF
:100FC000000000010001000100000001000000011C
:100FD000000100000000000000000001000100000E
:100FE00000010000000100010001000100000000FC
:100FF00000010001000100000000000000010001EC
:1010000000010000000000000001000100010001DB
:1010100000010001000100000001000100010001C9
:1010200000010000000100000000000000010001BC
:1010300000010000000000000001000100010001AB
:10104000000000000001000100010000000100009C
:10105000000100010001000000000000000000018C
:10106000000100010000000100000001000100017A
:10107000000000010000000100010000004C7E00A3
:1010800000000001000100190D160D170D010001EF
:101090000001001C0D090D180D0100010001001ACE
:1010A0000D080D150D0100010001000000000000F9
:1010B0000001000100010001000100010001000029
:1010C000000100010001000100010000000100001A
:1010D000000000000001000100010000000000000D
:1010E00000010001000100000000000000010001FB
:1010F00000010000000000000001000100010000EC
:1011000000000000000000010001000100000001DB
:1011100000000001000100010000000100000001CA
:1011200000010000000000000000000100010000BC
:1011300000000000000100010001000000000000AC
:10114000000100010001000000000000000100019A
:10115000000100000000000000010001000100018A
:101160000001000100010000000100010001000178
:10117000000100000001000000000000000100016B
:10118000000100000000000000010001000100005B
:10119000000000000001000100010000000000004C
:1011A000000100010001000000000000000000013B
:1011B0000001000100000001000000010001000129
:1011C000000000010000000100010000000000001C
:1011D000000000010001000000000000000100010B
:1011E00000010000000000000001000100010000FB
:1011F00000000000000100010001000000000000EC
:1012000000010001000100010001000100010000D7
:1012100000010001000100010001000000010000C8
:1012200000000000000100010001004F7E507E0020
:1012300000010001000100000000000000010001A9
:10124000000100000000000000010001000100009A
:10125000000000000000000100010001000000018A
:101260000000000100010001000000010000000179
:10127000000100000000000000000001000100006B
:10128000000000000001000100010000000000005B
:101290000001000100010000000000000001000149
:1012A0000001000000000000000100010001000139
:1012B0000001000100010000000100010001000127
:1012C000000100000001000000000000000100011A
:1012D00000010000005A7E00000100010001000032
:1012E00000587E0000010001000100000001000024
:1012F00000010001000100000000000000000001EA
:1013000000010001000000010000000100010001D7
:1013100000000001000000010001000000000000CA
:1013200000000001000100000001000000010001B8
:101330000001000000577E000001000100010000D4
:1013400000597E00000100010001000000000000C3
:101350000001000100010001000100010001000086
:101360000001000100010001000100000001000077
:10137000000000000001000100010000000000006A
:101380000001000100010000000000000001000158
:101390000001000000000000000100010001000049
:1013A0000000000000000001000100010000000139
:1013B0000000000100010001000000010000000128
:1013C000000100000000000000000001000100001A
:1013D000000000000001000100010000000000000A
:1013E00000010001000100000000000000010001F8
:1013F00000010000000000000001000100010001E8
:1014000000010001000100000001000100010001D5
:1014100000010000000100000000000000010001C8
:1014200000010000000000000001000100010000B8
:1014300000000000000100010001000000000000A9
:101440000001000100010000000000000000000198
:101450000001000100000001000000010001000186
:101460000000000100000001000100000000000079
:101470000000000100010000000000000001000168
:101480000001000000000000000100010001000058
:101490000000000000010001000100000000000049
:1014A0000001000100010001000100010001000035
:1014B0000001000100010001000100000001000026
:1014C00000E1000000010001000100E300E000E095
:1014D000080100010001000000E2001C52010001AF
:1014E000000100000000000C0DDD00010001000003
:1014F00000000000000000010001000100000001E8
:1015000000000001000100010000000100000001D6
:1015100000010000000000000000000100010000C8
:1015200000CF000000D20001000100CD00CE001C61
:10153000520100005201000000D000000001000133
:101540000001000000D100000001000100010001C5
:101550000001000100010000000100010001000184
:101560000001000000010000000000000001000177
:101570000001000000000000000100010001000067
:101580000000000000010001000100000000000058
:101590000001000100010000000000000000000147
:1015A0000001000100000001000000010001000135
:1015B0000000000100000001000100000000000028
:1015C0000000000100010000000000000001000117
:1015D0000001000000000000000100010001000007
:1015E00000000000000100010001000000000000F8
:1015F00000010001000100010001000100010000E4
:1016000000010001000100010001000000010000D4
:1016100000E1000000010001000100E300E000E043
:10162000080100010001000000E2000000010001CB
:10163000000100000000000C0D010001000100008D
:101640000000000000000001000100010000000196
:101650000000000100010001000000010000000185
:10166000000100807E000000000000010001000079
:1016700000DB000000010001000100D900DA0000D9
:10168000000100010001000000DC00000001000179
:101690000001000000000000000100010001000145
:1016A0000001000100010000000100010001000133
:1016B0000001000000010000000000000001000126
:1016C0000001000000000000000100010001000016
:1016D0000000000000010001000100000000000007
:1016E00000010001000100000000000000000001F6
:1016F00000010001000000010000000100010001E4
:1017000000000001000000010001000000000000D6
:1017100000000001000100000000000000010001C5
:1017200000010000000000000001000100010000B5
:1017300000000000000100010001000000000000A6
:101740000001000100010001000100010001000092
:101750000001000100010001000100000001000083
:101760000000000000010001000100000000000076
:101770000001000100010000000000000001000164
:101780000001000000000000000100010001000055
:101790000000000000000001000100010000000145
:1017A0000000000100010001000000010000000134
:1017B0000001000000000000000000010001000026
:1017C0000000000000010001000100000000000016
:1017D0000001000100010000000000000001000104
:1017E00000010000000000000001000100010001F4
:1017F00000010001000100000001000100010001E2
:1018000000010000000100000000000000010001D4
:1018100000010000000000000001000100010000C4
:1018200000000000000100010001000000000000B5
:1018300000010001000100000000000000000001A4
:101840000001000100000001000000010001000192
:101850000000000100000001000100000000000085
:101860000000000100010000000000000001000174
:101870000001000000000000000100010001000064
:101880000000000000010001000100000000000055
:101890000001000100010001000100010001000041
:1018A000006C65667420736964652061747461639B
:1018B0006865640A006C6566742073696465206EEF
:1018C0006F7420726573706F6E64696E670A00745E
:1018D0007279696E6720746F207265736574206D0C
:1018E000637032333031380A000A00253038620024
:1018F0003A200025303258000A722F6320303132EE
:1019000033343536370A000631FF0974A1010975F1
:10191000150026FF0095207508810209761500261E
:10192000FF00952075089102C005010980A101857D
:101930000319012AB700150126B70095017510811A
:1019400000C0050C0901A101850419012AA0021596
:101950000126A002950175108100C005010906A1AC
:10196000018506050719E029E71500250195087589
:101970000181020507190029EF1500250195F07571
:101980000181020508190129059505750191029546
:101990000175039101C005010902A1010901A1001E
:1019A000050919012908150025019508750181020D
:1019B0000501093009311581257F950275088106D9
:1019C00009381581257F950175088106050C0A38AF
:1019D000021581257F950175088106C0C0050109A2
:1019E00006A101050719E029E715002501950875ED
:1019F0000181029501750881010507190029FF156C
:101A00000026FF00950675088100050819012905C3
:101A1000950575019102950175039101C05B435DC8
:101A2000005B445D005B535D005B575D005B525D96
:101A30000009027400040100A0FA09040000010377
:101A40000101000921110100012240000705810365
:101A5000080001090401000103010200092111012C
:101A60000001224700070582030800010904020063
:101A70000103000000092111010001226D0007058A
:101A80008303200001090403000203000000092170
:101A9000110100012222000705840320000107052F
:101AA00004032000011201000200000008973274B4
:101AB0004901000102000116034500720067006F32
:101AC0000044006F007800200045005A0000002804
:101AD000035A005300410020005400650063006871
:101AE000006E006F006C006F006700790020004CF2
:101AF0000061006200730000000403090401010496
:101B000000010105000101060001010700010108B3
:101B10000001010900290A002575002F0025750024
:101B20005D28002564002000256400200025640055
:101B300020002564007C0025303258006D6F7573DD
:101B4000656B6579205B62746E7C782079207620E5
:101B5000685D287265702F61636C293A205B000014
:101B60000000000000000000000000000000000075
:101B70000000000000000000000000000000000065
:101B80000000007E0F00D4FFFFFFC70000007800B8
:101B9000000000000000002A2B28000000000000C8
:101BA0000000000000000000000029000000002CE0
:101BB0001E3420212224342627252E362D3738277F
:101BC0001E1F202122232425263333362E37381F8B
:101BD0000405060708090A0B0C0D0E0F101112134D
:101BE0001415161718191A1B1C1D2F3130232D35EB
:101BF0000405060708090A0B0C0D0E0F101112132D
:101C00001415161718191A1B1C1D2F3130354C00CE
:101C100011241FBECFEFDAE0DEBFCDBF11E0A0E0A0
:101C2000B1E0EEE4F7E602C005900D92A236B107EE
:101C3000D9F726E0A2E6B1E001C01D92A838B207AC
:101C4000E1F70E9481170C94A5330C940000FF93D8
:101C5000EF93E0916201F0916301309709F00995EB
:101C6000EF91FF910895FC018591803011F0EFDF35
:101C7000FBCF0895FF27E0E230E247FF0CC041951B
:101C800097FF09C0EDE26095709580959095611D74
:101C9000711D811D911D27FF02C0219530E350E287
:101CA000AA27660F771F881F991FAA1FA41710F075
:101CB000A41B63955A95A9F7AA3008F0A95FA05D07
:101CC000AF93F395611571058105910541F7ED32EB
:101CD00011F4EF93F395F21718F43F93F395FBCFBC
:101CE0008F91B5DFFA95E1F70895E991F991859122
:101CF000803021F0853219F0AADFF9CF089520E075
:101D0000E89455915532C1F3503311F468945591CC
:101D10005A3348F4505390F3220F022E220F220F11
:101D2000200D250FF4CF0EF421958991999153360A
:101D300019F3533729F1533559F1BC0188279927F5
:101D4000E8945C3621F489919991689455915436C0
:101D500039F446EF7EF077FF0DC08FEF9FEF0AC09A
:101D600055374AE039F0583540E121F0523642E02B
:101D700009F00895FF93EF937DDFEF91FF91B7CFC7
:101D8000FF93EF93FC0181918030B9F360DFFBCFCB
:101D9000FF93EF9368DFF1CFDF93CF93CDB7DEB73B
:101DA0002596A3DFCF91DF910895A0E0B0E0EBEDA1
:101DB000FEE00C94C431FC018481882309F4A0C79F
:101DC0007F0121E0408151816281738195810E9470
:101DD000B226EC018091E404811149C0F7018581AC
:101DE00081112CC4C435FCE7DF0731F1A0F4C33501
:101DF0008CE7D80709F0AAC081E00E94CA290E9496
:101E00009E200E948F2084E691E090933A06809372
:101E1000390681E01FC0C6359CE7D907F1F0C73508
:101E2000ECE7DE0709F092C06091060170910701AE
:101E30004FEF8DED94E018C08FEF0E94CA290E94E9
:101E40009E200E948F208DED94E090933A0680931F
:101E5000390682E08093E404DFC360910801709149
:101E6000090141E084E691E00E94E92CD5C39E017E
:101E700023553C472330310508F051C091E0C5356A
:101E8000DC4709F490E0F7012581291709F4C4C360
:101E90008130A1F0823009F03FC0C0913906D09165
:101EA0003A061092F80460912506709126068091FA
:101EB0002706909128060E947D2726C0C0913906EA
:101EC000D0913A061092F80460912506709126068A
:101ED00080912706909128060E947D27F1E0C43664
:101EE000DF0739F0FE0137978581882311F0EF0174
:101EF000F5CFD0930901C09308010EC0FE013796BB
:101F00008581882329F0EF0124E0CD3DD207B1F788
:101F1000D0930701C09306011092E4047DC3813081
:101F200059F0823099F4609108017091090197018C
:101F30004FEF8DED94E008C06091060170910701AC
:101F4000970141E084E691E00E94B930C115FEE7B7
:101F5000DF0709F040C0F70185818823E1F1909106
:101F6000E70481E0890F8770987F853020F4892B02
:101F70008093E70402C09093E7048091E7048770A0
:101F8000FFEF8F9FC00111249595879595958795B3
:101F90009927909389008093880090938B00809379
:101FA0008A0090938D0080938C004091E7045091BB
:101FB000E8046091E9047091EA048FE090E00E94E7
:101FC0002F32609125067091260680912706909108
:101FD00028060E947D27F70185811F928F938181BA
:101FE0001F928F9380811F928F93DF936C2ECF93DC
:101FF0008AE793E09F938F930E94CC0E8DB79EB794
:102000000A960FB6F8949EBF0FBE8DBFF70185816B
:10201000882309F4CEC1FE01EB56FE47E131F105FC
:1020200008F069C0EA5AFF4F0C94713285EE91E0D6
:102030005FC08EED91E05CC087ED91E059C083ED0B
:1020400091E00E940E3048E956E264E170E080E0E1
:1020500090E00E94A92F48E956E22FC08FEC91E052
:102060000E940E3048E956E264E170E080E090E0C2
:102070000E94A92F40E956E220C08BEC91E00E941B
:102080000E3048E956E264E170E080E090E00E94A2
:10209000A92F48E856E211C084EC91E029C080ECF9
:1020A00091E00E940E3048E956E268E270E080E07C
:1020B00090E00E94A92F40E756E268E270E080E0DD
:1020C00090E00E94A92F46C086EB91E011C08FEAF4
:1020D00091E00EC088EA91E00BC081EA91E008C06F
:1020E0008AE991E005C083E991E002C08CE891E0C3
:1020F0000E940E302FC0CC37FEE7DF0739F0CD3716
:102100002EE7D20741F487EF91E002C080EF91E023
:102110000E940E304FC0CA368EE7D80799F038F4C7
:10212000C936EEE7DE07B1F483E192E010C0C637AE
:10213000FEE7DF0751F0C7372EE7D20759F485E0F5
:1021400092E005C08CE092E002C08EEF91E00E9428
:102150000E304FC0FE01ED55FE47EC30F10550F555
:10216000E959FF4F0C94713287E692E020C080E677
:1021700092E01DC089E592E01AC082E592E017C0A6
:102180008BE492E014C084E492E011C08DE392E00D
:102190000EC086E392E00BC08FE292E008C088E2B6
:1021A00092E005C081E292E002C08AE192E00E94E2
:1021B0000E302FC0C0358EE7D80799F038F4CF34F1
:1021C000EEE7DE07B1F483E892E010C0C135FEE728
:1021D000DF0751F0C2352EE7D20759F48CE792E0C1
:1021E00005C085E792E002C08EE692E00E940E30C4
:1021F00043C0CB358EE7D80739F0CC359EE7D907F9
:1022000041F48AE892E002C081E992E00E940E3037
:1022100052C0FE01E154FE47ED30F10568F5ED587E
:10222000FF4F0C94713282E193E023C086E093E08B
:1022300020C086EF92E01DC08BEE92E01AC084EEC3
:1022400092E017C08BED92E014C082ED92E011C0D5
:1022500088EC92E00EC08EEB92E00BC08FEA92E029
:1022600008C088EA92E005C081EA92E002C088E9ED
:1022700092E00E940E303EC0C835EEE7DE0799F0CE
:1022800038F4C7352EE7D207B1F48EE293E010C0E0
:10229000C9358EE7D80751F0CA359EE7D90759F4FA
:1022A00089E193E005C087E293E002C080E293E019
:1022B0000E940E3028C0C435EEE7DE07B1F038F4D6
:1022C000C3352EE7D207B1F48FE393E010C0C535D4
:1022D0008EE7D80739F0C6359EE7D90759F489E467
:1022E00093E005C083E593E002C085E393E00E949C
:1022F0000E3017C0CE34EEE7DE0729F48DE593E00B
:102300000E940E3056C0C034FEE7DF0751F42FEFB5
:1023100084E39CE0215080409040E1F700C0000041
:102320007FC0C038EEE7DE07E9F158F4CE372EE77C
:10233000D207F1F0CF378EE7D807D9F583E793E0DE
:1023400019C0C2389EE7D907C1F0C338EEE7DE07EF
:1023500081F584E693E00E940E3048E956E264E19C
:1023600070E080E090E00E94A92F48E756E213C099
:102370008CE693E00E940E3053C088E693E00E9402
:102380000E3048E956E264E170E080E090E00E949F
:10239000A92F40E856E268E270E080E090E00E94F9
:1023A000A92F3EC060E070E080E094E00E940E2023
:1023B00037C0FE01E851FC47E730F10588F5E058E9
:1023C000FF4F0C94713206E221EE41EE6AE17CE7A8
:1023D00023C007E225EE45EE6BE17CE71DC006E277
:1023E00021EE40EE68E17CE717C007E225EE44EEFF
:1023F00069E17CE711C006E221EE42EE6CE17CE788
:102400000BC007E225EE46EE6DE17CE705C008E271
:1024100021E045EE6EE17CE7C7010E94802CFCC004
:10242000F7018581882309F480C110922B06CE0123
:102430009057839708F0DBC084E090E00E94073259
:102440009093370680933606FE01E150F047E23262
:10245000F10520F4E957FF4F0C9471328091360654
:102460008160ACC0809137068860B4C08091360628
:102470008260A4C08091360620C0809136068860B4
:102480009DC0809137061EC0809137068260A2C031
:1024900080913606806192C08091360680628EC03F
:1024A0008091360680648AC00E949E208091360604
:1024B000806884C080913606886084607FC0809187
:1024C00037068260816086C0809136068E7F76C036
:1024D00080913706877F7EC0809136068D7F6EC0E3
:1024E0008091360620C080913606877F67C0809134
:1024F00037061EC0809137068D7F6CC080913606EE
:102500008F7E5CC0809136068F7D58C080913606E4
:102510008F7B54C00E949E20809136068F774EC0DC
:1025200080913606877F8B7F49C0809137068D7FEB
:102530008E7F50C08091360682FB222720F991E0E1
:10254000922790FB82F990FB83F938C0809137067F
:10255000982F909591708E7F892B90FB81F93AC0CE
:102560008091360686FB222720F991E0922790FB86
:1025700086F924C00E949E208091360687FB222780
:1025800020F991E0922790FB87F918C061E001C023
:1025900060E08EE090E00E941D321EC08091360601
:1025A00084FB222720F991E0922790FB84F906C052
:1025B00080913606982F909590FB80F9809336068F
:1025C0000BC08091370683FB222720F991E09227E8
:1025D00090FB83F980933706609136067091370639
:1025E00084E090E00E943B320E949E2015C0C631DC
:1025F0002CE7D20749F58091E4058A7A91E009F445
:1026000090E09093E50481116DC369E289E295E061
:102610000E94F42B0E94F81C8091C105877009F478
:102620006FC3F7018581882309F46AC38091370657
:1026300082FF66C382E00E943F2062C3C115FEE7AD
:10264000DF0709F48CCCC7CCC330FCE7DF0709F403
:1026500057C048F4C1158CE7D807A9F0C130DC4752
:1026600009F454C066C0CB35ECE7DE0709F459C065
:10267000CC35FCE7DF0709F44CC0CA35DC4709F06C
:1026800058C081E04FC00E949E208FEF94E3ECE0A1
:1026900081509040E040E1F700C00000F89481E0F4
:1026A0008093E00080E28093D8001092C9008FE10F
:1026B0009EE40197F1F700C000001DBA1092680077
:1026C0001CBC10BE1FBA10927A0010926E001092BD
:1026D0006F0010927100109272001092C900109257
:1026E000BC0014B817B81AB81DB810BA1092BC00C4
:1026F00015B818B81BB81EB811BA0C94003F8CCF8F
:102700006FEF7FEF80E090E00E943B320E946727EE
:1027100083CF8091370682FB882780F991E0892753
:1027200001C080E00E94562004C0C631DC4709F495
:10273000DBC2F7018581C081D181882349F0CE01B8
:102740000E94B01D182F682FCE010E94D81F04C010
:10275000CE010E94A31F182FBE01812F0E94641773
:102760000E94D41BD82FC92FC82EF7011581D680FF
:10277000D2945FE0D5228091C1058770E1F01123EA
:10278000D1F0892F807F803451F080E28D0F883026
:1027900090F0D11004C0892F807E803261F080914A
:1027A000370682FF08C082E00E943F208091C10569
:1027B000877001E009F000E0BC2EB2944FE0B42233
:1027C0008B2D90E08C30910508F064C2FC01E75538
:1027D000FF4F0C9471328C2F807FCF70882311F0C3
:1027E000C295C07F1123B9F0CC2309F440C280E226
:1027F0008D0F883010F0C11006C09091E405C92BF0
:10280000C093E40505C09091E305C92BC093E3058F
:102810000E94F81C2CC28D2F0E94DE20CC2309F4CC
:1028200039C2D05ED83080F1CC2071F1C095909142
:10283000E305C923C093E3052AC08C2F807FCF70A6
:10284000803211F0C295C07FCC2029F0F1E0CF1684
:1028500009F44DC057C08091370682FD1BC011237B
:1028600069F0CC2339F09091E405C92BC093E405BD
:102870000E94F81C80E00E94E52E0CC280E00E94BD
:10288000DE20CC2309F406C28C2F0E94F11C0E948A
:10289000F81C00C2112389F0DD20C1F16624639485
:1028A000D610F8C19091E2058C2F8923C81709F43E
:1028B000F1C1C92BC093E205EDC1D110EBC18C2F42
:1028C0000E94CD208091E2059C2F982329F09C2F17
:1028D000909589238093E2058091E6049C2F9823AC
:1028E00009F4D8C1C0958C238093E604D3C1112389
:1028F00031F0772473947D1408F4CCC107C0D11053
:10290000C9C115C0112331F0D110B1C18C2F0E9463
:10291000D420C0C1DD2059F0D93309F0B8C12FEF60
:1029200087EE93E0215080409040E1F7AEC18C2FBC
:102930000E94CD20AFC18C2F86958695837019F0AB
:10294000813061F0A7C1112321F08D2F9C2F93704E
:1029500002C080E090E00E944E2CA2C1112321F021
:102960008D2F9C2F937002C080E090E00E94292C54
:1029700097C1612F8D2F0E940D2E92C18C2F8370D5
:1029800009F068C011118AC19D2F92959695977094
:10299000990F990F8D2F8F70882E912CA12CB12C0F
:1029A000092E04C0880C991CAA1CBB1C0A94D2F7DF
:1029B000D4FF12C04FE050E060E070E004C0440F6C
:1029C000551F661F771F9A95D2F7DB01CA018095C4
:1029D0009095A095B09503C080E090E0DC01C6958D
:1029E000C695C370C23019F1C8F44090EB04509002
:1029F000EC046090ED047090EE04C13059F0882929
:102A00009929AA29BB29BC01CD0164217521862100
:102A100097210AC084289528A628B728BC01CD0193
:102A2000682979298A299B290E94952037C18829FC
:102A30009929AA29BB298090EB049090EC04A090DE
:102A4000ED04B090EE04BC01CD01682579258A25FE
:102A50009B25EACF112319F08C2F817001C0869538
:102A6000882309F41BC19D2F929596959770990F15
:102A7000990F8D2F8F70882E912CA12CB12C092E9F
:102A800004C0880C991CAA1CBB1C0A94D2F7D4FF62
:102A900012C04FE050E060E070E004C0440F551FEA
:102AA000661F771F9A95D2F7DB01CA018095909532
:102AB000A095B09503C080E090E0DC01C695C69576
:102AC000C370C230D9F068F54090250650902606B4
:102AD0006090270670902806C13059F088299929FE
:102AE000AA29BB29BC01CD0164217521862197212A
:102AF0001EC084289528A628B72813C0882999299C
:102B0000AA29BB298090250690902606A09027062A
:102B1000B0902806BC01CD01682579258A259B2522
:102B200006C0BC01CD01682979298A299B290E9408
:102B30000E20B4C0CF70112339F08C2F0E946D206D
:102B40008D2F0E94D420AAC08D2F0E94CD208C2FC3
:102B50000E941920A3C08D2FE2EFCE1609F446C0C3
:102B6000EC1540F0F0EFCF1679F031EF632EC6147C
:102B7000C1F178C023EF722EC71409F43EC094EF60
:102B8000892EC81451F16EC0112309F1D11082C0F1
:102B9000CF7181E090E0A0E0B0E0AC01BD0104C0E5
:102BA000440F551F661F771FCA95D2F780912506DF
:102BB00090912606A0912706B09128063A014B0174
:102BC000682679268A269B26C401B30126C077246D
:102BD00073947D1408F45EC0DBCF8091370682FDCC
:102BE00022C0112329F08C2F8F712FC01123D9F30C
:102BF0008C2F8F710E9419204DC0112389F0CF7145
:102C000081E090E0A0E0B0E0BC01CD0104C0660F1F
:102C1000771F881F991FCA95D2F70E940E203AC0CD
:102C20000E948F2037C0112399F0CF718C2F0E9402
:102C30006D208091370682FF07C028E0C29FC00147
:102C4000112483608093C1058C2F0E946D2022C0C7
:102C500081E00E943F2081E08D15E0F482E00E9437
:102C60003F2018C0112329F0DD2009F4BCCF8D2F9F
:102C700002CEDD2009F4BCCF893349F49FEFE7EEA3
:102C8000F3E09150E040F040E1F700C000008D2FEC
:102C90000E94DE2088EF8B0D843010F40E94732C8C
:102CA0000023A9F08091C10580FD11C0F7011582B4
:102CB0008695869586950E946D20C7010E94D50E47
:102CC0008091C1058695869586950E94192020E001
:102CD000F7014081518162817381848195810E94D5
:102CE000B2260EC065E392CC8091E504811106C046
:102CF00069E289E295E00E94CC2B8CCC65E3F9CFA8
:102D0000CDB7DEB7E0E10C94E0319091360692FF4A
:102D10000DC0282F2871283019F4877F846006C0E1
:102D2000282F2471243011F48B7F886093FF0DC00D
:102D3000282F2871283119F4877E846106C0282F36
:102D40002471243111F48B7E88612091370620FF95
:102D50000DC0382F3871383019F4877F816006C074
:102D6000382F3171313011F48E7F886021FF0DC012
:102D7000282F2871283119F4877E816106C0282FF9
:102D80002171213111F48E7E886194FD877E089532
:102D90008238910569F1B0F48133910509F475C069
:102DA00048F48932910509F467C08A32910509F423
:102DB00071C008958533910509F459C0893391058F
:102DC000B9F00895833E910589F138F4803E91056C
:102DD000D1F0823E910529F10895863E9105C9F111
:102DE000873E9105D9F1843E910509F06CC027C05A
:102DF0002091360620FD57C021FD55C02091370691
:102E000023FD5BC008958091360680FD48C0809107
:102E1000370680FF48C08091360684FD46C083EEA9
:102E200051C08091360682FF3CC0F5CF80913606B6
:102E300082FD37C08091370680FD35C0ECCF809190
:102E4000370681FF36C08091360684FD2EC087EE9E
:102E500039C08091360683FF2AC0F5CF80913606AF
:102E600083FD25C08091370681FD23C0ECCF809182
:102E7000360685FD22C01FC08091360685FD1BC029
:102E80008091370683FF19C00AC08091360686FDFF
:102E900016C017C08091360686FD13C010C089E3A6
:102EA00011C082EE0FC080EE0DC080E00BC086EE38
:102EB00009C084EE07C085E305C089E203C08AE249
:102EC00001C081E390E008957E30B0F46630A0F454
:102ED0008032A0F494E5899FF001112486E0789F68
:102EE000E00DF11D1124E60FF11DEE0FFF1FEF5550
:102EF000FC4F85919491089580E001C081E090E0BD
:102F00000895ADE0B0E0E7E8F7E10C94C23185B791
:102F1000806885BF85B7806885BF84B7877F84BF99
:102F20000FB6F894A8958091600088618093600046
:102F3000109260000FBE90E080E80FB6F894809386
:102F40006100909361000FBE85ED99E2909363015B
:102F5000809362010E9494240E94B3248091E20035
:102F600084608093E200789480910E068823A1F01B
:102F70001091E9001F709091EC00892F817090FDF5
:102F800080E8182B1092E9008091E80083FD0E94F0
:102F900085211F701093E90082E084BD93E095BD08
:102FA0009AEF97BD80936E000E94612890E0909305
:102FB0001301809312010E9484298098889A819835
:102FC000899A84988C9A85988D9A86988E9A8798F3
:102FD0008F9AA7E0B5E0E9EFF4E011921D9225E0A9
:102FE000E730F207D1F78EE090E00E9477328093CD
:102FF000F0049093F104FC010E9611928E179F0736
:10300000E1F789EA8093800089E080938100249829
:103010002C983F988AB18F7C8AB96E98479A8BB169
:1030200080638BB9769A8FE090E00E9401326093C2
:10303000E7047093E8048093E9049093EA046770CE
:103040003FEF639FB001112475956795759567955E
:103050007727709389006093880070938B0060934A
:103060008A0070938D0060938C000E94D82880E0C5
:1030700090E00E940732863E9E4F09F479C066EECA
:103080007EEF80E090E00E943B3260E082E090E0E2
:103090000E941D3260E083E090E00E941D32109299
:1030A000EB041092EC041092ED041092EE0460E038
:1030B00074E184E090E00E943B3260E086E090E0C2
:1030C0000E941D326FEF87E090E00E941D3240E0C9
:1030D00050E0BA0188E090E00E942F3260E084E284
:1030E00090E00E941D3260E087E190E00E941D3276
:1030F00060E08CE090E00E941D3260E08DE090E0A6
:103100000E941D3219821A821B821C821D821E821D
:103110001F82188648E050E068E170E0CE01019619
:103120000E940D3240E050E0BA0180E290E00E943F
:103130002F321092E7041092E8041092E9041092E2
:10314000EA0484E080618093E7044091E7045091B1
:10315000E8046091E9047091EA048FE090E00E9435
:103160002F3240E050E0BA0183E190E00E942F321C
:1031700082E090E00E94F93180931B0684E090E0A9
:103180000E940732909337068093360683E090E0E2
:103190000E94F931682F70E080E090E00E94952055
:1031A0006091250670912606809127069091280649
:1031B0000E947D278AE091E090932F0680932E064F
:1031C00033EF632E38E1732E5524539443E2842E5B
:1031D00045E0942E8091120190911301892BC1F04A
:1031E0008091EF048F5F8093EF04811111C08FEC09
:1031F00098E10E94330E0E94612890E090931301A1
:1032000080931201892B49F085EB98E10E94330EDF
:1032100009EF14E0F12CE12C1CC081EA98E10E9436
:10322000330E0E94D828F4CFB12C8A2D0E94932906
:103230008F73F8019781891709F1878381E0B82A94
:10324000FB280E948429E3940F5F1F4FF7E0EF16DD
:10325000B9F027E0A22EAE0C8E2D0E9430298A2DC7
:103260000E9430298E2D0E9493298F73D8019C9142
:103270008917D1F28C93BB24B394D7CF80E0DFCFF2
:103280001092F6041091F5041123C9F10E949B2BB2
:103290002091F3043091F404AC01421B530B9A01CA
:1032A0009093F4048093F3044F3F510509F020F408
:1032B000452B09F450C202C02FEF30E01092F50404
:1032C0001092F204E091F004F091F104AF01425F3A
:1032D0005F4F90E030E08081882341F0281718F09C
:1032E0001082912F03C0821B8083312F3196E41707
:1032F000F50789F73093F5049093F2042CC2FF2070
:1033000009F420C20E949B2B9093F4048093F30451
:10331000E091F004F091F1046091F6048091F504DD
:10332000AF01425F5F4F09EF14E027E035E0D801BD
:103330007C91D9019C91971791F0908191110FC0C8
:10334000BEE1B083D9017C93D8018C917827862F78
:1033500090E0872B61E0892B09F460E081E03196F1
:103360002F5F3F4F0F5F1F4FE417F50701F7609383
:10337000F6048093F5048091F804882369F0259879
:103380002D988091F7048F5F8093F704853610F0B5
:10339000259A2D9A0E949B2B95E1E92E95E0F92E16
:1033A000A7E0B5E0F70191918D9189278E169F06D0
:1033B00019F08823C1F305C0811103C00E94612167
:1033C0006AC080911B0681FD04C007E015E0B12CA6
:1033D00030C088EF98E10E94330E87E0A82E85E088
:1033E000B82E00E010E01F930F937F926F920E941F
:1033F000CC0E80EF98E10E94330EF50181915F01C0
:103400000E94A0261F928F932BEE38E13F932F93BB
:103410000E94CC0E89EE98E10E94330E0F5F1F4F81
:103420000FB6F894DEBF0FBECDBF0E301105D9F632
:10343000CCCFD8012D908D01F7013080322411F1CD
:10344000A12C44244394832D8421A9F0A982BA821B
:103450000E949B2B9C838B83F1E0FD8391E0822D66
:10346000842109F490E09E8349815A816B817C819B
:103470008D810E94D726A394440C26E0A212E3CFAC
:10348000D7012C92B394BFEFEB1AFB0AEEE0BE1209
:10349000D0CF0E948F2B85E0E0E2F6E0DE011996A6
:1034A00001900D928A95E1F7109221061092220662
:1034B00010922306109224061A85111104C08B85E0
:1034C000882309F44BC080911E0690911F060E942C
:1034D000802B459708F442C080911A068F3F19F05F
:1034E0008F5F80931A06112361F00E94EB2D111655
:1034F00014F09FEF01C091E0899F802D11248093EB
:1035000021061B85112361F00E94EB2D111614F08A
:103510009FEF01C091E0899F802D112480932206A6
:10352000309121063323D1F0209122062223B1F0DD
:1035300045EB3403C0011124992319F0909321061F
:1035400002C05092210655EB2503C0011124992396
:1035500019F09093220602C0509222061C85111188
:1035600004C08D85882309F450C080911C06909179
:103570001D060E94802B9C0190912305992309F43C
:10358000EEC02333310508F440C09F3F19F09F5F20
:1035900090932305112361F00E94C92D111614F098
:1035A0009FEF01C091E0899F802D11248093230615
:1035B0001D85112361F00E94C92D111614F09FEF93
:1035C00001C091E0899F802D1124809324063091C1
:1035D00023063323D1F0209124062223B1F045EBBA
:1035E0003403C0011124992319F09093230602C0DB
:1035F0005092230655EB2503C0011124992319F09D
:103600009093240602C05092240645E050E0BE018B
:10361000675F7F4F80E296E00E949833892BA9F480
:103620008091210681110FC08091220681110BC06B
:1036300080912306811107C081E0909124069111A9
:1036400003C080E001C081E080FD0E94202D85E064
:10365000FE013996A0E2B6E001900D928A95E1F75D
:103660000E94732C90912405891721F080932405E2
:103670000E948F2B0E948F2B6B017C01809125056E
:1036800090912605A0912705B0912805A7019601E4
:10369000281B390B4A0B5B0B121613061406150672
:1036A0000CF098CDC0922505D0922605E092270512
:1036B000F09228050CE316E0F6E004381F0709F441
:1036C00089CDD8018C918823D1F111966D917D918E
:1036D0008D919C9114979B01AC012C193D094E09C9
:1036E0005F0912161306140615064CF117964D9134
:1036F0005C9118971596ED91FC91169709956115B7
:1037000071058105910581F0F801218132814381A4
:103710005481DC01CB01820F931FA41FB51F81834D
:103720009283A383B4830BC0D8011C92F801118249
:103730001282138214821682158210861782075F06
:103740001F4FBACF80E09091F204992309F413CE71
:103750008111DECDD7CDF110DBCD81E0F4CF213961
:10376000314008F014CF51CF2091C00590918705CA
:1037700057E02917A9F030E0529FF001539FF00D58
:103780001124E857FA4F7181761306C070817813BF
:1037900003C07581741306C02F5F3F4F2770E9CFB8
:1037A00080E0089581E008951F93CF93DF930E94F6
:1037B000C816EC01C11580E5D807E8F5C11590E4FD
:1037C000D90708F0A8C0C03ED10530F5CD3CD105E1
:1037D00008F094C0C83AD10578F4C53AD10508F08C
:1037E00083C0C130D10509F47CC008F4F2C0C430F4
:1037F000D10508F0F1C0EDC0C33CD10508F0E9C027
:10380000C85AD0E0CC0FDD1FC85EDE4F0990D881CA
:10381000C02DCE019464E1C0C11580E2D80708F044
:10382000CBC0C11591E0D90708F06BC0C83ED105E7
:1038300008F4D2C0CEC0C03682E5D80728F5C0341F
:1038400092E5D90708F079C0C03282E5D80708F0C0
:103850006CC0C11592E5D90708F481C04C2F46957C
:10386000469580E2489FA0011124C37021E030E01A
:10387000C90102C0880F991FCA95E2F7EA01C82B57
:10388000D92BCE019D68A9C0C03A82E5D807B8F40B
:103890008C2F8F71C03892E5D90708F07BC08695D0
:1038A000869590E2899F90011124C37081E090E099
:1038B00002C0880F991FCA95E2F79A6868C0C03C99
:1038C00082E5D80708F46DC0C03E92E5D90708F03C
:1038D00080C0CF71DD27DC2FCC27CE01806F906AAE
:1038E0007CC081E090E079C0C55AD0E0CB5EDE4F6D
:1038F0008881C82FD0E0CE0190646FC0CE01906562
:103900006CC08D2F0E948516182FCE0199270E941A
:10391000C8161F715CC0CE0199270E94C816CC271B
:10392000DF70D06A8C2B9D2B58C0CF71D0E0DC2F7C
:10393000CC27CE01816F906A50C08C2F8F718695F5
:10394000869590E2899F90011124C37081E090E0F8
:1039500002C0880F991FCA95E2F79C6818C08C2F87
:103960008F710E94851695E0D695C7959A95E1F7D7
:10397000CF70D0E0DC2FCC27282F30E084FF05C0AB
:1039800084E0220F331F8A95E1F7D069CE01822BA4
:10399000932B23C090E0D82FCC27CE01846F906A60
:1039A0001CC08C2F8F710E9485168F7190E0D82FCC
:1039B000CC27CE01906211C08D2F8F710E94851689
:1039C000182FCE0199270E94C8161F719062912B63
:1039D00004C080E090E001C0CE01DF91CF911F9143
:1039E000089580959091E40589238093E4050895D6
:1039F0009091E4058091E305982B9093290580919F
:103A0000E2058823D9F0892B809329058091140140
:103A1000882331F08091360687FF02C08EE101C015
:103A200086E0EBE2F5E090E0815028F0219122233E
:103A3000D9F39F5FF9CF91111092E20540E250E077
:103A400062EC75E089E295E00E949833892B21F1C0
:103A500080E2E9E2F5E0A2ECB5E001900D928A95F2
:103A6000E1F7E0912E06F0912F063097A9F08091B2
:103A70001401882359F08091360687FF07C0809192
:103A8000290580932A0586E0809329050280F38129
:103A9000E02D89E295E0099508958091C005909107
:103AA0008705891719F08F5F8770FBCF0895CF9333
:103AB000DF938091860582958F7009F04EC08091CA
:103AC0008505882309F449C08091C0054091870588
:103AD0005091810560918005C0918205D091830548
:103AE00077E08417D1F190E0789FF001799FF00D95
:103AF0001124DF01A857BA4F14962C911497222352
:103B000049F111962C911197251324C02C9126135D
:103B100021C015962C91159721111CC012962D913C
:103B20003C9113972C1B3D0B2F3A310598F4809153
:103B300086058F70806180938605E257FA4F8081F9
:103B40008F708061808380E895E00E94D50E0E948E
:103B50004D1D03C001968770C4CFDF91CF910895AA
:103B6000A0E0B0E0E6EBFDE10C94CB318C01C0901D
:103B70002506D0902606E0902706F0902806809132
:103B8000EB049091EC04A091ED04B091EE04C82AEE
:103B9000D92AEA2AFB2ACFE1D0E0D701C6010C2EB0
:103BA00004C0B695A795979587950A94D2F780FD9E
:103BB00004C0219790F7B12C09C0BC2EB8018C2FFE
:103BC0000E9464170E94D41B019799F38B2DCDB7E7
:103BD000DEB7E9E00C94E731CF93DF93EC010E946C
:103BE000B01DBE010E9464170E94D41BDF91CF91CB
:103BF0000895FC0124812223D9F0808191810E94C3
:103C0000EC1D92959F70963079F010F4925001C09F
:103C10009A50923068F4803F69F018F4883E40F47E
:103C200009C0843F29F406C0883E20F0813F11F08E
:103C300080E0089581E00895A4E1B0E0E2E2FEE1D1
:103C40000C94C8318C0186E0F801DE011F960190CA
:103C50000D928A95E1F7F8018481E58090E8892E3C
:103C600095E0992E90918405911120C0882309F444
:103C700063C1EE2009F442C0C8010E94F91DF82E6C
:103C80008823E1F187E0F801D40101900D928A9533
:103C9000E1F780918405813031F480918005909125
:103CA00081050E94EC1D0E94571D48C1F801D0807B
:103CB000C180A280B380F09085052091820530916B
:103CC0008305FF2009F4E7C0A501421B530B4F3ABF
:103CD000510508F09DC0882309F430C18091860504
:103CE000282F207F90918105222361F09C1509F4F3
:103CF00060C0C8010E94F91D811163C0C8010E9403
:103D0000D50E1AC19C1113C0909180059D110FC052
:103D1000E1100DC08F7080618093860580E895E08A
:103D20000E94D50E80918605F801868303C1E110BB
:103D30003AC040E06C2D8D2D0E94B41B40E06C2DEC
:103D40008D2D0E94B41BE82E8111F4C0DF86C88A35
:103D50008F8598890E94EC1D292F22952F70243081
:103D600020F49F70223028F009C02A50223080F0C1
:103D700014C0992349F0811107C013C0992321F081
:103D8000F8019681907F69F0805E883030F409C038
:103D9000803F38F0815F833020F0C8010E94D50E4B
:103DA000EF2CFE2CCBC08091860581608093860528
:103DB000C1C0909180059D119CCFE1109ACFF80170
:103DC00098C0EE2009F49ACF20918605822F829523
:103DD0008F7090E002978CF0809180059091810522
:103DE00099878887BB86AA86809184058C871D86E3
:103DF0002E87CE0108960E94D50E87E0F801A0E834
:103E0000B5E001900D928A95E1F70E94571D94C08C
:103E100090918605292F207F51F480E895E00E943B
:103E2000D50E87E0F40111928A95E9F783C08823C3
:103E300009F484C0809181058C110CC080918005AB
:103E40008D1108C0E11006C0F8019683C8010E94D8
:103E5000D50E6AC0C8010E94F91D882309F44ECF0F
:103E6000EE2009F44BCF20918605822F82958F702A
:103E700090E0029714F280918005909181059A83D9
:103E80008983BC82AB82809184058D831E822F83BF
:103E9000CE010196B0CFA21AB30AFFEAAF16B10461
:103EA00008F042C0882309F447C0FE2CEE2009F434
:103EB00025CF809181058C1129C0809180058D11BD
:103EC00025C09091860590FD18C0892F82958F702E
:103ED000282F30E02115310581F0F80196832F302D
:103EE000310541F08F5F982F9295907F86818F707A
:103EF000892B8683C8010E94D50E87E0F801A0E8CF
:103F0000B5E001900D928A95E1F718C0C8010E94B2
:103F1000F91D811172CF809186058160809386059D
:103F2000C8010E94D50E0AC087E0F40111928A955B
:103F3000E9F704C0F12C02C0FF24F3948F2D64969E
:103F4000ECE00C94E431292F9E3080F5863070F53A
:103F500090E036E0239F800D911D1124682F67703B
:103F600023E0969587952A95E1F725E0289FF001B3
:103F7000299FF00D1124E75BFA4F40E050E080E00C
:103F8000219130E0062E02C0369527950A94E2F77B
:103F900021703327042E01C0220F0A94EAF7822BE6
:103FA0004F5F5F4F4530510559F7089580E0089500
:103FB000292F9E3090F5863080F590E036E0239FE3
:103FC000800D911D1124282F277051E001C0550F3D
:103FD0002A95EAF723E0969587952A95E1F725E05B
:103FE000289FF001299FF00D1124E75BFA4F20E094
:103FF00030E070E04081CB01022E02C0969587959B
:104000000A94E2F781708195842785238427819320
:104010002F5F3F4F2530310569F708950E947D27B6
:1040200060932506709326068093270690932806B2
:1040300008950F931F9341E050E060E070E004C0EA
:10404000440F551F661F771F8A95D2F740955095EC
:10405000609570958091250690912606A09127067F
:10406000B09128068A019B01082319232A233B23A8
:10407000C901B8010E940E201F910F9108959091DF
:10408000C105809589238093C105282F277069F485
:10409000981759F09091370692FF07C0869586953C
:1040A00086950E9419201092C105089590913706B7
:1040B00092FB222720F9281779F080FB92F9909340
:1040C0003706609136067091370684E090E00E94D2
:1040D0003B3282E00E943F2008950F931F9341E0FE
:1040E00050E060E070E004C0440F551F661F771F6A
:1040F0008A95D2F78091250690912606A0912706F1
:10410000B09128068A019B01082B192B2A2B3B2BE7
:10411000C901B8010E940E201F910F91089560E01F
:1041200070E0CB010E940E2008956093EB04709321
:10413000EC048093ED049093EE0408951092E4054E
:1041400080911401882331F08091360687FF02C0E8
:104150008EE101C086E0EBE2F5E0DF011D928A9579
:10416000E9F780E090E00E944E2C80E090E00E9411
:10417000292C1092E3050E94F81CE0E2F6E085E0AD
:10418000DF011D928A95E9F710921A061092230515
:10419000109219060E94202D0895882321F00E9474
:1041A000F11C0E94F81C0895882339F09091E405D1
:1041B000892B8093E4050E94F81C0895882309F454
:1041C00060C0823869F40E94732C81FF5AC069E391
:1041D00089E295E00E94F42B0E94F81C69E30EC06E
:1041E000833899F40E94732C80FF4BC063E589E209
:1041F00095E00E94F42B0E94F81C63E589E295E0AB
:104200000E94CC2B0E94F81C0895843869F40E9407
:10421000732C82FF36C067E489E295E00E94F42B9C
:104220000E94F81C67E4EACF9CEF980F913A10F4D3
:10423000682FE4CF90E2980F983050F4877091E0A7
:1042400001C0990F8A95EAF7892F0E94F11CDACFF5
:104250009BE5980F933028F480E090E00E944E2C6C
:10426000089598E5980F9B3128F480E090E00E9433
:10427000292C089593E3980F933118F460E00E947D
:104280000D2E08951F93CF93DF93182F893319F0C4
:10429000C0E0D0E002C0C0E5D0E0812F0E94E52E52
:1042A000209741F08FE99FE00197F1F700C00000EF
:1042B0002197F6CF812F0E94DE20DF91CF911F91B1
:1042C0000895A6E0B0E0E7E6F1E20C94D0310E9458
:1042D0009B2B8C018091E5059091E6050817190745
:1042E00081F019821A820E949B2B682F49815A8182
:1042F000792F80E090E00E94D7261093E605009386
:10430000E5052696E4E00C94EC31AAE2B0E0EBE897
:10431000F1E20C94D131E0E1F6E08091F10081937B
:1043200046E0E831F407C9F780911106833009F4BB
:1043300063C030F4813071F0823009F49DC0B4C0A4
:104340008A3009F489C08B3009F46EC0893009F0D5
:10435000ABC020C080911006813A09F0A5C08091C1
:10436000E800877F8093E8008091140690911506FD
:10437000892B21F460E28CEE95E003C060E080E0E0
:1043800090E070E00E94FC2A8091E8008B77809397
:10439000E8008AC080911006813209F085C08091C2
:1043A000140690911506009719F0029709F07CC049
:1043B0008091E800877F8093E8008091E80082FD8B
:1043C00005C080910E068111F8CF6EC02091F300D8
:1043D0008091F20090E0922B029731F48091F100ED
:1043E000813011F0863021F48091F1008093EB054B
:1043F0008091E8008B7754C080911006813A09F0D3
:1044000053C08091140690911506892B09F04CC079
:104410008091E800877F8093E8008091E80080FF2A
:10442000FCCF8091140137C0809110068132E1F5F4
:104430008091140690911506892BB1F58091E800C2
:10444000877F8093E8000E94A82A809112068093BB
:1044500014010E949E2028C080911006813221F50F
:104460008091E800877F8093E8000E94A82A8091CD
:1044700013068093EA0518C080911006813AA1F4D2
:104480008091E800877F8093E8008091E80080FFBA
:10449000FCCF8091EA058093F1008091E8008E774F
:1044A0008093E8000E94A82A8091E80083FFE0C181
:1044B0008091100690911106492F50E04A30510525
:1044C00008F0D6C1FA01EB54FF4F0C9471328038DA
:1044D00021F0823809F0CCC108C080910C0690917F
:1044E0000D06992389F082600FC0809114068F70A9
:1044F000873008F0BDC18093E9008091EB0085FB17
:10450000882780F91092E9009091E800977F9093B6
:10451000E8008093F1001092F10071C1282F2D7FE7
:1045200009F0A6C1882319F0823061F0A1C1809101
:104530001206813009F09CC1933009F080E080932D
:104540000D062EC08091120681112AC0809114069A
:104550008F702FEF280F263008F08AC18093E90072
:104560002091EB0020FF1CC0933021F48091EB00E0
:10457000806214C09091EB0090619093EB0021E079
:1045800030E0A90102C0440F551F8A95E2F740931D
:10459000EA001092EA008091EB0088608093EB00C3
:1045A0001092E9008091E800877F8093E8000E94E4
:1045B000A82A5EC181115CC1109112061F778091FB
:1045C000E3008078812B8093E3008091E800877F6F
:1045D0008093E8000E94A82A8091E80080FFFCCF29
:1045E0008091E30080688093E300111102C082E0B3
:1045F00001C083E080930E063BC18058823008F0F2
:1046000037C120911206309113062C3D53E0350737
:1046100079F583E08A838AE289834FB7F894DE01D3
:10462000139620E03EE051E2E32FF0E05093570074
:10463000E49120FF03C0E295EF703F5FEF708E2F93
:1046400090E0EA3010F0C79601C0C0968D939D931C
:104650002F5F243149F74FBF8091E800877F809317
:10466000E8006AE270E0CE0101960E94FC2AB5C023
:104670008091140690911506432F5527433051051C
:10468000A9F068F44130510509F401C142305105E7
:1046900009F0EEC084E790E0E1E3FAE14BC041327B
:1046A000510529F14232510589F1E2C0C90199272A
:1046B00081309105A1F058F0029709F0D9C0E7EBDD
:1046C000FAE1E4918E2F90E0E7EBFAE130C0E9EFF8
:1046D000FAE1E4918E2F90E0E9EFFAE128C0EFECE7
:1046E000FAE1E4918E2F90E0EFECFAE120C0843003
:1046F000910508F0BDC0880F991FFC01E65AFE4FD6
:104700000190F081E02D89E090E014C084309105A3
:1047100008F0AEC0FC01EE0FFF1FEE5AFE4F0190F5
:10472000F081E02DDC01A25BBE4F8C9190E0009700
:1047300009F49EC02091E800277F2093E800209193
:104740001606309117068217930708F49C0140E083
:104750002115310589F180910E06882309F43DC0A9
:104760008530D9F18091E80083FD37C08091E80061
:1047700082FD2FC08091E80080FFEACF4091F300D6
:104780008091F20090E0942B2115310559F088308A
:10479000910540F444914093F10031962150310944
:1047A0000196F2CF41E0089709F040E08091E800DF
:1047B0008E778093E800CCCF4111CDCF0AC0809195
:1047C0000E06882351F0853041F08091E80083FD8A
:1047D00004C08091E80082FFF2CF8091E8008B77DF
:1047E0008093E80045C0803809F042C08091E8001D
:1047F000877F8093E80080910F068093F10080917D
:10480000E8008E77D2CE811133C08091120690914C
:1048100013069927029764F58091E800877F8093BB
:10482000E8001091120610930F060E94A82A111199
:1048300006C08091E30087FD02C081E001C084E0F2
:1048400080930E0642E061EC81E00E94C72A42E0BC
:1048500061EC82E00E94C72A42E261EC83E00E94A0
:10486000C72A42E261EC84E00E94C72A80910E06CA
:104870008091E80083FF10C08091E800877F8093DB
:10488000E8008091EB0080628093EB0005C082E13C
:1048900090E0E5EAFAE14ECFAA96E3E00C94ED3120
:1048A0001F920F920FB60F9211242F933F934F93A5
:1048B0005F936F937F938F939F93AF93BF93CF93A8
:1048C000DF93EF93FF93C091E900CF708091EC00EC
:1048D000D82FD17080FDD0E81092E9008091F000CF
:1048E000877F8093F00078940E9485211092E900E0
:1048F0008091F00088608093F000CD2BCF70C09342
:10490000E900FF91EF91DF91CF91BF91AF919F911E
:104910008F917F916F915F914F913F912F910F9068
:104920000FBE0F901F901895E8EDF0E080818E7F0C
:1049300080831092E2001092DA001092E100A0EE63
:10494000B0E08C9181608C9380818F77808319BCDB
:10495000A7EDB0E08C918E7F8C9380818F7E8083D9
:104960001092E9050895A0E0B0E0E9EBF4E20C94C0
:10497000CC31C8EDD0E088818F7E8883E7EDF0E010
:1049800080818160808384E082BF81E08093E9053B
:1049900088818E7F888302EE10E0F80110821092E9
:1049A000DA0081EEC82ED12CF601108288818F7733
:1049B000888388818068888388818F7D888319BCFB
:1049C00010920E0610920F0610920D0610920C0611
:1049D00090EEE92EF12CF70180818B7F8083888116
:1049E0008160888342E060E080E00E94C72AF6018F
:1049F00080818E7F8083F8018081816080838081C7
:104A000088608083F70180818E7F808388818061C8
:104A10008883CDB7DEB7E8E00C94E8311F920F929F
:104A20000FB60F9211242F933F934F935F936F9381
:104A30007F938F939F93AF93BF93EF93FF93809157
:104A4000E10082FF49C08091E20082FF45C0809171
:104A5000E1008B7F8093E1002091E8052F5F822F9A
:104A600062E30E945132992319F02093E80534C083
:104A70001092E8058091E705882371F180910E0678
:104A8000843041F58091E9008F702091EC00922FE5
:104A9000917020FD90E8892B94E09093E90090912B
:104AA000EB0090FF14C09091EE0097FF10C0909122
:104AB000E80095FF03C01092F100F9CF9091E80053
:104AC00090FF05C09091E8009E779093E8008F706A
:104AD0008093E9001092E7058091DA0080FF32C0F0
:104AE0008091D80080FF2EC08091DA008E7F809365
:104AF000DA008091D90080FF1CC080E189BD82E18D
:104B000089BD09B400FEFDCF81E080930E068DE1E2
:104B10009AE10E94330E8091E905811113C00E9431
:104B200094240E94B3248091E20084608093E20088
:104B300009C019BC10920E0681E29AE10E94330E60
:104B40001092E9058091E10080FF1BC08091E20096
:104B500080FF17C08091E2008E7F8093E2008091F9
:104B6000E20080618093E2008091D80080628093AF
:104B7000D80019BC85E080930E0685E29AE10E9478
:104B8000330E8091E10084FF38C08091E20084FF01
:104B900034C080E189BD82E189BD09B400FEFDCF4A
:104BA0008091D8008F7D8093D8008091E1008F7E26
:104BB0008093E1008091E2008F7E8093E2008091FB
:104BC000E20081608093E20080910F06882311F05B
:104BD00084E007C08091E30087FD02C081E001C04E
:104BE00083E080930E0689E29AE10E94330E0E94D0
:104BF0009E200E94732C80910E068091E10083FF1D
:104C00002BC08091E20083FF27C08091E100877F65
:104C10008093E10082E080930E0610920F0680914F
:104C2000E1008E7F8093E1008091E2008E7F80938F
:104C3000E2008091E20080618093E20042E060E067
:104C400080E00E94C72A8091F00088608093F00085
:104C50008DE29AE10E94330EFF91EF91BF91AF91E7
:104C60009F918F917F916F915F914F913F912F9184
:104C70000F900FBE0F901F9018952091E400309177
:104C8000E50095E64091EC00842F817040FF23C041
:104C90008091E80080FD1DC080910E06882399F068
:104CA000853099F08091EB0085FD11C04091E400C2
:104CB0005091E5002417350729F3915011F09A011E
:104CC000E1CF84E0089582E0089583E0089581E0D3
:104CD000089580E008954091E80042FFDDCF0895F7
:104CE00081E19BE10E940E3060E070E0CB0108950D
:104CF0008DE09BE10E940E3060E070E0CB010895F2
:104D000089E09BE10E940E3060E070E0CB010895E5
:104D100085E09BE10E940E3060E070E0CB010895D9
:104D200081E09BE10E940E3060E070E0CB010895CD
:104D30008DEF9AE10E940E3060E070E0CB010895A3
:104D40008295982F937344E0949F900111248C7C5A
:104D500086958695282B822F8575880F2A7A269529
:104D6000822B0895A6E0B0E0E8EBF6E20C94D13196
:104D700049835A8349815A81992361F0222351F052
:104D8000CA010E94B01D182F682F89819A810E9444
:104D9000D81F04C0CA010E94A31F182F69817A81FD
:104DA000812F0E9464172696E3E00C94ED31ABE16D
:104DB000B0E0EDEDF6E20C94D0314E8B5F8B688F56
:104DC000798F8A8F9B8F192F91111092E305DE0145
:104DD0001F9687E0FD0111928A95E9F786E0FE01B2
:104DE000769601900D928A95E1F70A8D002341F0A5
:104DF00021E04F85588969897A89C8010E94B226C5
:104E00000B8B1C8B87E0FE013F96DE01189601900C
:104E10000D928A95E1F7CE0108960E941C1E811121
:104E20002CC087E0FE013896DE01119601900D92AC
:104E30008A95E1F76C85662301F12091870530E0C2
:104E4000C9010196877099274091C00550E08417E9
:104E5000950761F16D8397E0929FD001939FB00D0C
:104E60001124A857BA4FFE01319601900D929A95E0
:104E7000E1F7809387050E944D1D17E08091C005E2
:104E8000909187058917F9F0189FC0011124885760
:104E90009A4F0E941C1E8823B1F08091C00590E0BB
:104EA0000196877099278093C005E8CF0E949E20C5
:104EB000109287051092C005E0E8F5E087E0DF0179
:104EC0001D928A95E9F76B96E4E00C94EC310E9410
:104ED0009E202FEF84E39CE0215080409040E1F73A
:104EE00000C000009AE088E10FB6F894A89580937E
:104EF00060000FBE90936000FFCF8F929F92AF92A1
:104F0000BF92CF92DF92EF92FF926C01EE24FF24CA
:104F1000C114D104E104F10411F020E103C06B01DC
:104F20007C0120E08D2C9E2CAF2CBB24811491049D
:104F3000A104B10419F0285F75016401460157010D
:104F400054E0B694A794979487945A95D1F7811416
:104F50009104A104B10419F02C5F750164014601AC
:104F6000570142E0B694A794979487944A95D1F755
:104F700081149104A104B10419F02E5F750164013C
:104F8000F694E794D794C794CD28CE28CF2809F07B
:104F90002F5F293151F028F4243139F0283129F0DC
:104FA00007C02B3111F02E3119F4259A2D9A02C029
:104FB00025982D986B017C0120E2C22220E8D222A4
:104FC000EE24FF24DC01CB0120E2C21620E8D20649
:104FD000E104F10411F4A26001C0AD7F6C017D0118
:104FE00028E8C222DD24EE24FF2428E8C216D104DA
:104FF000E104F10411F4A16001C0AE7F6C017D01F8
:1050000024E0C22222E0D222EE24FF2424E0C216B1
:1050100022E0D206E104F10411F4A46001C0AB7FE8
:105020006C017D0120E4C22222E0D222EE24FF2482
:1050300020E4C21622E0D206E104F10411F4A064D7
:1050400001C0AF7B6C017D0122E0C22220E8D222A8
:10505000EE24FF2422E0C21620E8D206E104F10487
:1050600011F4A86001C0A77F6C017D0126E0C22277
:10507000DD24EE24FF2426E0C216D104E104F1046D
:1050800011F4A06801C0AF776C017D0120E1C2225C
:1050900021E0D222EE24FF24BC01CD0120E1C21682
:1050A00021E0D206E104F10411F4906201C09F7D79
:1050B000FF90EF90DF90CF90BF90AF909F908F9038
:1050C000089580E290E09093130180931201809103
:1050D000180681110EC00E94DE3081E08093180610
:1050E0002FEF83ED90E3215080409040E1F700C026
:1050F000000064E670E080E40E94E43090931301C5
:1051000080931201892B09F04EC064E670E080E0C4
:105110000E9457319093130180931201892B09F05B
:1051200042C064E670E080E00E9457319093130122
:1051300080931201892BB9F564E670E08FE30E9439
:1051400057319093130180931201892B61F50E94CE
:10515000AA3164E670E080E40E94E4309093130189
:1051600080931201892BF9F464E670E08CE00E94D0
:1051700057319093130180931201892BA1F464E6B7
:1051800070E080E00E9457319093130180931201E8
:10519000892B49F464E670E08FE30E9457319093C5
:1051A0001301809312010E94AA3180911201089587
:1051B00056985E9825982D9826982E9827982F987F
:1051C0008FEF90E0909389008093880090938B00FC
:1051D00080938A0090938D0080938C00259A2D9A5D
:1051E0002FEF80E792E0215080409040E1F700C02F
:1051F0000000269A2E9A2FEF80E792E021508040FF
:105200009040E1F700C00000279A2F9A2FEF80E727
:1052100092E0215080409040E1F700C000002598C6
:105220002D982FEF80E792E0215080409040E1F7E9
:1052300000C0000026982E982FEF80E792E02150C2
:1052400080409040E1F700C0000027982F985698C2
:105250005E9825982D9826982E9827982F9808952F
:10526000CF93E82F873080F5809112019091130140
:10527000892B09F047C0CE2F64E670E080E40E94DD
:10528000E4309093130180931201892BD1F464E6EA
:1052900070E082E10E9457319093130180931201D4
:1052A000892B79F481E090E001C0880FCA95EAF774
:1052B00064E670E080950E945731909313018093CB
:1052C00012010E94AA311EC090E0FC013797E7301E
:1052D000F105C0F4E154FF4F0C947132209A2898E4
:1052E00011C0219A29980EC0229A2A980BC0239A9D
:1052F0002B9808C0529A5A9805C0539A5B9802C0DE
:105300003E9A4698CF9108952098289821982998F8
:1053100022982A9823982B9852985A9853985B98D9
:105320003E9846980895CF93873040F580911201BA
:1053300090911301892B59F564E670E081E40E9495
:10534000E4309093130180931201892B11F0C0E097
:1053500011C084E690E00E94863197FF05C09093CB
:10536000130180931201F3CFC82FC095109213013F
:10537000109212010E94AA318C2F0AC09FB18FB1E6
:10538000807F869586959370892B809501C080E0FB
:10539000CF91089581E08093F8040E949B2B259A79
:1053A0002D9A08958091EB0508959FB7F894109277
:1053B000E7059FBF90910E06943009F057C0909179
:1053C000E9009F703091EC00232F217030FD20E820
:1053D000922B24E02093E9002091EB0020FF43C0B2
:1053E0002091EE0027FF3FC020913806222321F0B4
:1053F0002091E80025FF37C01092380626E0309152
:10540000E80035FD15C030910E06343061F530915D
:10541000EB0035FD28C0215021F481E0809338064F
:1054200022C0EFE9FFE03197F1F700C00000E7CFBD
:105430008093F1008091E80085FD0AC08091E8002A
:1054400080FFFCCF8091E8008E778093E80006C053
:105450008FB7F89421E02093E7058FBF9F7090935A
:10546000E90080E008959F709093E9008FEF089520
:105470000F931F93CF93DF938B01EA0190910E0658
:10548000943079F58F708093E9008FEF9091E80068
:10549000815095FD06C095ED9A95F1F700008111B8
:1054A000F5CF8091E80085FF1CC00E943D2688232F
:1054B00061F08091E8008E778093E80012C0F801D7
:1054C00081918F018093F1002197209791F3809132
:1054D000E80085FDF4CF8091E8008E778093E800A6
:1054E000E4CFDF91CF911F910F91089543E050E0F9
:1054F000BC0183E00E94382A089545E050E0BC01D9
:1055000082E00E94382A0895CF93DF93EC018091C6
:105510001401811105C048E050E0BE0181E00BC0DC
:105520008091360687FF03C040E283E002C048E076
:1055300081E050E0BE010E94382A80E2FE01ACEE1C
:10554000B5E001900D928A95E1F7DF91CF91089532
:105550008091100687FF11C08091E80082FD05C090
:1055600080910E068111F8CF11C08091E8008B77F1
:105570000BC080910E06882349F08091E80080FFDF
:10558000F8CF8091E8008E778093E8000895982FF7
:10559000973068F59093E900981739F07091EC0016
:1055A0002091ED005091F00003C0242F762F50E0A1
:1055B00021FD02C09F5FECCF3091EB003E7F309326
:1055C000EB003091ED003D7F3093ED003091EB002A
:1055D00031603093EB007093EC002093ED0050931A
:1055E000F0002091EE0027FDE5CF80E008958F7058
:1055F0008093E90081E00895209116063091170606
:105600002617370748F06115710539F42091E80035
:105610002E772093E80001C0B901FC0120E061155C
:10562000710579F180910E068823F1F18530F1F151
:105630008091E80083FD3CC08091E80082FD2EC08F
:105640008091E80080FFEBCF2091F3008091F20081
:1056500090E0922B6115710551F08830910538F476
:1056600021912093F100615071090196F3CF21E05F
:10567000089709F020E08091E8008E778093E80099
:10568000CECF2111CFCF0AC080910E06882361F0C2
:10569000853061F08091E80083FD0AC08091E800C8
:1056A00082FFF2CF80E0089582E0089583E00895BC
:1056B00081E0089578941F920F920FB60F921124F3
:1056C0008F939F93AF93BF9380913206909133064F
:1056D000A0913406B09135060196A11DB11D8093AD
:1056E000320690933306A0933406B0933506BF91EB
:1056F000AF919F918F910F900FBE0F901F901895B3
:105700009C014FB7F8948091320690913306A09196
:105710003406B09135064FBF821B930B08952FB707
:10572000F89460913206709133068091340690911E
:1057300035062FBF08952FB7F894809132069091C7
:105740003306A0913406B09135062FBF08951F92FD
:105750000F920FB60F9211248F939F93AF93BF9325
:105760008091320690913306A0913406B0913506AF
:105770004196A11DB11D8093320690933306A093EC
:105780003406B0933506BF91AF919F918F910F90E2
:105790000FBE0F901F901895209114012223C9F07D
:1057A0002091360627FF15C0262F2695269526958B
:1057B0002E31C8F4FC01E20FF11D677081E090E02A
:1057C00001C0880F6A95EAF78095928189238283C8
:1057D0000895FC0106962281621301C0128231965F
:1057E000E817F907C1F70895209114012223C1F0A9
:1057F0002091360627FF14C0262F2695269526953C
:105800002E3130F5FC01E20FF11D677081E090E070
:1058100001C0880F6A95EAF79281892B82830895E7
:10582000FC0132962FEF30E04191641789F02F3F51
:1058300019F4411101C0232F3F5F3630A9F72F3FE4
:1058400039F0FC01E20FF11D27FDFA9562830895FE
:105850000895A3E0B0E0EFE2FCE20C94D231209195
:1058600030063091310628173907A1F090933106A0
:1058700080933006E0912E06F0912F06309751F07C
:1058800024E029839B838A830680F781E02DCE0163
:10589000019609952396E2E00C94EE31A3E0B0E086
:1058A000E4E5FCE20C94D23120912C0630912D06D7
:1058B00028173907A1F090932D0680932C06E091CC
:1058C0002E06F0912F06309751F023E029839B8319
:1058D0008A830680F781E02DCE01019609952396F3
:1058E000E2E00C94EE31E0912E06F0912F06309715
:1058F00029F00190F081E02D0995089580E0089548
:105900000F931F93CF93DF93C42FD22FFC01858178
:105910008823B1F040932B060E949B2B90932A067C
:105920008093290680E28C0F883008F04DC0C77044
:1059300081E001C0880FCA95EAF70E94D42044C0D4
:1059400080912B06481330C08091290690912A0639
:105950000E94802B8F3A910538F510E21D0FCD176C
:10596000B9F080E28C0F883040F4C77081E001C04C
:10597000880FCA95EAF70E94CD20183010F581E013
:105980009D2F977001C0880F9A95EAF70E94D42046
:10599000802F0E9442211830B8F4D77081E001C0F6
:1059A000880FDA95EAF70AC080E28C0F883060F43D
:1059B000C77081E001C0880FCA95EAF70E94CD2028
:1059C00003C0802F0E944221DF91CF911F910F9140
:1059D00008958F929F92AF92BF92EF92FF920F9392
:1059E0001F93CF93DF93EC017B01042F809025065A
:1059F00090902606A0902706B09028060E949E2030
:105A00000E948F2087E0080280011124CE15DF0557
:105A100031F0CE010E94D50EC00FD11FF7CF0E94EA
:105A20009E20C501B4010E940E20DF91CF911F91ED
:105A30000F91FF90EF90BF90AF909F908F9008953F
:105A400080911B0683FF7EC08CE39BE10E94330E96
:105A5000809120061F928F9387E39BE19F938F9302
:105A60000E94CC0E85E39BE10E94330E80912106BB
:105A7000282F082E000C330B3F938F9382E39BE17A
:105A80009F938F930E94CC0E80E39BE10E94330E84
:105A900080912206282F082E000C330B3F938F9302
:105AA0008DE29BE19F938F930E94CC0E8BE29BE152
:105AB0000E94330E80912306282F082E000C330BF2
:105AC0003F938F9388E29BE19F938F930E94CC0E2C
:105AD00086E29BE10E94330E80912406282F082E37
