:100000000C94080E0C94250E0C94250E0C94250EC1
:100010000C94250E0C94250E0C94250E0C94250E94
:100020000C94250E0C94250E0C9437250C947924F1
:100030000C94942B0C94250E0C94250E0C94250EE8
:100040000C94250E0C94250E0C94250E0C94250E64
:100050000C94250E0C94532B0C94250E0C94250E09
:100060000C94250E0C94250E0C94250E0C94250E44
:100070000C94250E0C94250E0C94250E0C94250E34
:100080000C94250E0C94250E0C94250E0C94250E24
:100090000C94250E0C94250E0C94250E0C94250E14
:1000A0000C94250E0C94250E0C94250E15101E1084
:1000B0002110241027102A102D1030103610331064
:1000C0003910441044101B1018103C103F109210AF
:1000D000951098109B109E108F108C10801083101C
:1000E000861089107D10DF100011FD10FA10F71036
:1000F000F410E210F110EE10EB10DC10E810E51037
:100100009A11A0118E119411A611AC11B2110F12F7
:1001100083121712E111E5111B12E8111E122912A8
:10012000F3117912F7112D12FB1131125B12FF112D
:100130003512651205123B124512EC112212EF1115
:1001400025120A124012511271127312DD1113128C
:100150008C1296139613C813C81346146414F5151D
:10016000F51569144515561556159022B7226124C8
:10017000B72261240323262361241C242C2467290D
:100180006A296D297029732976297929010140018D
:10019000010A000101400101090001013E01010FB6
:1001A0000001013E01010C0001013E01010E0001B0
:1001B000013E01010B000102E0780103E03530004F
:1001C00001013E0101090001013E01011000010190
:1001D0003E01010600010141010104010105000188
:1001E00001410101040101040001013E0101190066
:1001F00001013E01011A000102E0780103E0010162
:10020000050001013E0101200001013E01011F0026
:1002100001013E0101110001013E01011200010135
:100220003F01011C0001013F01011B0001013F01D1
:1002300001120001013F0101110001013F01011004
:100240000001013F01010F0001013F01010E00010A
:10025000013E0101170001013E0101180001013EAC
:1002600001011B0001013E01011C0001013E0101D1
:10027000220001013E0101230001013F01011F0095
:1002800001013E01011E0001013F010108000101C1
:100290003E0101160001013F01011D0001013F0166
:1002A000010A0001013F010107000102E0636E0144
:1002B00003E00001013E0101260001013F0101149C
:1002C000000102E0630103E00102E1320103E10009
:1002D0000102E06378770103E0000102E0637879CE
:1002E0000103E0000102E063660103E0000102E0B7
:1002F00063620103E00001013F010115000102E01A
:10030000630103E0010134000102E063780103E0CE
:100310000102E2770103E2000102E0636C0103E005
:100320000101280001013F0101130001013F01010A
:10033000180001013F0101090001013F01011900FD
:1003400001013E01011D000102E0780103E0726A33
:10035000000102E0780103E07220000102E0780170
:1003600003E07269000102E0780103E072730001AA
:10037000013F0101160001013E0101080001013E9B
:100380000101070001013E0101210001013E0101BF
:1003900025006B633A2025752C20636F6C3A20256D
:1003A000752C20726F773A2025752C20707265733A
:1003B0007365643A2025750A0000002A00294B4A1B
:1003C00000000000000000144D04221D4C0000003D
:1003D0000000001A2816211B2900003F52000008C7
:1003E0004F072406470000807E000015450941198B
:1003F000434C000000000017000A00050000000048
:1004000000000000000000000000000000000000EC
:1004100000000000000000000000001C000B0011A4
:100420000000000000000018460D4210442B0000A0
:100430000000000C490E34364800002C0000001269
:10044000380F31373900003E525200130033323436
:100450004E0000000051007E7E284A4D0000000042
:100460000001000100010001000100000001000086
:1004700000E1000000010001000100E300E000E0F5
:10048000080100010001002F52E2000000010001FC
:100490000001000000010000000100010001000057
:1004A0000000000000000001000100010000000148
:1004B0000000000100010001000000010000000137
:1004C0000001002D0038003600000001000100246A
:1004D0000021421E00010001000100254922001FE9
:1004E000000100010001002600230020000100019E
:1004F0000001000000270037000100010001000199
:1005000000010001000100000001000100010001E4
:100510000001000000010049003800000001000156
:1005200000010026025000000001000100010052FD
:10053000005100390001000100010027024F412550
:10054000020100010001000000517E0000000001D6
:100550000001000100000001000000010001000195
:100560000000000100000001000100000000000088
:100570000000000100010000000100000001000176
:100580000001002952E6000000010001000100E71F
:1005900000E400E4180100010001000000E5000093
:1005A0000001000100010001000100010001000044
:1005B0000001000100010001000100000001000035
:1005C00000E1000000010001000100E300E000E0A4
:1005D000080100010001000000E2002752010001B3
:1005E0000001000000000001000100010001000006
:1005F00000000000000000010001000100000001F7
:1006000000000001000100010000000100000001E5
:100610000001000000000000000000010001004295
:10062000003E003A0001000100010043003F003B92
:1006300000010001000100440040003C00010001F5
:10064000000100450041003D0001000100010001E2
:100650000001000100010000000100010001000193
:100660000001000000010000007D7E00000100018B
:100670000001002F007C7E00000100010001007BD2
:100680007E7A7E000001000100010030001E0200A1
:10069000000100010001000000380200000000011C
:1006A0000001000100000001000000010001000144
:1006B0000000000100000001000100000000000037
:1006C0000000000100010000000000010001000125
:1006D0000001000000E6002852010001000100E7CF
:1006E00000E400E4180100010001000000E5000042
:1006F00000010001000100010001000100010000F3
:1007000000010001000100010001000000010000E3
:1007100000E1000000010001000100E300E000E052
:10072000080100010001002F52E200000001000159
:1007300000010001000000000001000100010000B4
:1007400000000000000000010001000100000001A5
:100750000000000100010001000000010000000194
:10076000000100000000004E0000000100010055E3
:100770007E20020000010001000100567E310000D1
:10078000000100010001000000350000000100012F
:100790000001004B003502000001000100010001D2
:1007A0000001000100010000000100010001000142
:1007B0000001000000010000002D02000001000106
:1007C00000010000002E00000001000100010054A3
:1007D0007E2D000000010001000100537E2E02006A
:1007E0000001000100010000000000000000000105
:1007F00000010001000000010000000100010001F3
:1008000000000001000000010001000000000000E5
:1008100000000001000100010000000000010001D3
:100820000001000049E6000000010001000100E7AE
:1008300000E400E4180100010001000000E50000F0
:1008400000010001000100010001000100010000A1
:100850000001000100010001000100000001000092
:1008600000000000000100010001000000E00000A5
:100870000001000100010000000000010001000172
:1008800000010000000000235201000100010000EF
:100890000000000000000001000100010000000154
:1008A0000000000100010001000000010000000143
:1008B0000001000000000000000000010001000035
:1008C000001F020000010001000100527E21026EA3
:1008D00000010001000100000022020000010001EF
:1008E0000001006B00230200000100010001000173
:1008F00000010001000100000001000100010001F1
:1009000000010000000100000000000000010001E3
:100910000001002F0200000000010001000100782A
:100920007E797E4B07010001000100300231020098
:10093000000100010001000000240200000000018D
:1009400000010001000000010000000100010001A1
:100950000000000100000001000100000000000094
:10096000000000010001000000000024520100010D
:100970000001000000000001000100010001000072
:100980000000000000010001000100000000000064
:100990000001000100010001000100010001000050
:1009A0000001000100010001000100000001005CE5
:1009B0007E00005B7E010001000100467E160F00F4
:1009C00000010001000100437E427E4D7E010001D6
:1009D00000010000004B7E00000100010001001733
:1009E0000F00006B7E00000100010001000000010B
:1009F00000000001000100010000000100000001F2
:100A000000010000000000000000000100010000E3
:100A1000460042000001000100010001000000004A
:100A200000010001000100000000000000010001C1
:100A300000010000000000000001000100010001B1
:100A4000000100010001000000010001000100019F
:100A5000000100000001005F7E677E667E010001EC
:100A6000000100607E627E637E0100010001005E85
:100A70007E0000687E0100010001005D7E657E64ED
:100A80007E010001000100617E0000000000000105
:100A90000001000100000001000000010001000150
:100AA0000000000100000001000100000000000043
:100AB0000000000100010000000000000001000132
:100AC0000001000000000000000100010001000022
:100AD0000000000000010001000100000000000013
:100AE00000010001000100010001000100010000FF
:100AF00000010001000100010001000000010000F0
:100B000000000000000100010001000000000000E2
:100B100000010001000100000000000000010001D0
:100B200000010000000000000001000100010000C1
:100B300000000000000000010001000100000001B1
:100B400000000001000100010000000100000001A0
:100B50000001004E7E717E6A7E00000100010000EF
:100B6000006E7E00000100010001006C7E707E00BE
:100B7000000100010001006F7E6D7E000001000198
:100B8000000100697E000000000100010001000179
:100B9000000100010001000000010001000100014E
:100BA0000001000000010000000000000001000141
:100BB0000001000000000000000100010001000031
:100BC0000000000000010001000100000000000022
:100BD0000001000100010000000000000000000111
:100BE00000010001000000010000000100010001FF
:100BF00000000001000000010001000000000000F2
:100C0000000000010001000000777E0000010001EB
:100C1000000100697E6A7E00000100010001000001
:100C200000767E00000100010001000000000000CD
:100C300000010001000100010001000100010000AD
:100C4000000100010001000100010000000100009E
:100C50000000000000010001000100000000000091
:100C6000000100010001000000000000000100017F
:100C70000001000000000000000100010001000070
:100C80000000000000000001000100010000000160
:100C9000000000010001000100000001000000014F
:100CA0000001000000000000000000010001000041
:100CB00000050D0000010001000100040D060D00FB
:100CC000000100010001000000070D00000100010B
:100CD000000100000000000000010001000100010F
:100CE00000010001000100000001000100010001FD
:100CF00000010000000100000000000000010001F0
:100D00000001000000737E0000010001000100727C
:100D10007E757E00000100010001000000747E006D
:100D200000010001000100837E00000000000001BE
:100D300000010001000000010000000100010001AD
:100D400000000001000000010001000000000000A0
:100D5000000000010001000000000000000100018F
:100D6000000100000000000000010001000100007F
:100D70000000000000010001000100000000000070
:100D8000000100010001000100010001000100005C
:100D9000000100010001000100010000000100004D
:100DA0000000000000010001000100000000000040
:100DB000000100010001000100000000000100012D
:100DC0000001002552215200000100010001000035
:100DD000000000000000000100010001000000010F
:100DE00000000001000100010000000100000001FE
:100DF0000001007300447E71000000010001001337
:100E00000D100D110D0100010001001B0D0A0D1246
:100E10000D010001000100140D0B0D0F0D0100016B
:100E20000001007200270D700001000100010001A7
:100E300000010001000100000001000100010001AB
:100E4000000100000001000000000001000100019D
:100E5000000100000000000000010001000100008E
:100E6000000000000001000100010000000000007F
:100E7000000100010001000000000000000000016E
:100E8000000100010000000100000001000100015C
:100E9000000000010000000100010000000000004F
:100EA00000000001000100BC00AC000000010001D6
:100EB000000100A900AA000000010001000100BB20
:100EC00000AB0000000100010001000000AE0000C6
:100ED000000100010001000100007C817E01000092
:100EE00000010001000100010001000000010000FC
:100EF00000000000000100010001000000000000EF
:100F000000010001000100000000000000010001DC
:100F100000010000000000000001000100010000CD
:100F200000000000000000010001000100000001BD
:100F300000000001000100010000000100000001AC
:100F4000000100000000000000000001000100217D
:100F50000D1E0D1F0D010001000100230D0D0D20C0
:100F60000D010001000100220D0E0D1D0D010001FB
:100F7000000100000000000000010001000100016C
:100F8000000100010001000000010001000100015A
:100F9000000100000001000000000000000100014D
:100FA000000100477E000000000100010001004A2E
:100FB0007E497E00000100010001000000457E0026
:100FC00000010001000100827E000000000000011D
:100FD000000100010000000100000001000100010B
:100FE00000000001000000010001000000000000FE
:100FF00000000001000100000001000000010001EC
:1010000000010001000000000001000100010000DB
:1010100000000000000100010001000000000000CD
:1010200000010001000100010001000100010000B9
:1010300000010001000100010001000000010000AA
:10104000000000000001000100010000000000009D
:10105000000100010001000100000000000100018A
:10106000000100000001000000010001000100007B
:10107000000000000000000100010001000000016C
:10108000000000010001000100000001000000015B
:1010900000010000004C7E0000000001000100196A
:1010A0000D160D170D0100010001001C0D090D1892
:1010B0000D0100010001001A0D080D150D010001C0
:1010C000000100000000000000010001000100011B
:1010D0000001000100010000000100010001000109
:1010E00000010000000100000000000000010001FC
:1010F00000010000000000000001000100010000EC
:1011000000000000000100010001000000000000DC
:1011100000010001000100000000000000000001CB
:1011200000010001000000010000000100010001B9
:1011300000000001000000010001000000000000AC
:10114000000000010001000000000000000100019B
:10115000000100000000000000010001000100008B
:10116000000000000001000100010000000000007C
:101170000001000100010001000100010001000068
:101180000001000100010001000100000001000059
:10119000000000000001000100010000000000004C
:1011A000000100010001000000000000000100013A
:1011B000000100000000000000010001000100002B
:1011C000000000000000000100010001000000011B
:1011D000000000010001000100000001000000010A
:1011E00000010000000000000000000100010000FC
:1011F00000000000000100010001000000000000EC
:1012000000010001000100000000000000010001D9
:1012100000010000000000000001000100010001C9
:1012200000010001000100000001000100010001B7
:1012300000010000000100000000000000010001AA
:101240000001004F7E507E000001000100010000FF
:10125000000000000001000100010000000000008B
:10126000000100010001000000000000000000017A
:101270000001000100000001000000010001000168
:10128000000000010000000100010000000000005B
:10129000000000010001000000000000000100014A
:1012A000000100000000000000010001000100003A
:1012B000000000000001000100010000000000002B
:1012C0000001000100010001000100010001000017
:1012D0000001000100010001000100000001000008
:1012E000000000000001000100010000005A7E0023
:1012F000000100010001000000587E000001000113
:1013000000010000000100000001000100010000D8
:1013100000000000000000010001000100000001C9
:1013200000000001000100010000000100000001B8
:1013300000010000000000000000000100010000AA
:1013400000010000000100010001000000577E00C4
:10135000000100010001000000597E0000010001B1
:101360000001000000000000000100010001000178
:101370000001000100010000000100010001000166
:101380000001000000010000000000000001000159
:101390000001000000000000000100010001000049
:1013A000000000000001000100010000000000003A
:1013B0000001000100010000000000000000000129
:1013C0000001000100000001000000010001000117
:1013D000000000010000000100010000000000000A
:1013E00000000001000100000000000000010001F9
:1013F00000010000000000000001000100010000E9
:1014000000000000000100010001000000000000D9
:1014100000010001000100010001000100010000C5
:1014200000010001000100010001000000010000B6
:1014300000000000000100010001000000000000A9
:101440000001000100010000000000000001000197
:101450000001000000000000000100010001000088
:101460000000000000000001000100010000000178
:101470000000000100010001000000010000000167
:101480000001000000000000000000010001000059
:101490000000000000010001000100000000000049
:1014A0000001000100010000000000000001000137
:1014B0000001000000000000000100010001000127
:1014C0000001000100010000000100010001000115
:1014D000000100000001000000E100000001000127
:1014E000000100E300E000E008010001000100004D
:1014F00000E2001C52010001000100000000000C8D
:101500000DDD0001000100000000000000000001EE
:1015100000010001000000010000000100010001C5
:1015200000000001000000010001000000000000B8
:10153000000000010001000000CF000000D2000107
:10154000000100CD00CE001C52010000520100003D
:1015500000D00000000100010001000000D10000E7
:101560000001000100010001000100010001000074
:101570000001000100010001000100000001000065
:101580000000000000010001000100000000000058
:101590000001000100010000000000000001000146
:1015A0000001000000000000000100010001000037
:1015B0000000000000000001000100010000000127
:1015C0000000000100010001000000010000000116
:1015D0000001000000000000000000010001000008
:1015E00000000000000100010001000000000000F8
:1015F00000010001000100000000000000010001E6
:1016000000010000000000000001000100010001D5
:1016100000010001000100000001000100010001C3
:10162000000100000001000000E1000000010001D5
:10163000000100E300E000E00801000100010000FB
:1016400000E2000000010001000100000000000CA9
:101650000D01000100010000000000000000000179
:101660000001000100000001000000010001000174
:101670000000000100000001000100807E00000069
:10168000000000010001000000DB0000000100017B
:10169000000100D900DA0000000100010001000093
:1016A00000DC00000001000100010000000000005B
:1016B0000001000100010001000100010001000023
:1016C0000001000100010001000100000001000014
:1016D0000000000000010001000100000000000007
:1016E00000010001000100000000000000010001F5
:1016F00000010000000000000001000100010000E6
:1017000000000000000000010001000100000001D5
:1017100000000001000100010000000100000001C4
:1017200000010000000000000000000100010000B6
:1017300000000000000100010001000000000000A6
:101740000001000100010000000000000001000194
:101750000001000000000000000100010001000184
:101760000001000100010000000100010001000172
:101770000001000000010000000000000001000165
:101780000001000000000000000100010001000055
:101790000000000000010001000100000000000046
:1017A0000001000100010000000000000000000135
:1017B0000001000100000001000000010001000123
:1017C0000000000100000001000100000000000016
:1017D0000000000100010000000000000001000105
:1017E00000010000000000000001000100010000F5
:1017F00000000000000100010001000000000000E6
:1018000000010001000100010001000100010000D1
:1018100000010001000100010001000000010000C2
:1018200000000000000100010001000000000000B5
:1018300000010001000100000000000000010001A3
:101840000001000000000000000100010001000094
:101850000000000000000001000100010000000184
:101860000000000100010001000000010000000173
:101870000001000000000000000000010001000065
:101880000000000000010001000100000000000055
:101890000001000100010000000000000001000143
:1018A0000001000000000000000100010001000133
:1018B0000001000100010000006C6566742073697E
:1018C00064652061747461636865640A006C6566B0
:1018D000742073696465206E6F7420726573706F15
:1018E0006E64696E670A00747279696E6720746F3E
:1018F000207265736574206D637032333031380A3D
:10190000000A0025303862003A20002530325800A5
:101910000A722F632030313233343536370A0006ED
:1019200031FF0974A1010975150026FF0095207586
:101930000881020976150026FF009520750891029E
:10194000C005010980A101850319012AB70015010D
:1019500026B700950175108100C0050C0901A10191
:10196000850419012AA002150126A002950175100F
:101970008100C005010906A1018506050719E029B6
:10198000E715002501950875018102050719002951
:10199000EF1500250195F07501810205081901294F
:1019A00005950575019102950175039101C0050129
:1019B0000902A1010901A100050919012908150061
:1019C000250195087501810205010930093115814C
:1019D000257F95027508810609381581257F9501B7
:1019E00075088106050C0A38021581257F95017559
:1019F000088106C0C005010906A101050719E029F3
:101A0000E71500250195087501810295017508818A
:101A1000010507190029FF150026FF009506750826
:101A200081000508190129059505750191029501A7
:101A300075039101C05B435D005B445D005B535DDA
:101A4000005B575D005B525D0009027400040100F9
:101A5000A0FA09040000010301010009211101009D
:101A6000012240000705810308000109040100016B
:101A7000030102000921110100012247000705822C
:101A800003080001090402000103000000092111FC
:101A9000010001226D0007058303200001090403F2
:101AA00000020300000009211101000122220007A9
:101AB0000584032000010705040320000112010032
:101AC000020000000897327449010001020001166B
:101AD000034500720067006F0044006F007800202B
:101AE0000045005A00000028035A0053004100201E
:101AF0000054006500630068006E006F006C006FAA
:101B0000006700790020004C006100620073000053
:101B100000040309040000000000000000000000B1
:101B200000000000000000000000000000000000B5
:101B30000000000000000000007E0F00D4FFFFFF47
:101B4000C70000007800000000000000002A2B28D9
:101B50000000000000000000000000000000000085
:101B600029000000002C1E342021222434262725A1
:101B70002E362D3738271E1F2021222324252633D9
:101B800033362E37381F0405060708090A0B0C0DDB
:101B90000E0F101112131415161718191A1B1C1DED
:101BA0002F3130232D350405060708090A0B0C0DCB
:101BB0000E0F101112131415161718191A1B1C1DCD
:101BC0002F3130354C290A002575002F002575006E
:101BD0005D280025640020002564002000256400A5
:101BE00020002564007C0025303258006D6F75732D
:101BF000656B6579205B62746E7C78207920762035
:101C0000685D287265702F61636C293A205B000063
:101C100011241FBECFEFDAE0DEBFCDBF11E0A0E0A0
:101C2000B1E0EEEBF4E602C005900D92A236B107EA
:101C3000D9F726E0A2E6B1E001C01D92AB33B207AE
:101C4000E1F70E942C170C945D320C940000FF9376
:101C5000EF93E0916201F0916301309709F00995EB
:101C6000EF91FF910895FC018591803011F0EFDF35
:101C7000FBCF0895FF27E0E230E247FF0CC041951B
:101C800097FF09C0EDE26095709580959095611D74
:101C9000711D811D911D27FF02C0219530E350E287
:101CA000AA27660F771F881F991FAA1FA41710F075
:101CB000A41B63955A95A9F7AA3008F0A95FA05D07
:101CC000AF93F395611571058105910541F7ED32EB
:101CD00011F4EF93F395F21718F43F93F395FBCFBC
:101CE0008F91B5DFFA95E1F70895E991F991859122
:101CF000803021F0853219F0AADFF9CF089520E075
:101D0000E89455915532C1F3503311F468945591CC
:101D10005A3348F4505390F3220F022E220F220F11
:101D2000200D250FF4CF0EF421958991999153360A
:101D300019F3533729F1533559F1BC0188279927F5
:101D4000E8945C3621F489919991689455915436C0
:101D500039F446EF7EF077FF0DC08FEF9FEF0AC09A
:101D600055374AE039F0583540E121F0523642E02B
:101D700009F00895FF93EF937DDFEF91FF91B7CFC7
:101D8000FF93EF93FC0181918030B9F360DFFBCFCB
:101D9000FF93EF9368DFF1CFDF93CF93CDB7DEB73B
:101DA0002596A3DFCF91DF910895A0E0B0E0EBEDA1
:101DB000FEE00C947C30FC018481882309F44BC73D
:101DC0007F0121E0408151816281738195810E9470
:101DD000AB26EC018091E404811149C0F7018581B3
:101DE0008111D7C3C435FCE7DF0731F1A0F4C33557
:101DF0008CE7D80709F0AAC081E00E94C3290E949D
:101E0000F71F0E94E81F84E691E0909315068093E7
:101E1000140681E01FC0C6359CE7D907F1F0C7352D
:101E2000ECE7DE0709F092C06091060170910701AE
:101E30004FEF8DED94E018C08FEF0E94C3290E94F0
:101E4000F71F0E94E81F8DED94E090931506809394
:101E5000140682E08093E4048AC3609108017091C3
:101E6000090141E084E691E00E94D62C80C39E01E6
:101E700023553C472330310508F051C091E0C5356A
:101E8000DC4709F490E0F7012581291709F46FC3B5
:101E90008130A1F0823009F03FC0C0911406D0918A
:101EA00015061092F8046091230670912406809123
:101EB0002506909126060E94762726C0C09114061A
:101EC000D09115061092F8046091230670912406B3
:101ED00080912506909126060E947627F1E0C4366F
:101EE000DF0739F0FE0137978581882311F0EF0174
:101EF000F5CFD0930901C09308010EC0FE013796BB
:101F00008581882329F0EF0124E0CD3DD207B1F788
:101F1000D0930701C09306011092E40428C38130D6
:101F200059F0823099F4609108017091090197018C
:101F30004FEF8DED94E008C06091060170910701AC
:101F4000970141E084E691E00E948921C115FEE7F6
:101F5000DF0709F040C0F70185818823E1F1909106
:101F6000E70481E0890F8770987F853020F4892B02
:101F70008093E70402C09093E7048091E7048770A0
:101F8000FFEF8F9FC00111249595879595958795B3
:101F90009927909389008093880090938B00809379
:101FA0008A0090938D0080938C004091E7045091BB
:101FB000E8046091E9047091EA048FE090E00E94E7
:101FC000E730609123067091240680912506909158
:101FD00026060E947627F70185811F928F938181C3
:101FE0001F928F9380811F928F93DF936C2ECF93DC
:101FF00082E993E09F938F930E94CC0E8DB79EB79A
:102000000A960FB6F8949EBF0FBE8DBFF70185816B
:10201000882309F479C1FE01EB56FE47E131F10551
:1020200098F5EA5AFF4F0C94293187EF91E029C0C7
:1020300080EF91E026C089EE91E023C08FED91E022
:1020400020C085ED91E01DC08EEC91E01AC087ECB8
:1020500091E017C080EC91E014C086EB91E011C0D4
:102060008FEA91E00EC088EA91E00BC081EA91E02E
:1020700008C08AE991E005C083E991E002C08CE8DC
:1020800091E00E94DE202FC0CC37FEE7DF0739F059
:10209000CD372EE7D20741F489E092E002C082E01A
:1020A00092E00E94DE204FC0CA368EE7D80799F032
:1020B00038F4C936EEE7DE07B1F485E292E010C0ED
:1020C000C637FEE7DF0751F0C7372EE7D20759F4CE
:1020D00087E192E005C08EE192E002C080E192E0EB
:1020E0000E94DE204FC0FE01ED55FE47EC30F105A9
:1020F00050F5E959FF4F0C94293189E792E020C04F
:1021000082E792E01DC08BE692E01AC084E692E07E
:1021100017C08DE592E014C086E592E011C08FE40F
:1021200092E00EC088E492E00BC081E492E008C027
:102130008AE392E005C083E392E002C08CE292E081
:102140000E94DE202FC0C0358EE7D80799F038F402
:10215000CF34EEE7DE07B1F485E992E010C0C13577
:10216000FEE7DF0751F0C2352EE7D20759F48EE8BB
:1021700092E005C087E892E002C080E892E00E9409
:10218000DE2043C0CB358EE7D80739F0CC359EE74B
:10219000D90741F48CE992E002C083EA92E00E9400
:1021A000DE2052C0FE01E154FE47ED30F10568F536
:1021B000ED58FF4F0C94293184E293E023C088E16D
:1021C00093E020C088E093E01DC08DEF92E01AC03C
:1021D00086EF92E017C08DEE92E014C084EE92E09C
:1021E00011C08AED92E00EC080ED92E00BC081EC50
:1021F00092E008C08AEB92E005C083EB92E002C057
:102200008AEA92E00E94DE203EC0C835EEE7DE0793
:1022100099F038F4C7352EE7D207B1F480E493E0A3
:1022200010C0C9358EE7D80751F0CA359EE7D907E7
:1022300059F48BE293E005C089E393E002C082E3A6
:1022400093E00E94DE2028C0C435EEE7DE07B1F03F
:1022500038F4C3352EE7D207B1F481E593E010C01E
:10226000C5358EE7D80739F0C6359EE7D90759F44A
:102270008BE593E005C085E693E002C087E493E038
:102280000E94DE2017C0CE34EEE7DE0729F48FE689
:1022900093E00E94DE2038C0C034FEE7DF0751F42F
:1022A0002FEF84E39CE0215080409040E1F700C094
:1022B000000061C0C038EEE7DE07F9F058F4CE3711
:1022C0002EE7D20791F0CF378EE7D807E9F48BE8F5
:1022D00093E010C0C2389EE7D90751F0C338EEE74B
:1022E000DE0791F486E793E005C084E893E002C03E
:1022F0008DE793E00E94DE203EC060E070E080E069
:1023000094E00E94671F37C0FE01E851FC47E730A8
:10231000F10588F5E058FF4F0C94293106E221EED3
:1023200041EE6AE17CE723C007E225EE45EE6BE172
:102330007CE71DC006E221EE40EE68E17CE717C0B5
:1023400007E225EE44EE69E17CE711C006E221EEEA
:1023500042EE6CE17CE70BC007E225EE46EE6DE154
:102360007CE705C008E221E045EE6EE17CE7C701AD
:102370000E946D2CFCC0F7018581882309F480C17F
:1023800010922906CE019057839708F0DBC084E0B5
:1023900090E00E94BF309093350680933406FE0192
:1023A000E150F047E232F10520F4E957FF4F0C9479
:1023B0002931809134068160ACC0809135068860F7
:1023C000B4C0809134068260A4C08091340620C0DD
:1023D0008091340688609DC0809135061EC0809132
:1023E00035068260A2C080913406806192C08091DF
:1023F000340680628EC08091340680648AC00E9458
:10240000F71F80913406806884C08091340688600C
:1024100084607FC0809135068260816086C0809133
:1024200034068E7F76C080913506877F7EC080918E
:1024300034068D7F6EC08091340620C080913406B2
:10244000877F67C0809135061EC0809135068D7FDD
:102450006CC0809134068F7E5CC0809134068F7D85
:1024600058C0809134068F7B54C00E94F71F809122
:1024700034068F774EC080913406877F8B7F49C0AA
:10248000809135068D7F8E7F50C08091340682FB0F
:10249000222720F991E0922790FB82F990FB83F9A3
:1024A00038C080913506982F909591708E7F892B3A
:1024B00090FB81F93AC08091340686FB222720F9EF
:1024C00091E0922790FB86F924C00E94F71F80912B
:1024D000340687FB222720F991E0922790FB87F9A9
:1024E00018C061E001C060E08EE090E00E94D5304D
:1024F0001EC08091340684FB222720F991E09227A8
:1025000090FB84F906C080913406982F909590FB3B
:1025100080F9809334060BC08091350683FB222717
:1025200020F991E0922790FB83F980933506609122
:1025300034067091350684E090E00E94F3300E94EA
:10254000F71F15C0C6312CE7D20749F58091E00589
:102550008A7A91E009F490E09093E50481116DC3CB
:1025600069E285E295E00E94E12B0E94511C809176
:10257000BD05877009F46FC3F7018581882309F4CD
:102580006AC38091350682FF66C382E00E94981F6D
:1025900062C3C115FEE7DF0709F4E1CC1CCDC330EF
:1025A000FCE7DF0709F457C048F4C1158CE7D807EA
:1025B000A9F0C130DC4709F454C066C0CB35ECE764
:1025C000DE0709F459C0CC35FCE7DF0709F44CC03D
:1025D000CA35DC4709F058C081E04FC00E94F71FA0
:1025E0008FEF94E3ECE081509040E040E1F700C0D1
:1025F0000000F89481E08093E00080E28093D800AE
:102600001092C9008FE19EE40197F1F700C000002D
:102610001DBA109268001CBC10BE1FBA10927A003E
:1026200010926E0010926F00109271001092720062
:102630001092C9001092BC0014B817B81AB81DB88F
:1026400010BA1092BC0015B818B81BB81EB811BA51
:102650000C94003F8CCF6FEF7FEF80E090E00E9402
:10266000F3300E94602783CF8091350682FB882754
:1026700080F991E0892701C080E00E94AF1F04C06B
:10268000C631DC4709F4DBC2F7018581C081D18105
:10269000882349F0CE010E94091D182F682FCE0112
:1026A0000E94311F04C0CE010E94FC1E182FBE01E3
:1026B000812F0E940F170E942D1BD82FC92FC82EC3
:1026C000F7011581D680D2945FE0D5228091BD05B7
:1026D0008770E1F01123D1F0892F807F803451F091
:1026E00080E28D0F883090F0D11004C0892F807E59
:1026F000803261F08091350682FF08C082E00E943E
:10270000981F8091BD05877001E009F000E0BC2EA4
:10271000B2944FE0B4228B2D90E08C30910508F0FC
:1027200064C2FC01E755FF4F0C9429318C2F807F48
:10273000CF70882311F0C295C07F1123B9F0CC234C
:1027400009F440C280E28D0F883010F0C11006C03D
:102750009091E005C92BC093E00505C09091DF057D
:10276000C92BC093DF050E94511C2CC28D2F0E94E3
:102770003720CC2309F439C2D05ED83080F1CC2088
:1027800071F1C0959091DF05C923C093DF052AC080
:102790008C2F807FCF70803211F0C295C07FCC200B
:1027A00029F0F1E0CF1609F44DC057C080913506ED
:1027B00082FD1BC0112369F0CC2339F09091E00514
:1027C000C92BC093E0050E94511C80E00E94D22ECC
:1027D0000CC280E00E943720CC2309F406C28C2F63
:1027E0000E944A1C0E94511C00C2112389F0DD2066
:1027F000C1F166246394D610F8C19091DE058C2F48
:102800008923C81709F4F1C1C92BC093DE05EDC1B6
:10281000D110EBC18C2F0E9426208091DE059C2FC9
:10282000982329F09C2F909589238093DE05809131
:10283000E6049C2F982309F4D8C1C0958C2380937B
:10284000E604D3C1112331F0772473947D1408F486
:10285000CCC107C0D110C9C115C0112331F0D110AE
:10286000B1C18C2F0E942D20C0C1DD2059F0D93379
:1028700009F0B8C12FEF87EE93E0215080409040DF
:10288000E1F7AEC18C2F0E942620AFC18C2F869518
:102890008695837019F0813061F0A7C1112321F072
:1028A0008D2F9C2F937002C080E090E00E943B2C03
:1028B000A2C1112321F08D2F9C2F937002C080E0C4
:1028C00090E00E94162C97C1612F8D2F0E94FA2D47
:1028D00092C18C2F837009F068C011118AC19D2F9D
:1028E000929596959770990F990F8D2F8F70882ECE
:1028F000912CA12CB12C092E04C0880C991CAA1C67
:10290000BB1C0A94D2F7D4FF12C04FE050E060E045
:1029100070E004C0440F551F661F771F9A95D2F7C9
:10292000DB01CA0180959095A095B09503C080E029
:1029300090E0DC01C695C695C370C23019F1C8F4A9
:102940004090EB045090EC046090ED047090EE0425
:10295000C13059F088299929AA29BB29BC01CD0188
:1029600064217521862197210AC084289528A628EC
:10297000B728BC01CD01682979298A299B290E94A1
:10298000EE1F37C188299929AA29BB298090EB0419
:102990009090EC04A090ED04B090EE04BC01CD0149
:1029A000682579258A259B25EACF112319F08C2FDC
:1029B000817001C08695882309F41BC19D2F9295D3
:1029C00096959770990F990F8D2F8F70882E912C57
:1029D000A12CB12C092E04C0880C991CAA1CBB1C6C
:1029E0000A94D2F7D4FF12C04FE050E060E070E0EC
:1029F00004C0440F551F661F771F9A95D2F7DB015D
:102A0000CA0180959095A095B09503C080E090E0B4
:102A1000DC01C695C695C370C230D9F068F5409008
:102A20002306509024066090250670902606C1303B
:102A300059F088299929AA29BB29BC01CD01642113
:102A40007521862197211EC084289528A628B7289D
:102A500013C088299929AA29BB2980902306909020
:102A60002406A0902506B0902606BC01CD0168255D
:102A700079258A259B2506C0BC01CD0168297929C5
:102A80008A299B290E94671FB4C0CF70112339F097
:102A90008C2F0E94C61F8D2F0E942D20AAC08D2F23
:102AA0000E9426208C2F0E94721FA3C08D2FE2EF60
:102AB000CE1609F446C0EC1540F0F0EFCF1679F0D1
:102AC00031EF632EC614C1F178C023EF722EC71404
:102AD00009F43EC094EF892EC81451F16EC0112341
:102AE00009F1D11082C0CF7181E090E0A0E0B0E0A8
:102AF000AC01BD0104C0440F551F661F771FCA9566
:102B0000D2F78091230690912406A0912506B091DA
:102B100026063A014B01682679268A269B26C4019F
:102B2000B30126C0772473947D1408F45EC0DBCF14
:102B30008091350682FD22C0112329F08C2F8F71E0
:102B40002FC01123D9F38C2F8F710E94721F4DC09B
:102B5000112389F0CF7181E090E0A0E0B0E0BC01EA
:102B6000CD0104C0660F771F881F991FCA95D2F741
:102B70000E94671F3AC00E94E81F37C0112399F0D6
:102B8000CF718C2F0E94C61F8091350682FF07C02F
:102B900028E0C29FC001112483608093BD058C2F63
:102BA0000E94C61F22C081E00E94981F81E08D15FF
:102BB000E0F482E00E94981F18C0112329F0DD2064
:102BC00009F4BCCF8D2F02CEDD2009F4BCCF8933B0
:102BD00049F49FEFE7EEF3E09150E040F040E1F779
:102BE00000C000008D2F0E94372088EF8B0D8430AD
:102BF00010F40E94602C0023A9F08091BD0580FD97
:102C000011C0F70115828695869586950E94C61F8C
:102C1000C7010E94D50E8091BD0586958695869543
:102C20000E94721F20E0F70140815181628173810F
:102C3000848195810E94AB260EC065E392CC809181
:102C4000E504811106C069E285E295E00E94B92B96
:102C50008CCC65E3F9CFCDB7DEB7E0E10C949830CA
:102C60009091340692FF0DC0282F2871283019F456
:102C7000877F846006C0282F2471243011F48B7F55
:102C8000886093FF0DC0282F2871283119F4877EA2
:102C9000846106C0282F2471243111F48B7E886151
:102CA0002091350620FF0DC0382F3871383019F4C7
:102CB000877F816006C0382F3171313011F48E7FEB
:102CC000886021FF0DC0282F2871283119F4877ED4
:102CD000816106C0282F2171213111F48E7E886117
:102CE00094FD877E08958238910569F1B0F48133AF
:102CF000910509F475C048F48932910509F467C05B
:102D00008A32910509F471C008958533910509F45B
:102D100059C089339105B9F00895833E910589F131
:102D200038F4803E9105D1F0823E910529F1089555
:102D3000863E9105C9F1873E9105D9F1843E910502
:102D400009F06CC027C02091340620FD57C021FD3A
:102D500055C02091350623FD5BC00895809134064F
:102D600080FD48C08091350680FF48C080913406C0
:102D700084FD46C083EE51C08091340682FF3CC082
:102D8000F5CF8091340682FD37C08091350680FDF5
:102D900035C0ECCF8091350681FF36C08091340676
:102DA00084FD2EC087EE39C08091340683FF2AC08F
:102DB000F5CF8091340683FD25C08091350681FDD5
:102DC00023C0ECCF8091340685FD22C01FC08091C6
:102DD000340685FD1BC08091350683FF19C00AC0EB
:102DE0008091340686FD16C017C08091340686FD9A
:102DF00013C010C089E311C082EE0FC080EE0DC079
:102E000080E00BC086EE09C084EE07C085E305C0F4
:102E100089E203C08AE201C081E390E008957E3038
:102E2000B0F46630A0F48032A0F494E5899FF001FC
:102E3000112486E0789FE00DF11D1124E60FF11DAD
:102E4000EE0FFF1FE754FC4F85919491089580E0A9
:102E500001C081E090E00895ADE0B0E0E2E3F7E189
:102E60000C947A3085B7806885BF85B7806885BF48
:102E700084B7877F84BF0FB6F894A89580916000CF
:102E8000886180936000109260000FBE90E080E83F
:102E90000FB6F89480936100909361000FBE8EECA2
:102EA00099E290936301809362010E94BD240E9485
:102EB000DC248091E20084608093E2007894809129
:102EC0000A068823A1F01091E9001F709091EC0090
:102ED000892F817090FD80E8182B1092E900809175
:102EE000E80083FD0E94AE211F701093E90082E08C
:102EF00084BD93E095BD9AEF97BD80936E000E94CC
:102F00005A2890E090931301809312010E947D292A
:102F10008098889A8198899A84988C9A85988D9AB5
:102F200086988E9A87988F9AA7E0B5E0E9EFF4E04B
:102F300011921D9225E0E730F207D1F78EE090E084
:102F40000E942F318093F0049093F104FC010E96BF
:102F500011928E179F07E1F789EA8093800089E03C
:102F60008093810024982C983F988AB18F7C8AB9ED
:102F70006E98479A8BB180638BB9769A8FE090E018
:102F80000E94B9306093E7047093E8048093E904E9
:102F90009093EA0467703FEF639FB0011124759529
:102FA000679575956795772770938900609388007A
:102FB00070938B0060938A0070938D0060938C00F7
:102FC0000E94D12880E090E00E94BF30863E9E4F54
:102FD00009F479C066EE7EEF80E090E00E94F33065
:102FE00060E082E090E00E94D53060E083E090E015
:102FF0000E94D5301092EB041092EC041092ED0474
:103000001092EE0460E074E184E090E00E94F330FE
:1030100060E086E090E00E94D5306FEF87E090E0BE
:103020000E94D53040E050E0BA0188E090E00E9474
:10303000E73060E084E290E00E94D53060E087E114
:1030400090E00E94D53060E08CE090E00E94D530A6
:1030500060E08DE090E00E94D53019821A821B82D8
:103060001C821D821E821F82188648E050E068E1A3
:1030700070E0CE0101960E94C53040E050E0BA01F8
:1030800080E290E00E94E7301092E7041092E8049A
:103090001092E9041092EA0484E080618093E704CE
:1030A0004091E7045091E8046091E9047091EA04CA
:1030B0008FE090E00E94E73040E050E0BA0183E109
:1030C00090E00E94E73082E090E00E94B13080936F
:1030D000190684E090E00E94BF30909335068093FB
:1030E000340683E090E00E94B130682F70E080E009
:1030F00090E00E94EE1F609123067091240680915B
:103100002506909126060E9476278AE091E090930A
:103110002D0680932C063BE0632E39E1732E43E0AD
:10312000C42E49E1D42E5524539453E2852E55E004
:10313000952E8091120190911301892BC1F08091FD
:10314000EF048F5F8093EF04811111C087EE98E147
:103150000E94330E0E945A2890E0909313018093AE
:103160001201892B49F08DEC98E10E94330E09EF92
:1031700014E0F12CE12C1CC089EB98E10E94330E85
:103180000E94D128F4CFB12C8A2D0E948C298F73F4
:10319000F8019781891709F1878381E0B82AFB2814
:1031A0000E947D29E3940F5F1F4FF7E0EF16B9F0FF
:1031B00027E0A22EAE0C8E2D0E9429298A2D0E9476
:1031C00029298E2D0E948C298F73D8019C918917F3
:1031D000D1F28C93BB24B394D7CF80E0DFCF109291
:1031E000F6041091F5041123C9F10E94882B209157
:1031F000F3043091F404AC01421B530B9A019093F9
:10320000F4048093F3044F3F510509F020F4452B5B
:1032100009F4FAC102C02FEF30E01092F5041092C9
:10322000F204E091F004F091F104AF01425F5F4FCE
:1032300090E030E08081882341F0281718F0108258
:10324000912F03C0821B8083312F3196E417F5073D
:1032500089F73093F5049093F204D6C1FF2009F466
:10326000CAC10E94882B9093F4048093F304E091E8
:10327000F004F091F1046091F6048091F504AF013F
:10328000425F5F4F09EF14E027E035E0D8017C9101
:10329000D9019C91971791F0908191110FC0BEE1D7
:1032A000B083D9017C93D8018C917827862F90E048
:1032B000872B61E0892B09F460E081E031962F5F74
:1032C0003F4F0F5F1F4F4E175F0701F76093F604E4
:1032D0008093F5048091F804882369F025982D984F
:1032E0008091F7048F5F8093F704853610F0259A5C
:1032F0002D9A0E94882B95E1E92E95E0F92EA7E002
:10330000B5E0F70191918D9189278E169F0619F0EE
:103310008823C1F305C0811103C00E94BA2071C087
:103320008091190681FD04C007E015E0B12C2EC084
:1033300080E199E10E94330E87E0A82E85E0B82E47
:1033400000E010E01F930F937F926F920E94CC0ECB
:1033500088E099E10E94330EF50181915F010E949E
:1033600099261F928F93DF92CF920E94CC0E81E01C
:1033700099E10E94330E0F5F1F4F0FB6F894DEBF26
:103380000FBECDBF0E301105E9F6CECFD8012D907E
:103390008D01F7013080322411F1A12C4424439493
:1033A000832D8421A9F0A982BA820E94882B9C8354
:1033B0008B83F1E0FD8391E0822D842109F490E07C
:1033C0009E8349815A816B817C818D810E94D026A8
:1033D000A394440C26E0A212E3CFD7012C92B3941D
:1033E000BFEFEB1AFB0AEEE0BE12D0CF8FB7F89416
:1033F000409130065091310660913206709133064B
:103400008FBF85E0EEE1F6E0DE01199601900D92A6
:103410008A95E1F710921F0610922006109221065D
:10342000109222061A85111104C08B85882309F495
:103430004BC080911C0690911D060E94792B4597E8
:1034400008F442C0809118068F3F19F08F5F809377
:103450001806112361F00E94D82D111614F09FEF69
:1034600001C091E0899F802D112480931F061B8548
:10347000112361F00E94D82D111614F09FEF01C0A6
:1034800091E0899F802D11248093200630911F06A2
:103490003323D1F0209120062223B1F045EB3403F1
:1034A000C0011124992319F090931F0602C0509275
:1034B0001F0655EB2503C0011124992319F09093A1
:1034C000200602C0509220061C85111104C08D8573
:1034D000882309F450C080911A0690911B060E941F
:1034E000792B9C0190912305992309F491C02333F2
:1034F000310508F440C09F3F19F09F5F909323056A
:10350000112361F00E94B62D111614F09FEF01C037
:1035100091E0899F802D1124809321061D85112320
:1035200061F00E94B62D111614F09FEF01C091E0DA
:10353000899F802D11248093220630912106332308
:10354000D1F0209122062223B1F045EB3403C001D3
:103550001124992319F09093210602C0509221065C
:1035600055EB2503C0011124992319F090932206ED
:1035700002C05092220645E050E0BE01675F7F4FD7
:103580008EE196E00E945032892BA9F480911F06AB
:1035900081110FC08091200681110BC080912106FE
:1035A000811107C081E090912206911103C080E053
:1035B00001C081E080FD0E940D2D85E0FE0139965D
:1035C000AEE1B6E001900D928A95E1F70E94602C81
:1035D00090912405891709F4ACCD809324058FB709
:1035E000F894409130065091310660913206709106
:1035F00033068FBF9ECD80E09091F204992309F4A9
:1036000069CE811134CE2DCEF11031CE81E0F4CFD0
:103610002139314008F071CFAECF2091BC05909197
:10362000830557E02917A9F030E0529FF001539F1E
:10363000F00D1124EC57FA4F7181761306C070819A
:10364000781303C07581741306C02F5F3F4F277036
:10365000E9CF80E0089581E008951F93CF93DF9331
:103660000E947316EC01C11580E5D807E8F5C11575
:1036700090E4D90708F0A8C0C03ED10530F5CD3C94
:10368000D10508F094C0C83AD10578F4C53AD105FF
:1036900008F083C0C130D10509F47CC008F4F2C041
:1036A000C430D10508F0F1C0EDC0C33CD10508F02D
:1036B000E9C0C85AD0E0CC0FDD1FC85EDE4F0990CC
:1036C000D881C02DCE019464E1C0C11580E2D80735
:1036D00008F0CBC0C11591E0D90708F06BC0C83E17
:1036E000D10508F4D2C0CEC0C03682E5D80728F58F
:1036F000C03492E5D90708F079C0C03282E5D80716
:1037000008F06CC0C11592E5D90708F481C04C2FB0
:103710004695469580E2489FA0011124C37021E0A0
:1037200030E0C90102C0880F991FCA95E2F7EA018B
:10373000C82BD92BCE019D68A9C0C03A82E5D80715
:10374000B8F48C2F8F71C03892E5D90708F07BC090
:103750008695869590E2899F90011124C37081E03F
:1037600090E002C0880F991FCA95E2F79A6868C076
:10377000C03C82E5D80708F46DC0C03E92E5D90789
:1037800008F080C0CF71DD27DC2FCC27CE01806F01
:10379000906A7CC081E090E079C0C55AD0E0CB5EF1
:1037A000DE4F8881C82FD0E0CE0190646FC0CE017B
:1037B00090656CC08D2F0E943016182FCE0199276E
:1037C0000E9473161F715CC0CE0199270E94731668
:1037D000CC27DF70D06A8C2B9D2B58C0CF71D0E0E6
:1037E000DC2FCC27CE01816F906A50C08C2F8F7157
:1037F0008695869590E2899F90011124C37081E09F
:1038000090E002C0880F991FCA95E2F79C6818C023
:103810008C2F8F710E94301695E0D695C7959A959A
:10382000E1F7CF70D0E0DC2FCC27282F30E084FFE9
:1038300005C084E0220F331F8A95E1F7D069CE01DD
:10384000822B932B23C090E0D82FCC27CE01846FFE
:10385000906A1CC08C2F8F710E9430168F7190E07F
:10386000D82FCC27CE01906211C08D2F8F710E946E
:103870003016182FCE0199270E9473161F7190627F
:10388000912B04C080E090E001C0CE01DF91CF9188
:103890001F91089580959091E00589238093E0051C
:1038A00008959091E0058091DF05982B9093250570
:1038B0008091DE058823D9F0892B8093250580919E
:1038C0001401882331F08091340687FF02C08EE115
:1038D00001C086E0E7E2F5E090E0815028F0219118
:1038E0002223D9F39F5FF9CF91111092DE0540E2B8
:1038F00050E06EEB75E085E295E00E945032892B36
:1039000021F180E2E5E2F5E0AEEBB5E001900D9249
:103910008A95E1F7E0912C06F0912D063097A9F0F9
:1039200080911401882359F08091340687FF07C0E5
:10393000809125058093260586E0809325050280E9
:10394000F381E02D85E295E0099508958091BC050D
:1039500090918305891719F08F5F8770FBCF0895C9
:10396000CF93DF938091820582958F7009F04EC0CE
:1039700080918105882309F449C08091BC0540915C
:10398000830550917D0560917C05C0917E05D091A5
:103990007F0577E08417D1F190E0789FF001799F5F
:1039A000F00D1124DF01AC57BA4F14962C911497E7
:1039B000222349F111962C911197251324C02C91A3
:1039C000261321C015962C91159721111CC0129613
:1039D0002D913C9113972C1B3D0B2F3A310598F4F8
:1039E000809182058F70806180938205E657FA4F3F
:1039F00080818F70806180838CE795E00E94D50E76
:103A00000E94A61C03C001968770C4CFDF91CF919E
:103A10000895A0E0B0E0EFE0FDE10C9483308C016C
:103A2000C0902306D0902406E0902506F09026064C
:103A30008091EB049091EC04A091ED04B091EE0420
:103A4000C82AD92AEA2AFB2ACFE1D0E0D701C60149
:103A50000C2E04C0B695A795979587950A94D2F732
:103A600080FD04C0219790F7B12C09C0BC2EB8018D
:103A70008C2F0E940F170E942D1B019799F38B2DFD
:103A8000CDB7DEB7E9E00C949F30CF93DF93EC0124
:103A90000E94091DBE010E940F170E942D1BDF917D
:103AA000CF910895FC0124812223D9F08081918156
:103AB0000E94451D92959F70963079F010F49250B7
:103AC00001C09A50923068F4803F69F018F4883E43
:103AD00040F409C0843F29F406C0883E20F0813FAD
:103AE00011F080E0089581E00895A4E1B0E0EBE7F3
:103AF000FDE10C9480308C0186E0F801DE011F9618
:103B000001900D928A95E1F7F8018481E5809CE7A8
:103B1000892E95E0992E90918005911120C08823DF
:103B200009F463C1EE2009F442C0C8010E94521D8D
:103B3000F82E8823E1F187E0F801D40101900D927D
:103B40008A95E1F780918005813031F480917C0580
:103B500090917D050E94451D0E94B01C48C1F8014E
:103B6000D080C180A280B380F090810520917E0535
:103B700030917F05FF2009F4E7C0A501421B530BDC
:103B80004F3A510508F09DC0882309F430C1809157
:103B90008205282F207F90917D05222361F09C15BE
:103BA00009F460C0C8010E94521D811163C0C801A0
:103BB0000E94D50E1AC19C1113C090917C059D11D5
:103BC0000FC0E1100DC08F708061809382058CE77B
:103BD00095E00E94D50E80918205F801868303C18D
:103BE000E1103AC040E06C2D8D2D0E940D1B40E08D
:103BF0006C2D8D2D0E940D1BE82E8111F4C0DF86E7
:103C0000C88A8F8598890E94451D292F22952F707B
:103C1000243020F49F70223028F009C02A5022302E
:103C200080F014C0992349F0811107C013C0992373
:103C300021F0F8019681907F69F0805E883030F441
:103C400009C0803F38F0815F833020F0C8010E94B6
:103C5000D50EEF2CFE2CCBC0809182058160809325
:103C60008205C1C090917C059D119CCFE1109ACF37
:103C7000F80198C0EE2009F49ACF20918205822F96
:103C800082958F7090E002978CF080917C059091E6
:103C90007D0599878887BB86AA86809180058C8759
:103CA0001D862E87CE0108960E94D50E87E0F8016A
:103CB000ACE7B5E001900D928A95E1F70E94B01C47
:103CC00094C090918205292F207F51F48CE795E0D4
:103CD0000E94D50E87E0F40111928A95E9F783C01E
:103CE000882309F484C080917D058C110CC08091DB
:103CF0007C058D1108C0E11006C0F8019683C8014B
:103D00000E94D50E6AC0C8010E94521D882309F482
:103D10004ECFEE2009F44BCF20918205822F829561
:103D20008F7090E0029714F280917C0590917D0550
:103D30009A838983BC82AB82809180058D831E82A9
:103D40002F83CE010196B0CFA21AB30AFFEAAF16B5
:103D5000B10408F042C0882309F447C0FE2CEE20CD
:103D600009F425CF80917D058C1129C080917C05B7
:103D70008D1125C09091820590FD18C0892F8295E4
:103D80008F70282F30E02115310581F0F8019683DE
:103D90002F30310541F08F5F982F9295907F86816B
:103DA0008F70892B8683C8010E94D50E87E0F801A9
:103DB000ACE7B5E001900D928A95E1F718C0C80113
:103DC0000E94521D811172CF809182058160809383
:103DD0008205C8010E94D50E0AC087E0F401119245
:103DE0008A95E9F704C0F12C02C0FF24F3948F2DCB
:103DF0006496ECE00C949C30292F9E3080F5863040
:103E000070F590E036E0239F800D911D1124682FFE
:103E1000677023E0969587952A95E1F725E0289F1E
:103E2000F001299FF00D1124EB5BFA4F40E050E0C8
:103E300080E0219130E0062E02C0369527950A9445
:103E4000E2F721703327042E01C0220F0A94EAF70B
:103E5000822B4F5F5F4F4530510559F7089580E041
:103E60000895292F9E3090F5863080F590E036E059
:103E7000239F800D911D1124282F277051E001C030
:103E8000550F2A95EAF723E0969587952A95E1F74D
:103E900025E0289FF001299FF00D1124EB5BFA4FDC
:103EA00020E030E070E04081CB01022E02C0969508
:103EB00087950A94E2F7817081958427852384276A
:103EC00081932F5F3F4F2530310569F708950E9498
:103ED000762760932306709324068093250690939B
:103EE000260608950F931F9341E050E060E070E0D4
:103EF00004C0440F551F661F771F8A95D2F740955F
:103F00005095609570958091230690912406A0911C
:103F10002506B09126068A019B01082319232A232E
:103F20003B23C901B8010E94671F1F910F9108959B
:103F30009091BD05809589238093BD05282F27701A
:103F400069F4981759F09091350692FF07C086954D
:103F5000869586950E94721F1092BD0508959091D6
:103F6000350692FB222720F9281779F080FB92F979
:103F700090933506609134067091350684E090E0A8
:103F80000E94F33082E00E94981F08950F931F93C0
:103F900041E050E060E070E004C0440F551F661F30
:103FA000771F8A95D2F78091230690912406A091DD
:103FB0002506B09126068A019B01082B192B2A2B76
:103FC0003B2BC901B8010E94671F1F910F910895F3
:103FD00060E070E0CB010E94671F08956093EB04DE
:103FE0007093EC048093ED049093EE040895109286
:103FF000E00580911401882331F08091340687FF19
:1040000002C08EE101C086E0E7E2F5E0DF011D922B
:104010008A95E9F780E090E00E943B2C80E090E0F8
:104020000E94162C1092DF050E94511CEEE1F6E072
:1040300085E0DF011D928A95E9F71092180610922B
:104040002305109217060E940D2D0895882321F054
:104050000E944A1C0E94511C0895882339F09091B7
:10406000E005892B8093E0050E94511C0895882368
:1040700009F460C0823869F40E94602C81FF5AC044
:1040800069E385E295E00E94E12B0E94511C69E3FF
:104090000EC0833899F40E94602C80FF4BC063E50A
:1040A00085E295E00E94E12B0E94511C63E585E2C8
:1040B00095E00E94B92B0E94511C0895843869F440
:1040C0000E94602C82FF36C067E485E295E00E9482
:1040D000E12B0E94511C67E4EACF9CEF980F913AC4
:1040E00010F4682FE4CF90E2980F983050F4877066
:1040F00091E001C0990F8A95EAF7892F0E944A1C26
:10410000DACF9BE5980F933028F480E090E00E948E
:104110003B2C089598E5980F9B3128F480E090E0BF
:104120000E94162C089593E3980F933118F460E0E1
:104130000E94FA2D08951F93CF93DF93182F893390
:1041400019F0C0E0D0E002C0C0E5D0E0812F0E94AD
:10415000D22E209741F08FE99FE00197F1F700C040
:1041600000002197F6CF812F0E943720DF91CF9159
:104170001F910895A6E0B0E0E0ECF0E20C948830E6
:104180000E94882B8C018091E1059091E20508172F
:10419000190781F019821A820E94882B682F4981A1
:1041A0005A81792F80E090E00E94D0261093E2059A
:1041B0000093E1052696E4E00C94A430A0E0B0E082
:1041C000E4EEF0E20C948230EC018AE0A82EFE01CD
:1041D0002491222309F498C0213009F03DC0319682
:1041E0008491813021F42296FE01849187C082302F
:1041F00031F42296FE0184910E94D22E83C0833036
:1042000031F42296FE0184910E9437207BC08430D5
:1042100009F077C02296FE01249180E090E030E022
:10422000205331092A30310560F4A89EA001A99ECF
:10423000500D1124C901840F951F2196FE01249170
:10424000EECF009709F45EC0EFE9FFE03197F1F798
:1042500000C000000197F5CFE22FF0E0EB5BF44ED9
:10426000B490822F86958695869590E0FC01EB5C54
:10427000F44EE4902770F12C022E02C0F594E794DE
:104280000A94E2F7F1E0EF22FF24FC01EB5DF44E2B
:10429000C490D12C022E02C0D594C7940A94E2F7A0
:1042A00031E0C322DD24FC01EB5EF44E049110E00A
:1042B00002C0159507952A95E2F701701127E114C0
:1042C000F10419F081EE0E94D22EC114D10419F02C
:1042D00086EE0E94D22E8B2D0E949B20C114D10409
:1042E00019F086EE0E943720E114F10419F081EEF6
:1042F0000E9437200115110529F08CE20E949B20B5
:1043000001C0EF01219663CFCDB7DEB7EAE00C9490
:104310009E30F9012581A0911406B0911506211156
:1043200003C0A817B907C9F087E04802A00111240B
:10433000CD01841B950B6817790779F087E0019010
:104340000D928A95E1F78091140690911506480F19
:10435000591F50931506409314060895AAE2B0E041
:10436000E4EBF1E20C948930ECE0F6E08091F100AE
:10437000819346E0E431F407C9F780910D0683305C
:1043800009F463C030F4813071F0823009F49DC0CB
:10439000B4C08A3009F489C08B3009F46EC089300A
:1043A00009F0ABC020C080910C06813A09F0A5C08D
:1043B0008091E800877F8093E800809110069091BB
:1043C0001106892B21F460E288EE95E003C060E0DD
:1043D00080E090E070E00E94F52A8091E8008B7701
:1043E0008093E8008AC080910C06813209F085C074
:1043F0008091100690911106009719F0029709F02C
:104400007CC08091E800877F8093E8008091E8007D
:1044100082FD05C080910A068111F8CF6EC02091FF
:10442000F3008091F20090E0922B029731F480919A
:10443000F100813011F0863021F48091F1008093F9
:10444000E7058091E8008B7754C080910C06813A93
:1044500009F053C08091100690911106892B09F044
:104460004CC08091E800877F8093E8008091E8004D
:1044700080FFFCCF8091140137C080910C068132FF
:10448000E1F58091100690911106892BB1F580918C
:10449000E800877F8093E8000E94A12A80910E06A1
:1044A000809314010E94F71F28C080910C0681326E
:1044B00021F58091E800877F8093E8000E94A12A7F
:1044C00080910F068093E60518C080910C06813A12
:1044D000A1F48091E800877F8093E8008091E80054
:1044E00080FFFCCF8091E6058093F1008091E80089
:1044F0008E778093E8000E94A12A8091E80083FFD4
:10450000E0C180910C0690910D06492F50E04A3091
:10451000510508F0D6C1FA01EB54FF4F0C94293134
:10452000803821F0823809F0CCC108C0809108069B
:1045300090910906992389F082600FC0809110063E
:104540008F70873008F0BDC18093E9008091EB0047
:1045500085FB882780F91092E9009091E800977F09
:104560009093E8008093F1001092F10071C1282F20
:104570002D7F09F0A6C1882319F0823061F0A1C116
:1045800080910E06813009F09CC1933009F080E0E3
:10459000809309062EC080910E0681112AC0809159
:1045A00010068F702FEF280F263008F08AC18093F5
:1045B000E9002091EB0020FF1CC0933021F4809192
:1045C000EB00806214C09091EB0090619093EB003F
:1045D00021E030E0A90102C0440F551F8A95E2F79F
:1045E0004093EA001092EA008091EB00886080938B
:1045F000EB001092E9008091E800877F8093E8004B
:104600000E94A12A5EC181115CC110910E061F7724
:104610008091E3008078812B8093E3008091E80013
:10462000877F8093E8000E94A12A8091E80080FFA4
:10463000FCCF8091E30080688093E300111102C0F9
:1046400082E001C083E080930A063BC1805882303B
:1046500008F037C120910E0630910F062C3D53E033
:10466000350779F583E08A838AE289834FB7F89426
:10467000DE01139620E03EE051E2E32FF0E050939C
:104680005700E49120FF03C0E295EF703F5FEF70A9
:104690008E2F90E0EA3010F0C79601C0C0968D933F
:1046A0009D932F5F243149F74FBF8091E800877FAA
:1046B0008093E8006AE270E0CE0101960E94F52A3C
:1046C000B5C08091100690911106432F55274330B5
:1046D0005105A9F068F44130510509F401C1423097
:1046E000510509F0EEC084E790E0E9E4FAE14BC03F
:1046F0004132510529F14232510589F1E2C0C90127
:10470000992781309105A1F058F0029709F0D9C09E
:10471000EFECFAE1E4918E2F90E0EFECFAE130C09B
:10472000E1E1FBE1E4918E2F90E0E1E1FBE128C0C3
:10473000E7EEFAE1E4918E2F90E0E7EEFAE120C097
:104740008430910508F0BDC0880F991FFC01E65A1E
:10475000FE4F0190F081E02D89E090E014C084309C
:10476000910508F0AEC0FC01EE0FFF1FEE5AFE4FA0
:104770000190F081E02DDC01A25BBE4F8C9190E0B6
:10478000009709F49EC02091E800277F2093E8005D
:1047900020911206309113068217930708F49C01AA
:1047A00040E02115310589F180910A06882309F43A
:1047B0003DC08530D9F18091E80083FD37C08091FC
:1047C000E80082FD2FC08091E80080FFEACF409191
:1047D000F3008091F20090E0942B2115310559F0FF
:1047E0008830910540F444914093F1003196215076
:1047F00031090196F2CF41E0089709F040E080913D
:10480000E8008E778093E800CCCF4111CDCF0AC06D
:1048100080910A06882351F0853041F08091E800AC
:1048200083FD04C08091E80082FFF2CF8091E80010
:104830008B778093E80045C0803809F042C08091B2
:10484000E800877F8093E80080910B068093F10059
:104850008091E8008E77D2CE811133C080910E0610
:1048600090910F069927029764F58091E800877F61
:104870008093E80010910E0610930B060E94A12A67
:10488000111106C08091E30087FD02C081E001C0E4
:1048900084E080930A0642E061EC81E00E94C02A35
:1048A00042E061EC82E00E94C02A42E261EC83E0D7
:1048B0000E94C02A42E261EC84E00E94C02A8091FA
:1048C0000A068091E80083FF10C08091E800877F8E
:1048D0008093E8008091EB0080628093EB0005C03C
:1048E00082E190E0EDEBFAE14ECFAA96E3E00C9482
:1048F000A5301F920F920FB60F9211242F933F9362
:104900004F935F936F937F938F939F93AF93BF93D7
:10491000CF93DF93EF93FF93C091E900CF70809125
:10492000EC00D82FD17080FDD0E81092E900809182
:10493000F000877F8093F00078940E94AE2110925F
:10494000E9008091F00088608093F000CD2BCF705B
:10495000C093E900FF91EF91DF91CF91BF91AF91AB
:104960009F918F917F916F915F914F913F912F9187
:104970000F900FBE0F901F901895E8EDF0E080812A
:104980008E7F80831092E2001092DA001092E10094
:10499000A0EEB0E08C9181608C9380818F778083D2
:1049A00019BCA7EDB0E08C918E7F8C9380818F7EB7
:1049B00080831092E5050895A0E0B0E0E2EEF4E215
:1049C0000C948430C8EDD0E088818F7E8883E7ED39
:1049D000F0E080818160808384E082BF81E0809309
:1049E000E50588818E7F888302EE10E0F801108251
:1049F0001092DA0081EEC82ED12CF6011082888147
:104A00008F77888388818068888388818F7D888379
:104A100019BC10920A0610920B0610920906109209
:104A2000080690EEE92EF12CF70180818B7F8083C0
:104A300088818160888342E060E080E00E94C02A33
:104A4000F60180818E7F8083F80180818160808380
:104A5000808188608083F70180818E7F8083888158
:104A600080618883CDB7DEB7E8E00C94A0301F9258
:104A70000F920FB60F9211242F933F934F935F9392
:104A80006F937F938F939F93AF93BF93EF93FF9316
:104A90008091E10082FF49C08091E20082FF45C021
:104AA0008091E1008B7F8093E1002091E4052F5FEE
:104AB000822F62E30E940931992319F02093E405C3
:104AC00034C01092E4058091E305882371F1809150
:104AD0000A06843041F58091E9008F702091EC0046
:104AE000922F917020FD90E8892B94E09093E9003B
:104AF0009091EB0090FF14C09091EE0097FF10C0D2
:104B00009091E80095FF03C01092F100F9CF9091C9
:104B1000E80090FF05C09091E8009E779093E80030
:104B20008F708093E9001092E3058091DA0080FF96
:104B300032C08091D80080FF2EC08091DA008E7F35
:104B40008093DA008091D90080FF1CC080E189BD8C
:104B500082E189BD09B400FEFDCF81E080930A06A1
:104B600085E39AE10E94330E8091E505811113C01F
:104B70000E94BD240E94DC248091E2008460809326
:104B8000E20009C019BC10920A0689E39AE10E946A
:104B9000330E1092E5058091E10080FF1BC08091EB
:104BA000E20080FF17C08091E2008E7F8093E200D8
:104BB0008091E20080618093E2008091D800806261
:104BC0008093D80019BC85E080930A068DE39AE1B2
:104BD0000E94330E8091E10084FF38C08091E20092
:104BE00084FF34C080E189BD82E189BD09B400FE43
:104BF000FDCF8091D8008F7D8093D8008091E10017
:104C00008F7E8093E1008091E2008F7E8093E200AE
:104C10008091E20081608093E20080910B068823FE
:104C200011F084E007C08091E30087FD02C081E0BD
:104C300001C083E080930A0681E49AE10E94330E6A
:104C40000E94F71F0E94602C80910A068091E1006B
:104C500083FF2BC08091E20083FF27C08091E10099
:104C6000877F8093E10082E080930A0610920B0612
:104C70008091E1008E7F8093E1008091E2008E7F41
:104C80008093E2008091E20080618093E20042E044
:104C900060E080E00E94C02A8091F00088608093EC
:104CA000F00085E49AE10E94330EFF91EF91BF91ED
:104CB000AF919F918F917F916F915F914F913F91B4
:104CC0002F910F900FBE0F901F9018952091E40028
:104CD0003091E50095E64091EC00842F817040FF13
:104CE00023C08091E80080FD1DC080910A068823C2
:104CF00099F0853099F08091EB0085FD11C04091CD
:104D0000E4005091E5002417350729F3915011F084
:104D10009A01E1CF84E0089582E0089583E0089548
:104D200081E0089580E008954091E80042FFDDCFE2
:104D300008958295982F937344E0949F90011124D5
:104D40008C7C86958695282B822F8575880F2A7AEC
:104D50002695822B0895A6E0B0E0E1EBF6E20C94F4
:104D6000893049835A8349815A81992361F02223EA
:104D700051F0CA010E94091D182F682F89819A815C
:104D80000E94311F04C0CA010E94FC1E182F6981B5
:104D90007A81812F0E940F172696E3E00C94A530AC
:104DA000ABE1B0E0E6EDF6E20C9488304E8B5F8B21
:104DB000688F798F8A8F9B8F192F91111092DF0541
:104DC000DE011F9687E0FD0111928A95E9F786E0E2
:104DD000FE01769601900D928A95E1F70A8D0023E7
:104DE00041F021E04F85588969897A89C8010E947C
:104DF000AB260B8B1C8B87E0FE013F96DE011896DD
:104E000001900D928A95E1F7CE0108960E94751DDA
:104E100081112CC087E0FE013896DE0111960190C9
:104E20000D928A95E1F76C85662301F12091830547
:104E300030E0C9010196877099274091BC0550E088
:104E40008417950761F16D8397E0929FD001939F3E
:104E5000B00D1124AC57BA4FFE01319601900D925E
:104E60009A95E1F7809383050E94A61C17E0809134
:104E7000BC05909183058917F9F0189FC001112492
:104E80008C579A4F0E94751D8823B1F08091BC0504
:104E900090E00196877099278093BC05E8CF0E9427
:104EA000F71F109283051092BC05ECE7F5E087E050
:104EB000DF011D928A95E9F76B96E4E00C94A4302B
:104EC0000E94F71F2FEF84E39CE021508040904028
:104ED000E1F700C000009AE088E10FB6F894A895C9
:104EE000809360000FBE90936000FFCF8F929F92DF
:104EF000AF92BF92CF92DF92EF92FF926C01EE24BD
:104F0000FF24C114D104E104F10411F020E103C035
:104F10006B017C0120E08D2C9E2CAF2CBB248114D6
:104F20009104A104B10419F0285F750164014601E0
:104F3000570154E0B694A794979487945A95D1F763
:104F400081149104A104B10419F02C5F750164016E
:104F50004601570142E0B694A794979487944A95E6
:104F6000D1F781149104A104B10419F02E5F7501E9
:104F70006401F694E794D794C794CD28CE28CF281F
:104F800009F02F5F293151F028F4243139F028310C
:104F900029F007C02B3111F02E3119F4259A2D9AE2
:104FA00002C025982D986B017C0120E2C22220E8E6
:104FB000D222EE24FF24DC01CB0120E2C21620E83D
:104FC000D206E104F10411F4A26001C0AD7F6C01CE
:104FD0007D0128E8C222DD24EE24FF2428E8C21641
:104FE000D104E104F10411F4A16001C0AE7F6C01B1
:104FF0007D0124E0C22222E0D222EE24FF2424E01C
:10500000C21622E0D206E104F10411F4A46001C04A
:10501000AB7F6C017D0120E4C22222E0D222EE248B
:10502000FF2420E4C21622E0D206E104F10411F4C8
:10503000A06401C0AF7B6C017D0122E0C22220E8A8
:10504000D222EE24FF2422E0C21620E8D206E10498
:10505000F10411F4A86001C0A77F6C017D0126E076
:10506000C222DD24EE24FF2426E0C216D104E1048E
:10507000F10411F4A06801C0AF776C017D0120E15B
:10508000C22221E0D222EE24FF24BC01CD0120E186
:10509000C21621E0D206E104F10411F4906201C0CD
:1050A0009F7DFF90EF90DF90CF90BF90AF909F904B
:1050B0008F90089580E290E0909313018093120105
:1050C0008091160681110EC00E94962F81E0809378
:1050D00016062FEF83ED90E3215080409040E1F7DA
:1050E00000C0000064E670E080E40E949C2F909372
:1050F000130180931201892B09F04EC064E670E021
:1051000080E00E940F309093130180931201892B4D
:1051100009F042C064E670E080E00E940F30909396
:10512000130180931201892BB9F564E670E08FE3D7
:105130000E940F309093130180931201892B61F527
:105140000E94623064E670E080E40E949C2F90939D
:10515000130180931201892BF9F464E670E08CE06E
:105160000E940F309093130180931201892BA1F4B8
:1051700064E670E080E00E940F309093130180930A
:105180001201892B49F464E670E08FE30E940F302E
:1051900090931301809312010E946230809112015A
:1051A000089556985E9825982D9826982E982798B9
:1051B0002F988FEF90E090938900809388009093D0
:1051C0008B0080938A0090938D0080938C00259AA9
:1051D0002D9A2FEF80E792E0215080409040E1F738
:1051E00000C00000269A2E9A2FEF80E792E021500F
:1051F00080409040E1F700C00000279A2F9A2FEFDF
:1052000080E792E0215080409040E1F700C000002C
:1052100025982D982FEF80E792E021508040904014
:10522000E1F700C0000026982E982FEF80E792E06B
:10523000215080409040E1F700C0000027982F984F
:1052400056985E9825982D9826982E9827982F98EE
:105250000895CF93E82F873080F5809112019091C7
:105260001301892B09F047C0CE2F64E670E080E47B
:105270000E949C2F9093130180931201892BD1F4EB
:1052800064E670E082E10E940F30909313018093F6
:105290001201892B79F481E090E001C0880FCA9552
:1052A000EAF764E670E080950E940F309093130156
:1052B000809312010E9462301EC090E0FC0137977B
:1052C000E730F105C0F4E154FF4F0C942931209AE6
:1052D000289811C0219A29980EC0229A2A980BC0AA
:1052E000239A2B9808C0529A5A9805C0539A5B98F3
:1052F00002C03E9A4698CF91089520982898219808
:10530000299822982A9823982B9852985A9853981B
:105310005B983E9846980895CF93873040F58091EA
:10532000120190911301892B59F564E670E081E434
:105330000E949C2F9093130180931201892B11F0EE
:10534000C0E011C084E690E00E943E3097FF05C0A7
:105350009093130180931201F3CFC82FC095109240
:105360001301109212010E9462308C2F0AC09FB16B
:105370008FB1807F869586959370892B809501C02B
:1053800080E0CF91089581E08093F8040E94882BFB
:10539000259A2D9A08958091E70508959FB7F8946E
:1053A0001092E3059FBF90910A06943009F057C010
:1053B0009091E9009F703091EC00232F217030FD17
:1053C00020E8922B24E02093E9002091EB0020FFBD
:1053D00043C02091EE0027FF3FC0209136062223D4
:1053E00021F02091E80025FF37C01092360626E014
:1053F0003091E80035FD15C030910A06343061F572
:105400003091EB0035FD28C0215021F481E08093DC
:10541000360622C0EFE9FFE03197F1F700C0000047
:10542000E7CF8093F1008091E80085FD0AC080916C
:10543000E80080FFFCCF8091E8008E778093E80041
:1054400006C08FB7F89421E02093E3058FBF9F70CB
:105450009093E90080E008959F709093E9008FEFAA
:1054600008950F931F93CF93DF938B01EA019091DF
:105470000A06943079F58F708093E9008FEF909150
:10548000E800815095FD06C095ED9A95F1F7000072
:105490008111F5CF8091E80085FF1CC00E9466262F
:1054A000882361F08091E8008E778093E80012C035
:1054B000F80181918F018093F1002197209791F35A
:1054C0008091E80085FDF4CF8091E8008E7780938D
:1054D000E800E4CFDF91CF911F910F91089543E051
:1054E00050E0BC0183E00E94312A089545E050E07D
:1054F000BC0182E00E94312A0895CF93DF93EC0132
:1055000080911401811105C048E050E0BE0181E0A6
:105510000BC08091340687FF03C040E283E002C0E5
:1055200048E081E050E0BE010E94312A80E2FE01A5
:10553000A8EEB5E001900D928A95E1F7DF91CF9149
:10554000089580910C0687FF11C08091E80082FDCC
:1055500005C080910A068111F8CF11C08091E80042
:105560008B770BC080910A06882349F08091E80070
:1055700080FFF8CF8091E8008E778093E80008954F
:10558000982F973068F59093E900981739F070914B
:10559000EC002091ED005091F00003C0242F762FF5
:1055A00050E021FD02C09F5FECCF3091EB003E7FC9
:1055B0003093EB003091ED003D7F3093ED00309162
:1055C000EB0031603093EB007093EC002093ED0022
:1055D0005093F0002091EE0027FDE5CF80E0089584
:1055E0008F708093E90081E0089520911206309138
:1055F00013062617370748F06115710539F4209115
:10560000E8002E772093E80001C0B901FC0120E0FA
:105610006115710579F180910A068823F1F18530D1
:10562000F1F18091E80083FD3CC08091E80082FDAB
:105630002EC08091E80080FFEBCF2091F300809195
:10564000F20090E0922B6115710551F088309105C0
:1056500038F421912093F100615071090196F3CF44
:1056600021E0089709F020E08091E8008E77809390
:10567000E800CECF2111CFCF0AC080910A0688233F
:1056800061F0853061F08091E80083FD0AC080916F
:10569000E80082FFF2CF80E0089582E0089583E081
:1056A000089581E0089578941F920F920FB60F929B
:1056B00011248F939F93AF93BF9380913006909165
:1056C0003106A0913206B09133060196A11DB11D9D
:1056D0008093300690933106A0933206B093330640
:1056E000BF91AF919F918F910F900FBE0F901F9020
:1056F00018959C014FB7F89480913006909131062F
:10570000A0913206B09133064FBF821B930B0895D0
:105710002FB7F8948091300690913106A09132060F
:10572000B09133062FBF08951F920F920FB60F92BC
:1057300011248F939F93AF93BF93809130069091E4
:105740003106A0913206B09133064196A11DB11DDC
:105750008093300690933106A0933206B0933306BF
:10576000BF91AF919F918F910F900FBE0F901F909F
:105770001895209114012223C9F02091340627FFA7
:1057800015C0262F2695269526952E31C8F4FC01A6
:10579000E20FF11D677081E090E001C0880F6A950B
:1057A000EAF780959281892382830895FC01069609
:1057B0002281621301C012823196E817F907C1F7FE
:1057C0000895209114012223C1F02091340627FF6F
:1057D00014C0262F2695269526952E3130F5FC01EE
:1057E000E20FF11D677081E090E001C0880F6A95BB
:1057F000EAF79281892B82830895FC0132962FEF7C
:1058000030E04191641789F02F3F19F4411101C034
:10581000232F3F5F3630A9F72F3F39F0FC01E20F0D
:10582000F11D27FDFA95628308950895A3E0B0E085
:10583000ECE1FCE20C948A3020912E0630912F0688
:1058400028173907A1F090932F0680932E06E09138
:105850002C06F0912D06309751F024E029839B838C
:105860008A830680F781E02DCE0101960995239663
:10587000E2E00C94A630A3E0B0E0E1E4FCE20C949A
:105880008A3020912A0630912B0628173907A1F07B
:1058900090932B0680932A06E0912C06F0912D061A
:1058A000309751F023E029839B838A830680F78118
:1058B000E02DCE01019609952396E2E00C94A630E6
:1058C000E0912C06F0912D06309729F00190F0819F
:1058D000E02D0995089580E008950F931F93CF93CD
:1058E000DF93C42FD22FFC0185818823B1F0409330
:1058F00029060E94882B909328068093270680E231
:105900008C0F883008F04DC0C77081E001C0880F4F
:10591000CA95EAF70E942D2044C0809129064813B9
:1059200030C080912706909128060E94792B8F3AEB
:10593000910538F510E21D0FCD17B9F080E28C0FFC
:10594000883040F4C77081E001C0880FCA95EAF73B
:105950000E942620183010F581E09D2F977001C01D
:10596000880F9A95EAF70E942D20802F0E949B2095
:105970001830B8F4D77081E001C0880FDA95EAF7E3
:105980000AC080E28C0F883060F4C77081E001C0EB
:10599000880FCA95EAF70E94262003C0802F0E9434
:1059A0009B20DF91CF911F910F9108958F929F922D
:1059B000AF92BF92EF92FF920F931F93CF93DF931B
:1059C000EC017B01042F8090230690902406A09088
:1059D0002506B09026060E94F71F0E94E81F87E068
:1059E000080280011124CE15DF0531F0CE010E949E
:1059F000D50EC00FD11FF7CF0E94F71FC501B4010C
:105A00000E94671FDF91CF911F910F91FF90EF9040
:105A1000BF90AF909F908F9008958091190683FF5B
:105A20007EC08CEE9BE10E94330E80911E061F9279
:105A30008F9387EE9BE19F938F930E94CC0E85EE10
:105A40009BE10E94330E80911F06282F082E000C28
:105A5000330B3F938F9382EE9BE19F938F930E9432
:105A6000CC0E80EE9BE10E94330E80912006282F01
:105A7000082E000C330B3F938F938DED9BE19F938A
:105A80008F930E94CC0E8BED9BE10E94330E809190
:105A90002106282F082E000C330B3F938F9388ED9F
:105AA0009BE19F938F930E94CC0E86ED9BE10E9419
:105AB000330E80912206282F082E000C330B3F93C3
:105AC0008F9383ED9BE19F938F930E94CC0E80ED8B
:105AD0009BE10E94330E809118061F928F938DECEC
