:100000000C94070E0C94240E0C94240E0C94240EC5
:100010000C94240E0C94240E0C94240E0C94240E98
:100020000C94240E0C94240E0C9401250C9443245F
:100030000C94922B0C94240E0C94240E0C94240EED
:100040000C94240E0C94240E0C94240E0C94240E68
:100050000C94240E0C94452B0C94240E0C94240E1A
:100060000C94240E0C94240E0C94240E0C94240E48
:100070000C94240E0C94240E0C94240E0C94240E38
:100080000C94240E0C94240E0C94240E0C94240E28
:100090000C94240E0C94240E0C94240E0C94240E18
:1000A0000C94240E0C94240E0C94240E15101E1087
:1000B0002D103C105110541057105A1060105D1044
:1000C00063106E106E101B10181066106910BC10B3
:1000D000BF10C210C510C810B910B610AA10AD10CC
:1000E000B010B310A71009112A11271124112111E2
:1000F0001E110C111B1118111511061112110F11DF
:10010000E211E811D611DC11EE11F411FA115712B7
:10011000CB125F1229122D12631230126612711265
:100120003B12C1123F12751243127912A3124712E9
:100130007D12AD124D1283128D1234126A123712D3
:100140006D12521288129912B912BB1225125B124B
:10015000D412DE13DE13101410148E14AC143D16DA
:100160003D16B1148D159E159E155A2281222B2401
:1001700081222B24CD22F0222B24E623F623592999
:100180005C295F296229652968296B2901014001E1
:10019000010A000101400101090001013E01010FB6
:1001A0000001013E01010C0001013E01010E0001B0
:1001B000013E01010B000102E0780103E03530004F
:1001C00001013E0101090001013E01011000010190
:1001D0004100010141000101410001013E010119FD
:1001E0000001013E01011A000102E0780103E00173
:1001F00001050001013E0101200001013E01011F36
:100200000001013E0101110001013E010112000146
:10021000013F01011C0001013F01011B0001013FE1
:100220000101120001013F0101110001013F010123
:10023000100001013F01010F0001013F01010E000B
:1002400001013E0101170001013E010118000101F9
:100250003E01011B0001013E01011C0001013E01A4
:1002600001220001013E0101230001013F01011FA4
:100270000001013E01011E0001013F0101080001D2
:10028000013E0101160001013F01011D0001013F76
:1002900001010A0001013F010107000102E0636E54
:1002A0000103E00001013E0101260001013F0101BF
:1002B00014000102E0630103E00102E1320103E105
:1002C000000102E06378770103E0000102E0637857
:1002D000790103E0000102E063660103E00001022E
:1002E000E063620103E00001013F0101150001022A
:1002F000E0630103E0010134000102E063780103DF
:10030000E00102E2770103E2000102E0636C010315
:10031000E00101280001013F0101130001013F013B
:1003200001180001013F0101090001013F0101190C
:100330000001013E01011D000102E0780103E072AD
:100340006A000102E0780103E07220000102E07817
:100350000103E07269000102E0780103E0727300BA
:1003600001013F01011600010141000101410001AD
:10037000013E0101210001013E010125006B633AAC
:100380002025752C20636F6C3A2025752C20726F08
:10039000773A2025752C20707265737365643A2056
:1003A00025750A0000002A00294B4A0000000000C1
:1003B0000000144D04221D4C0000000000001A280B
:1003C00016211B2900003F520000084F0724064752
:1003D0000000807E00001545094119434C000000D3
:1003E000000017000A0005000000000000000000E7
:1003F00000000000000000000000000000000000FD
:100400000000000000001C000B00110000000000B4
:10041000000018460D4210442B00000000000C495B
:100420000E34364800002C00000012380F313739E6
:1004300000003E52520013003332344E00000000E0
:1004400051007E7E284A4D0000000000010001009E
:10045000010001000100000001000000E1000000B7
:10046000010001000100E300E000E00801000100DC
:1004700001002F52E2000000010001000100000015
:100480000100000001000100010000000000000068
:100490000000010001000100000001000000010057
:1004A00001000100000001000000010001002D001A
:1004B00038003600000001000100240021421E0027
:1004C000010001000100254922001F000100010078
:1004D00001002600230020000100010001000000AF
:1004E00027003700010001000100010001000100A8
:1004F00001000000010001000100010001000000F6
:10050000010049003800000001000100010026023E
:1005100050000000010001000100520051003900AC
:1005200001000100010027024F41250201000100E6
:1005300001000000517E00000000010001000100E8
:1005400000000100000001000100010000000100A6
:100550000000010001000000000000000000010098
:10056000010000000100000001000100010029520B
:10057000E6000000010001000100E700E400E418CB
:100580000100010001000000E50000000100010081
:100590000100010001000100010000000100010054
:1005A000010001000100000001000000E100000066
:1005B000010001000100E300E000E008010001008B
:1005C00001000000E20027520100010001000000CC
:1005D0000000010001000100010000000000000017
:1005E0000000010001000100000001000000010006
:1005F00001000100000001000000010001000000F6
:100600000000000000000100010042003E003A002E
:1006100001000100010043003F003B000100010018
:100620000100440040003C000100010001004500C1
:1006300041003D0001000100010001000100010036
:1006400001000000010001000100010001000000A4
:10065000010000007D7E00000100010001002F006C
:100660007C7E00000100010001007B7E7A7E00009C
:1006700001000100010030001E0200000100010025
:10068000010000003802000000000100010001002C
:100690000000010000000100010001000000010055
:1006A0000000010001000000000000000000010047
:1006B0000100000000000100010001000100000035
:1006C000E6002852010001000100E700E400E41800
:1006D0000100010001000000E50000000100010030
:1006E0000100010001000100010000000100010003
:1006F000010001000100000001000000E100000015
:10070000010001000100E300E000E0080100010039
:1007100001002F52E2000000010001000100010071
:1007200000000000010001000100000000000000C6
:1007300000000100010001000000010000000100B4
:1007400001000100000001000000010001000000A4
:1007500000004E00000001000100557E2002000054
:10076000010001000100567E31000000010001007F
:1007700001000000350000000100010001004B00F5
:10078000350200000100010001000100010001002C
:100790000100000001000100010001000100000053
:1007A000010000002D020000010001000100000016
:1007B0002E000000010001000100547E2D00000009
:1007C000010001000100537E2E0200000100010023
:1007D0000100000000000000000001000100010015
:1007E0000000010000000100010001000000010004
:1007F00000000100010000000000000000000100F6
:10080000010001000000000001000100010000499A
:10081000E6000000010001000100E700E400E41828
:100820000100010001000000E500000001000100DE
:1008300001000100010001000100000001000100B1
:1008400001000100010000000100000000000000A4
:100850000100010001000000E000000001000100B3
:100860000100000000000100010001000100000083
:100870000000235201000100010000000000000000
:100880000000010001000100000001000000010063
:100890000100010000000100000001000100000053
:1008A0000000000000000100010000001F02000025
:1008B000010001000100527E21026E0001000100D2
:1008C00001000000220200000100010001006B0095
:1008D00023020000010001000100010001000100ED
:1008E0000100000001000100010001000100000002
:1008F00001000000000000000100010001002F02C3
:1009000000000000010001000100787E797E4B07A5
:10091000010001000100300231020000010001006D
:10092000010000002402000000000100010001009D
:1009300000000100000001000100010000000100B2
:1009400000000100010000000000000000000100A4
:10095000010000000000245201000100010000001D
:100960000000010001000100010000000000000083
:100970000100010001000000000000000100010072
:100980000100010001000100010000000100010060
:10099000010001000100000001005C7E00005B7EA0
:1009A000010001000100467E160F00000100010059
:1009B0000100437E427E4D7E0100010001000000E7
:1009C0004B7E0000010001000100170F00006B7E4C
:1009D0000000010001000100000001000000010012
:1009E0000100010000000100000001000100000002
:1009F000000000000000010001000046004200006D
:100A000001000100010001000000000001000100E0
:100A100001000000000000000100010001000000D2
:100A200000000000010001000100010001000100C0
:100A300001000000010001000100010001000000B0
:100A400001005F7E677E667E010001000100607E1E
:100A5000627E637E0100010001005E7E0000687E10
:100A60000100010001005D7E657E647E01000100E1
:100A70000100617E00000000000001000100010093
:100A80000000010000000100010001000000010061
:100A90000000010001000000000000000000010053
:100AA0000100000000000000010001000100000042
:100AB0000000000001000100010000000000000033
:100AC0000100010001000000000000000100010021
:100AD000010001000100010001000000010001000F
:100AE0000100010001000000010000000000000002
:100AF00001000100010000000000000001000100F1
:100B000001000000000000000100010001000000E1
:100B100000000000010001000100000000000000D2
:100B200000000100010001000000010000000100C0
:100B300001000100000001000000010001004E7EE4
:100B4000717E6A7E00000100010000006E7E0000E0
:100B50000100010001006C7E707E000001000100B8
:100B600001006F7E6D7E0000010001000100697EC2
:100B7000000000000100010001000100010001006F
:100B8000010000000100010001000100010000005F
:100B90000100000000000000010001000100000051
:100BA0000000000001000100010000000000000042
:100BB0000100010001000000000000000100010030
:100BC0000100000000000000000001000100010021
:100BD0000000010000000100010001000000010010
:100BE0000000010001000000000000000000010002
:100BF00001000000777E0000010001000100697E15
:100C00006A7E00000100010001000000767E000005
:100C100001000100010000000000000001000100CF
:100C200001000100010001000100000001000100BD
:100C300001000100010000000100000000000000B0
:100C4000010001000100000000000000010001009F
:100C50000100000000000000010001000100000090
:100C60000000000001000100010000000000000081
:100C7000000001000100010000000100000001006F
:100C8000010001000000010000000100010000005F
:100C9000000000000000010001000000050D000040
:100CA000010001000100040D060D0000010001001B
:100CB00001000000070D000001000100010000001C
:100CC000000000000100010001000100010001001E
:100CD000010000000100010001000100010000000E
:100CE0000100000000000000010001000100000000
:100CF000737E0000010001000100727E757E00001D
:100D00000100010001000000747E000001000100EC
:100D10000100837E000000000000010001000100CE
:100D200000000100000001000100010000000100BE
:100D300000000100010000000000000000000100B0
:100D4000010000000000000001000100010000009F
:100D50000000000001000100010000000000000090
:100D6000010001000100000000000000010001007E
:100D7000010001000100010001000000010001006C
:100D8000010001000100000001000000000000005F
:100D9000010001000100000000000000010001004E
:100DA00001000100000000000100010001002552C7
:100DB00021520000010001000100000000000000BD
:100DC000000001000100010000000100000001001E
:100DD000010001000000010000000100010073009B
:100DE000447E7100000001000100130D100D110D73
:100DF0000100010001001B0D0A0D120D0100010090
:100E00000100140D0B0D0F0D010001000100720017
:100E1000270D700001000100010001000100010028
:100E200001000000010001000100010001000000BC
:100E300001000000000001000100010001000000AD
:100E4000000000000100010001000000000000009F
:100E5000010001000100000000000000010001008D
:100E6000010000000000000000000100010001007E
:100E7000000001000000010001000100000001006D
:100E8000000001000100000000000000000001005F
:100E90000100BC00AC000000010001000100A9003D
:100EA000AA000000010001000100BB00AB0000002F
:100EB0000100010001000000AE000000010001007F
:100EC00001000100007C817E0100000001000100A2
:100ED000010001000100000001000000000000000E
:100EE00001000100010000000000000001000100FD
:100EF00001000000000000000100010001000000EE
:100F000000000000010001000100000000000000DE
:100F100000000100010001000000010000000100CC
:100F200001000100000001000000010001000000BC
:100F300000000000000001000100210D1E0D1F0D2A
:100F4000010001000100230D0D0D200D0100010025
:100F50000100220D0E0D1D0D010001000100000019
:100F6000000000000100010001000100010001007B
:100F7000010000000100010001000100010000006B
:100F80000100000000000000010001000100477E98
:100F9000000000000100010001004A7E497E0000BF
:100FA0000100010001000000457E00000100010079
:100FB0000100827E0000000000000100010001002D
:100FC000000001000000010001000100000001001C
:100FD000000001000100000000000000000001000E
:100FE00001000000010000000100010001000100FB
:100FF00000000000010001000100000000000000EE
:1010000001000100010000000000000001000100DB
:1010100001000100010001000100000001000100C9
:1010200001000100010000000100000000000000BC
:1010300001000100010000000000000001000100AB
:10104000010001000000000001000100010000009B
:10105000010000000100010001000000000000008C
:10106000000001000100010000000100000001007B
:10107000010001000000010000000100010000006B
:101080004C7E0000000001000100190D160D170D27
:101090000100010001001C0D090D180D01000100E7
:1010A00001001A0D080D150D0100010001000000DE
:1010B000000000000100010001000100010001002A
:1010C000010000000100010001000100010000001A
:1010D000010000000000000001000100010000000C
:1010E00000000000010001000100000000000000FD
:1010F00001000100010000000000000001000100EB
:1011000001000000000000000000010001000100DB
:1011100000000100000001000100010000000100CA
:1011200000000100010000000000000000000100BC
:1011300001000000000000000100010001000000AB
:10114000000000000100010001000000000000009C
:10115000010001000100000000000000010001008A
:101160000100010001000100010000000100010078
:10117000010001000100000001000000000000006B
:10118000010001000100000000000000010001005A
:10119000010000000000000001000100010000004B
:1011A000000000000100010001000000000000003C
:1011B000000001000100010000000100000001002A
:1011C000010001000000010000000100010000001A
:1011D000000000000000010001000000000000000D
:1011E00001000100010000000000000001000100FA
:1011F00001000000000000000100010001000000EB
:1012000000000000010001000100010001000100D8
:1012100001000000010001000100010001000000C8
:1012200001000000000000000100010001004F7EED
:10123000507E0000010001000100000000000000DD
:101240000100010001000000000000000100010099
:10125000010000000000000000000100010001008A
:101260000000010000000100010001000000010079
:10127000000001000100000000000000000001006B
:10128000010000000000000001000100010000005A
:10129000000000000100010001000000000000004B
:1012A0000100010001000000000000000100010039
:1012B0000100010001000100010000000100010027
:1012C000010001000100000001000000000000001A
:1012D00001000100010000005A7E00000100010031
:1012E00001000000587E0000010001000100000024
:1012F00001000000010001000100000000000000EA
:1013000000000100010001000000010000000100D8
:1013100001000100000001000000010001000000C8
:1013200000000000000001000100000001000000BA
:101330000100010001000000577E000001000100D3
:1013400001000000597E00000100010001000000C2
:101350000000000001000100010001000100010087
:101360000100000001000100010001000100000077
:101370000100000000000000010001000100000069
:10138000000000000100010001000000000000005A
:101390000100010001000000000000000100010048
:1013A0000100000000000000000001000100010039
:1013B0000000010000000100010001000000010028
:1013C000000001000100000000000000000001001A
:1013D0000100000000000000010001000100000009
:1013E00000000000010001000100000000000000FA
:1013F00001000100010000000000000001000100E8
:1014000001000100010001000100000001000100D5
:1014100001000100010000000100000000000000C8
:1014200001000100010000000000000001000100B7
:1014300001000000000000000100010001000000A8
:101440000000000001000100010000000000000099
:101450000000010001000100000001000000010087
:101460000100010000000100000001000100000077
:10147000000000000000010001000000000000006A
:101480000100010001000000000000000100010057
:101490000100000000000000010001000100000048
:1014A0000000000001000100010001000100010036
:1014B0000100000001000100010001000100000026
:1014C00001000000E1000000010001000100E30054
:1014D000E000E0080100010001000000E2001C52F1
:1014E000010001000100000000000C0DDD00010002
:1014F00001000000000000000000010001000100E8
:1015000000000100000001000100010000000100D6
:1015100000000100010000000000000000000100C8
:1015200001000000CF000000D20001000100CD004A
:10153000CE001C520100005201000000D00000004B
:101540000100010001000000D100000001000100C5
:101550000100010001000100010000000100010084
:101560000100010001000000010000000000000077
:101570000100010001000000000000000100010066
:101580000100000000000000010001000100000057
:101590000000000001000100010000000000000048
:1015A0000000010001000100000001000000010036
:1015B0000100010000000100000001000100000026
:1015C0000000000000000100010000000000000019
:1015D0000100010001000000000000000100010006
:1015E00001000000000000000100010001000000F7
:1015F00000000000010001000100010001000100E5
:1016000001000000010001000100010001000000D4
:1016100001000000E1000000010001000100E30002
:10162000E000E0080100010001000000E20000000D
:10163000010001000100000000000C0D010001008C
:101640000100000000000000000001000100010096
:101650000000010000000100010001000000010085
:10166000000001000100807E000000000000010079
:1016700001000000DB000000010001000100D900B2
:10168000DA0000000100010001000000DC000000A1
:101690000100010001000000000000000100010045
:1016A0000100010001000100010000000100010033
:1016B0000100010001000000010000000000000026
:1016C0000100010001000000000000000100010015
:1016D0000100000000000000010001000100000006
:1016E00000000000010001000100000000000000F7
:1016F00000000100010001000000010000000100E5
:1017000001000100000001000000010001000000D4
:1017100000000000000001000100000000000000C7
:1017200001000100010000000000000001000100B4
:1017300001000000000000000100010001000000A5
:101740000000000001000100010001000100010093
:101750000100000001000100010001000100000083
:101760000100000000000000010001000100000075
:101770000000000001000100010000000000000066
:101780000100010001000000000000000100010054
:101790000100000000000000000001000100010045
:1017A0000000010000000100010001000000010034
:1017B0000000010001000000000000000000010026
:1017C0000100000000000000010001000100000015
:1017D0000000000001000100010000000000000006
:1017E00001000100010000000000000001000100F4
:1017F00001000100010001000100000001000100E2
:1018000001000100010000000100000000000000D4
:1018100001000100010000000000000001000100C3
:1018200001000000000000000100010001000000B4
:1018300000000000010001000100000000000000A5
:101840000000010001000100000001000000010093
:101850000100010000000100000001000100000083
:101860000000000000000100010000000000000076
:101870000100010001000000000000000100010063
:101880000100000000000000010001000100000054
:101890000000000001000100010001000100010042
:1018A000010000006C6566742073696465206174D2
:1018B0007461636865640A006C65667420736964AA
:1018C00065206E6F7420726573706F6E64696E67E9
:1018D0000A00747279696E6720746F20726573658F
:1018E00074206D637032333031380A000A002530BD
:1018F0003862003A200025303258000A722F6320E7
:1019000030313233343536370A000631FF0974A1DD
:10191000010975150026FF009520750881020976DA
:10192000150026FF00952075089102C00501098069
:10193000A101850319012AB700150126B7009501F9
:1019400075108100C0050C0901A101850419012A47
:10195000A002150126A002950175108100C00501A5
:101960000906A1018506050719E029E715002501EB
:101970009508750181020507190029EF1500250159
:1019800095F0750181020508190129059505750174
:101990009102950175039101C005010902A1010998
:1019A00001A10005091901290815002501950875EF
:1019B0000181020501093009311581257F950275E4
:1019C00008810609381581257F950175088106056E
:1019D0000C0A38021581257F950175088106C0C063
:1019E00005010906A101050719E029E715002501F0
:1019F0009508750181029501750881010507190097
:101A000029FF150026FF00950675088100050819B5
:101A1000012905950575019102950175039101C094
:101A20005B435D005B445D005B535D005B575D00A5
:101A30005B525D0009027400040100A0FA09040071
:101A400000010301010009211101000122400007EA
:101A500005810308000109040100010301020009D6
:101A60002111010001224700070582030800010936
:101A70000402000103000000092111010001226D90
:101A8000000705830320000109040300020300008E
:101A90000009211101000122220007058403200012
:101AA00001070504032000011201000200000008E4
:101AB00097327449010001020001160345007200CB
:101AC00067006F0044006F007800200045005A0056
:101AD000000028035A005300410020005400650014
:101AE000630068006E006F006C006F006700790093
:101AF00020004C0061006200730000000403090430
:101B000001010400010105000101060001010700B7
:101B100001010800290A002575002F002575005DC8
:101B20002800256400200025640020002564002092
:101B3000002564007C0025303258006D6F75736598
:101B40006B6579205B62746E7C78207920762068E2
:101B50005D287265702F61636C293A205B0000007C
:101B60000000000000000000000000000000000075
:101B70000000000000000000000000000000000065
:101B800000007E0F00D4FFFFFFC7000000780000B8
:101B90000000000000002A2B2800000000000000C8
:101BA00000000000000000000029000000002C1EC2
:101BB0003420212224342627252E362D3738271E7F
:101BC0001F202122232425263333362E37381F04A5
:101BD00005060708090A0B0C0D0E0F10111213143D
:101BE00015161718191A1B1C1D2F3130232D3504FB
:101BF00005060708090A0B0C0D0E0F10111213141D
:101C000015161718191A1B1C1D2F3130354C1124AD
:101C10001FBECFEFDAE0DEBFCDBF11E0A0E0B1E044
:101C2000E4E2F7E602C005900D92A236B107D9F7BB
:101C300026E0A2E6B1E001C01D92A838B207E1F7A4
:101C40000E9474170C9490330C940000FF93EF9350
:101C5000E0916201F0916301309709F00995EF91ED
:101C6000FF910895FC018591803011F0EFDFFBCFEB
:101C70000895FF27E0E230E247FF0CC0419597FF4F
:101C800009C0EDE26095709580959095611D711D7C
:101C9000811D911D27FF02C0219530E350E2AA2744
:101CA000660F771F881F991FAA1FA41710F0A41B87
:101CB00063955A95A9F7AA3008F0A95FA05DAF9384
:101CC000F395611571058105910541F7ED3211F428
:101CD000EF93F395F21718F43F93F395FBCF8F91A1
:101CE000B5DFFA95E1F70895E991F9918591803092
:101CF00021F0853219F0AADFF9CF089520E0E894A9
:101D000055915532C1F3503311F4689455915A33BB
:101D100048F4505390F3220F022E220F220F200D71
:101D2000250FF4CF0EF4219589919991533619F32B
:101D3000533729F1533559F1BC0188279927E89485
:101D40005C3621F48991999168945591543639F40F
:101D500046EF7EF077FF0DC08FEF9FEF0AC055373B
:101D60004AE039F0583540E121F0523642E009F0BE
:101D70000895FF93EF937DDFEF91FF91B7CFFF932E
:101D8000EF93FC0181918030B9F360DFFBCFFF93CB
:101D9000EF9368DFF1CFDF93CF93CDB7DEB7259612
:101DA000A3DFCF91DF910895A0E0B0E0EAEDFEE07F
:101DB0000C94AF31FC018481882309F494C77F011E
:101DC00021E0408151816281738195810E949D262D
:101DD000EC018091E404811149C0F70185818111F2
:101DE00020C4C435FCE7DF0731F1A0F4C3358CE72C
:101DF000D80709F0AAC081E00E94B5290E9491206D
:101E00000E94822084E691E090933A0680933906FE
:101E100081E01FC0C6359CE7D907F1F0C735ECE774
:101E2000DE0709F092C060910601709107014FEF43
:101E30008DED94E018C08FEF0E94B5290E9491208B
:101E40000E9482208DED94E090933A0680933906AB
:101E500082E08093E404D3C360910801709109018A
:101E600041E084E691E00E94D42CC9C39E01235531
:101E70003C472330310508F051C091E0C535DC47BF
:101E800009F490E0F7012581291709F4B8C38130DE
:101E9000A1F0823009F03FC0C0913906D0913A06D6
:101EA0001092F8046091250670912606809127060D
:101EB000909128060E94682726C0C0913906D091CB
:101EC0003A061092F80460912506709126068091DA
:101ED0002706909128060E946827F1E0C436DF07A4
:101EE00039F0FE0137978581882311F0EF01F5CF96
:101EF000D0930901C09308010EC0FE013796858179
:101F0000882329F0EF0124E0CD3DD207B1F7D0932B
:101F10000701C09306011092E40471C3813059F0A7
:101F2000823099F4609108017091090197014FEF97
:101F30008DED94E008C06091060170910701970152
:101F400041E084E691E00E94A430C115FEE7DF077E
:101F500009F040C0F70185818823E1F19091E70401
:101F600081E0890F8770987F853020F4892B8093DA
:101F7000E70402C09093E7048091E7048770FFEFC5
:101F80008F9FC001112495958795959587959927E1
:101F9000909389008093880090938B0080938A00AF
:101FA00090938D0080938C004091E7045091E80459
:101FB0006091E9047091EA048FE090E00E941A3287
:101FC000609125067091260680912706909128063B
:101FD0000E946827F70185811F928F9381811F924C
:101FE0008F9380811F928F93DF936C2ECF938DE719
:101FF00093E09F938F930E94CB0E8DB79EB70A9666
:102000000FB6F8949EBF0FBE8DBFF7018581882360
:1020100009F4C2C1FE01EB56FE47E131F10508F0BB
:102020005DC0EA5AFF4F0C945C3288EE91E053C0D9
:1020300081EE91E050C08AED91E04DC086ED91E0D7
:102040000E94F92F43E856E264E170E080E090E0FE
:102050000E94942F43E856E21DC082ED91E00E9459
:10206000F92F43E856E264E170E080E090E00E94DE
:10207000942F4BE756E20EC08EEC91E00E94F92FB0
:1020800043E856E264E170E080E090E00E94942F23
:1020900043E756E268E270E080E090E00E94942F0F
:1020A0004CC087EC91E017C080EC91E014C086EB47
:1020B00091E011C08FEA91E00EC088EA91E00BC078
:1020C00081EA91E008C08AE991E005C083E991E0E6
:1020D00002C08CE891E00E94F92F2FC0CC37FEE7B8
:1020E000DF0739F0CD372EE7D20741F48AEF91E0D0
:1020F00002C083EF91E00E94F92F4FC0CA368EE7ED
:10210000D80799F038F4C936EEE7DE07B1F486E176
:1021100092E010C0C637FEE7DF0751F0C7372EE761
:10212000D20759F488E092E005C08FE092E002C047
:1021300081E092E00E94F92F4FC0FE01ED55FE476D
:10214000EC30F10550F5E959FF4F0C945C328AE60A
:1021500092E020C083E692E01DC08CE592E01AC0B8
:1021600085E592E017C08EE492E014C087E492E027
:1021700011C080E492E00EC089E392E00BC082E3DC
:1021800092E008C08BE292E005C084E292E002C0D7
:102190008DE192E00E94F92F2FC0C0358EE7D8075D
:1021A00099F038F4CF34EEE7DE07B1F486E892E038
:1021B00010C0C135FEE7DF0751F0C2352EE7D20768
:1021C00059F48FE792E005C088E792E002C081E70A
:1021D00092E00E94F92F43C0CB358EE7D80739F043
:1021E000CC359EE7D90741F48DE892E002C084E93E
:1021F00092E00E94F92F52C0FE01E154FE47ED30FB
:10220000F10568F5ED58FF4F0C945C3285E193E0E1
:1022100023C089E093E020C089EF92E01DC08EEEDC
:1022200092E01AC087EE92E017C08EED92E014C0E3
:1022300085ED92E011C08BEC92E00EC081EC92E053
:102240000BC082EB92E008C08BEA92E005C084EA02
:1022500092E002C08BE992E00E94F92F3EC0C8359F
:10226000EEE7DE0799F038F4C7352EE7D207B1F470
:1022700081E393E010C0C9358EE7D80751F0CA3525
:102280009EE7D90759F48CE193E005C08AE293E018
:1022900002C083E293E00E94F92F28C0C435EEE724
:1022A000DE07B1F038F4C3352EE7D207B1F482E48B
:1022B00093E010C0C5358EE7D80739F0C6359EE7E4
:1022C000D90759F48CE493E005C086E593E002C099
:1022D00088E393E00E94F92F17C0CE34EEE7DE07C3
:1022E00029F480E693E00E94F92F56C0C034FEE73F
:1022F000DF0751F42FEF84E39CE0215080409040B1
:10230000E1F700C000007FC0C038EEE7DE07E9F16A
:1023100058F4CE372EE7D207F1F0CF378EE7D80743
:10232000D9F586E793E019C0C2389EE7D907C1F016
:10233000C338EEE7DE0781F587E693E00E94F92FC8
:1023400043E856E264E170E080E090E00E94942F60
:1023500043E656E213C08FE693E00E94F92F53C084
:102360008BE693E00E94F92F43E856E264E170E0C7
:1023700080E090E00E94942F4BE656E268E270E025
:1023800080E090E00E94942F3EC060E070E080E02A
:1023900094E00E94012037C0FE01E851FC47E7307D
:1023A000F10588F5E058FF4F0C945C3206E221EE0F
:1023B00041EE6AE17CE723C007E225EE45EE6BE1E2
:1023C0007CE71DC006E221EE40EE68E17CE717C025
:1023D00007E225EE44EE69E17CE711C006E221EE5A
:1023E00042EE6CE17CE70BC007E225EE46EE6DE1C4
:1023F0007CE705C008E221E045EE6EE17CE7C7011D
:102400000E946B2CFCC0F7018581882309F480C1F0
:1024100010922B06CE019057839708F0DBC084E022
:1024200090E00E94F2319093370680933606FE01C9
:10243000E150F047E232F10520F4E957FF4F0C94E8
:102440005C32809136068160ACC08091370688602E
:10245000B4C0809136068260A4C08091360620C048
:102460008091360688609DC0809137061EC080919D
:1024700037068260A2C080913606806192C080914A
:10248000360680628EC08091360680648AC00E94C3
:10249000912080913606806884C0809136068860DD
:1024A00084607FC0809137068260816086C08091A1
:1024B00036068E7F76C080913706877F7EC08091FA
:1024C00036068D7F6EC08091360620C0809136061C
:1024D000877F67C0809137061EC0809137068D7F49
:1024E0006CC0809136068F7E5CC0809136068F7DF1
:1024F00058C0809136068F7B54C00E9491208091F5
:1025000036068F774EC080913606877F8B7F49C015
:10251000809137068D7F8E7F50C08091360682FB7A
:10252000222720F991E0922790FB82F990FB83F912
:1025300038C080913706982F909591708E7F892BA7
:1025400090FB81F93AC08091360686FB222720F95C
:1025500091E0922790FB86F924C00E9491208091FF
:10256000360687FB222720F991E0922790FB87F916
:1025700018C061E001C060E08EE090E00E94083287
:102580001EC08091360684FB222720F991E0922715
:1025900090FB84F906C080913606982F909590FBA9
:1025A00080F9809336060BC08091370683FB222783
:1025B00020F991E0922790FB83F980933706609190
:1025C00036067091370684E090E00E9426320E9421
:1025D000912015C0C6312CE7D20749F58091E4055A
:1025E0008A7A91E009F490E09093E50481116DC33B
:1025F00069E289E295E00E94DF2B0E94EB1C80914A
:10260000C105877009F46FC3F7018581882309F438
:102610006AC38091370682FF66C382E00E9432203F
:1026200062C3C115FEE7DF0709F498CCD3CCC330F1
:10263000FCE7DF0709F457C048F4C1158CE7D80759
:10264000A9F0C130DC4709F454C066C0CB35ECE7D3
:10265000DE0709F459C0CC35FCE7DF0709F44CC0AC
:10266000CA35DC4709F058C081E04FC00E94912074
:102670008FEF94E3ECE081509040E040E1F700C040
:102680000000F89481E08093E00080E28093D8001D
:102690001092C9008FE19EE40197F1F700C000009D
:1026A0001DBA109268001CBC10BE1FBA10927A00AE
:1026B00010926E0010926F001092710010927200D2
:1026C0001092C9001092BC0014B817B81AB81DB8FF
:1026D00010BA1092BC0015B818B81BB81EB811BAC1
:1026E0000C94003F8CCF6FEF7FEF80E090E00E9472
:1026F00026320E94522783CF8091370682FB88279B
:1027000080F991E0892701C080E00E94492004C03F
:10271000C631DC4709F4DBC2F7018581C081D18174
:10272000882349F0CE010E94A31D182F682FCE01E7
:102730000E94CB1F04C0CE010E94961F182FBE011D
:10274000812F0E9457170E94C71BD82FC92FC82E50
:10275000F7011581D680D2945FE0D5228091C10522
:102760008770E1F01123D1F0892F807F803451F000
:1027700080E28D0F883090F0D11004C0892F807EC8
:10278000803261F08091370682FF08C082E00E94AB
:1027900032208091C105877001E009F000E0BC2E75
:1027A000B2944FE0B4228B2D90E08C30910508F06C
:1027B00064C2FC01E755FF4F0C945C328C2F807F84
:1027C000CF70882311F0C295C07F1123B9F0CC23BC
:1027D00009F440C280E28D0F883010F0C11006C0AD
:1027E0009091E405C92BC093E40505C09091E305E1
:1027F000C92BC093E3050E94EB1C2CC28D2F0E94B5
:10280000D120CC2309F439C2D05ED83080F1CC205D
:1028100071F1C0959091E305C923C093E3052AC0E7
:102820008C2F807FCF70803211F0C295C07FCC207A
:1028300029F0F1E0CF1609F44DC057C0809137065A
:1028400082FD1BC0112369F0CC2339F09091E4057F
:10285000C92BC093E4050E94EB1C80E00E94D02E9F
:102860000CC280E00E94D120CC2309F406C28C2F38
:102870000E94E41C0E94EB1C00C2112389F0DD20A1
:10288000C1F166246394D610F8C19091E2058C2FB3
:102890008923C81709F4F1C1C92BC093E205EDC122
:1028A000D110EBC18C2F0E94C0208091E2059C2F9B
:1028B000982329F09C2F909589238093E20580919D
:1028C000E6049C2F982309F4D8C1C0958C238093EB
:1028D000E604D3C1112331F0772473947D1408F4F6
:1028E000CCC107C0D110C9C115C0112331F0D1101E
:1028F000B1C18C2F0E94C720C0C1DD2059F0D9334F
:1029000009F0B8C12FEF87EE93E02150804090404E
:10291000E1F7AEC18C2F0E94C020AFC18C2F8695ED
:102920008695837019F0813061F0A7C1112321F0E1
:102930008D2F9C2F937002C080E090E00E94392C74
:10294000A2C1112321F08D2F9C2F937002C080E033
:1029500090E00E94142C97C1612F8D2F0E94F82DBA
:1029600092C18C2F837009F068C011118AC19D2F0C
:10297000929596959770990F990F8D2F8F70882E3D
:10298000912CA12CB12C092E04C0880C991CAA1CD6
:10299000BB1C0A94D2F7D4FF12C04FE050E060E0B5
:1029A00070E004C0440F551F661F771F9A95D2F739
:1029B000DB01CA0180959095A095B09503C080E099
:1029C00090E0DC01C695C695C370C23019F1C8F419
:1029D0004090EB045090EC046090ED047090EE0495
:1029E000C13059F088299929AA29BB29BC01CD01F8
:1029F00064217521862197210AC084289528A6285C
:102A0000B728BC01CD01682979298A299B290E9410
:102A1000882037C188299929AA29BB298090EB04ED
:102A20009090EC04A090ED04B090EE04BC01CD01B8
:102A3000682579258A259B25EACF112319F08C2F4B
:102A4000817001C08695882309F41BC19D2F929542
:102A500096959770990F990F8D2F8F70882E912CC6
:102A6000A12CB12C092E04C0880C991CAA1CBB1CDB
:102A70000A94D2F7D4FF12C04FE050E060E070E05B
:102A800004C0440F551F661F771F9A95D2F7DB01CC
:102A9000CA0180959095A095B09503C080E090E024
:102AA000DC01C695C695C370C230D9F068F5409078
:102AB0002506509026066090270670902806C130A3
:102AC00059F088299929AA29BB29BC01CD01642183
:102AD0007521862197211EC084289528A628B7280D
:102AE00013C088299929AA29BB298090250690908E
:102AF0002606A0902706B0902806BC01CD016825C7
:102B000079258A259B2506C0BC01CD016829792934
:102B10008A299B290E940120B4C0CF70112339F06B
:102B20008C2F0E9460208D2F0E94C720AAC08D2F5D
:102B30000E94C0208C2F0E940C20A3C08D2FE2EF9A
:102B4000CE1609F446C0EC1540F0F0EFCF1679F040
:102B500031EF632EC614C1F178C023EF722EC71473
:102B600009F43EC094EF892EC81451F16EC01123B0
:102B700009F1D11082C0CF7181E090E0A0E0B0E017
:102B8000AC01BD0104C0440F551F661F771FCA95D5
:102B9000D2F78091250690912606A0912706B09144
:102BA00028063A014B01682679268A269B26C4010D
:102BB000B30126C0772473947D1408F45EC0DBCF84
:102BC0008091370682FD22C0112329F08C2F8F714E
:102BD0002FC01123D9F38C2F8F710E940C204DC070
:102BE000112389F0CF7181E090E0A0E0B0E0BC015A
:102BF000CD0104C0660F771F881F991FCA95D2F7B1
:102C00000E9401203AC00E94822037C0112399F00F
:102C1000CF718C2F0E9460208091370682FF07C001
:102C200028E0C29FC001112483608093C1058C2FCE
:102C30000E94602022C081E00E94322081E08D1538
:102C4000E0F482E00E94322018C0112329F0DD2038
:102C500009F4BCCF8D2F02CEDD2009F4BCCF89331F
:102C600049F49FEFE7EEF3E09150E040F040E1F7E8
:102C700000C000008D2F0E94D12088EF8B0D843082
:102C800010F40E945E2C0023A9F08091C10580FD04
:102C900011C0F70115828695869586950E94602061
:102CA000C7010E94D40E8091C105869586958695B0
:102CB0000E940C2020E0F7014081518162817381E4
:102CC000848195810E949D260EC065E392CC8091FF
:102CD000E504811106C069E289E295E00E94B72B04
:102CE0008CCC65E3F9CFCDB7DEB7E0E10C94CB3106
:102CF0009091360692FF0DC0282F2871283019F4C4
:102D0000877F846006C0282F2471243011F48B7FC4
:102D1000886093FF0DC0282F2871283119F4877E11
:102D2000846106C0282F2471243111F48B7E8861C0
:102D30002091370620FF0DC0382F3871383019F434
:102D4000877F816006C0382F3171313011F48E7F5A
:102D5000886021FF0DC0282F2871283119F4877E43
:102D6000816106C0282F2171213111F48E7E886186
:102D700094FD877E08958238910569F1B0F481331E
:102D8000910509F475C048F48932910509F467C0CA
:102D90008A32910509F471C008958533910509F4CB
:102DA00059C089339105B9F00895833E910589F1A1
:102DB00038F4803E9105D1F0823E910529F10895C5
:102DC000863E9105C9F1873E9105D9F1843E910572
:102DD00009F06CC027C02091360620FD57C021FDA8
:102DE00055C02091370623FD5BC0089580913606BB
:102DF00080FD48C08091370680FF48C0809136062C
:102E000084FD46C083EE51C08091360682FF3CC0EF
:102E1000F5CF8091360682FD37C08091370680FD60
:102E200035C0ECCF8091370681FF36C080913606E1
:102E300084FD2EC087EE39C08091360683FF2AC0FC
:102E4000F5CF8091360683FD25C08091370681FD40
:102E500023C0ECCF8091360685FD22C01FC0809133
:102E6000360685FD1BC08091370683FF19C00AC056
:102E70008091360686FD16C017C08091360686FD05
:102E800013C010C089E311C082EE0FC080EE0DC0E8
:102E900080E00BC086EE09C084EE07C085E305C064
:102EA00089E203C08AE201C081E390E008957E30A8
:102EB000B0F46630A0F48032A0F494E5899FF0016C
:102EC000112486E0789FE00DF11D1124E60FF11D1D
:102ED000EE0FFF1FEC55FC4F85919491089580E013
:102EE00001C081E090E00895ADE0B0E0EAE7F7E1ED
:102EF0000C94AD3185B7806885BF85B7806885BF84
:102F000084B7877F84BF0FB6F894A895809160003E
:102F1000886180936000109260000FBE90E080E8AE
:102F20000FB6F89480936100909361000FBE80EC1F
:102F300099E290936301809362010E9487240E942A
:102F4000A6248091E20084608093E20078948091CE
:102F50000E068823A1F01091E9001F709091EC00FB
:102F6000892F817090FD80E8182B1092E9008091E4
:102F7000E80083FD0E9478211F701093E90082E031
:102F800084BD93E095BD9AEF97BD80936E000E943B
:102F90004C2890E090931301809312010E946F29B6
:102FA0008098889A8198899A84988C9A85988D9A25
:102FB00086988E9A87988F9AA7E0B5E0E9EFF4E0BB
:102FC00011921D9225E0E730F207D1F78EE090E0F4
:102FD0000E9462328093F0049093F104FC010E96FB
:102FE00011928E179F07E1F789EA8093800089E0AC
:102FF0008093810024982C983F988AB18F7C8AB95D
:103000006E98479A8BB180638BB9769A8FE090E087
:103010000E94EC316093E7047093E8048093E90424
:103020009093EA0467703FEF639FB0011124759598
:1030300067957595679577277093890060938800E9
:1030400070938B0060938A0070938D0060938C0066
:103050000E94C32880E090E00E94F231863E9E4F9D
:1030600009F479C066EE7EEF80E090E00E9426329F
:1030700060E082E090E00E94083260E083E090E04F
:103080000E9408321092EB041092EC041092ED04AE
:103090001092EE0460E074E184E090E00E94263239
:1030A00060E086E090E00E9408326FEF87E090E0F9
:1030B0000E94083240E050E0BA0188E090E00E94AF
:1030C0001A3260E084E290E00E94083260E087E11A
:1030D00090E00E94083260E08CE090E00E940832AC
:1030E00060E08DE090E00E94083219821A821B8213
:1030F0001C821D821E821F82188648E050E068E113
:1031000070E0CE0101960E94F83140E050E0BA0133
:1031100080E290E00E941A321092E7041092E804D4
:103120001092E9041092EA0484E080618093E7043D
:103130004091E7045091E8046091E9047091EA0439
:103140008FE090E00E941A3240E050E0BA0183E143
:1031500090E00E941A3282E090E00E94E431809375
:103160001B0684E090E00E94F23190933706809332
:10317000360683E090E00E94E431682F70E080E042
:1031800090E00E948820609125067091260680912B
:103190002706909128060E9468278AE091E0909384
:1031A0002F0680932E0636EF632E38E1732E5524BA
:1031B000539443E2842E45E0942E80911201909125
:1031C0001301892BC1F08091EF048F5F8093EF048E
:1031D000811111C082ED98E10E94320E0E944C28AC
:1031E00090E09093130180931201892B49F088EBB2
:1031F00098E10E94320E09EF14E0F12CE12C1CC082
:1032000084EA98E10E94320E0E94C328F4CFB12CC8
:103210008A2D0E947E298F73F8019781891709F101
:10322000878381E0B82AFB280E946F29E3940F5F0F
:103230001F4FF7E0EF16B9F027E0A22EAE0C8E2D4F
:103240000E941B298A2D0E941B298E2D0E947E29F7
:103250008F73D8019C918917D1F28C93BB24B394BE
:10326000D7CF80E0DFCF1092F6041091F504112340
:10327000C9F10E94862B2091F3043091F404AC0133
:10328000421B530B9A019093F4048093F3044F3F35
:10329000510509F020F4452B09F450C202C02FEF6C
:1032A00030E01092F5041092F204E091F004F091F5
:1032B000F104AF01425F5F4F90E030E080818823EE
:1032C00041F0281718F01082912F03C0821B8083D1
:1032D000312F3196E417F50789F73093F504909371
:1032E000F2042CC2FF2009F420C20E94862B909386
:1032F000F4048093F304E091F004F091F104609100
:10330000F6048091F504AF01425F5F4F09EF14E0CE
:1033100027E035E0D8017C91D9019C91971791F075
:10332000908191110FC0BEE1B083D9017C93D80187
:103330008C917827862F90E0872B61E0892B09F408
:1033400060E081E031962F5F3F4F0F5F1F4FE41722
:10335000F50701F76093F6048093F5048091F80473
:10336000882369F025982D988091F7048F5F8093CA
:10337000F704853610F0259A2D9A0E94862B95E148
:10338000E92E95E0F92EA7E0B5E0F70191918D9136
:1033900089278E169F0619F08823C1F305C0811175
:1033A00003C00E9454216AC080911B0681FD04C0A5
:1033B00007E015E0B12C30C08BEF98E10E94320E8F
:1033C00087E0A82E85E0B82E00E010E01F930F9351
:1033D0007F926F920E94CB0E83EF98E10E94320E93
:1033E000F50181915F010E948B261F928F932EEE33
:1033F00038E13F932F930E94CB0E8CEE98E10E9410
:10340000320E0F5F1F4F0FB6F894DEBF0FBECDBF59
:103410000E301105D9F6CCCFD8012D908D01F701D2
:103420003080322411F1A12C44244394832D842133
:10343000A9F0A982BA820E94862B9C838B83F1E03B
:10344000FD8391E0822D842109F490E09E834981DF
:103450005A816B817C818D810E94C226A394440C89
:1034600026E0A212E3CFD7012C92B394BFEFEB1A60
:10347000FB0AEEE0BE12D0CF0E947A2B85E0E0E29C
:10348000F6E0DE01199601900D928A95E1F710920F
:1034900021061092220610922306109224061A8505
:1034A000111104C08B85882309F44BC080911E063E
:1034B00090911F060E946B2B459708F442C08091A3
:1034C0001A068F3F19F08F5F80931A06112361F05F
:1034D0000E94D62D111614F09FEF01C091E0899F34
:1034E000802D1124809321061B85112361F00E94F9
:1034F000D62D111614F09FEF01C091E0899F802D09
:10350000112480932206309121063323D1F020919B
:1035100022062223B1F045EB3403C0011124992384
:1035200019F09093210602C05092210655EB250315
:10353000C0011124992319F09093220602C05092E1
:1035400022061C85111104C08D85882309F450C002
:1035500080911C0690911D060E946B2B9C019091FE
:103560002305992309F4EEC02333310508F440C044
:103570009F3F19F09F5F90932305112361F00E94F4
:10358000B42D111614F09FEF01C091E0899F802D9A
:103590001124809323061D85112361F00E94B42D10
:1035A000111614F09FEF01C091E0899F802D112426
:1035B00080932406309123063323D1F020912406F2
:1035C0002223B1F045EB3403C0011124992319F0F3
:1035D0009093230602C05092230655EB2503C001A9
:1035E0001124992319F09093240602C050922406C6
:1035F00045E050E0BE01675F7F4F80E296E00E94A9
:103600008333892BA9F48091210681110FC0809109
:10361000220681110BC080912306811107C081E031
:1036200090912406911103C080E001C081E080FDEB
:103630000E940B2D85E0FE013996A0E2B6E00190D4
:103640000D928A95E1F70E945E2C909124058917CE
:1036500021F0809324050E947A2B0E947A2B6B0123
:103660007C018091250590912605A0912705B091B8
:103670002805A7019601281B390B4A0B5B0B121674
:103680001306140615060CF098CDC0922505D092AD
:103690002605E0922705F09228050CE316E0F6E0F7
:1036A00004381F0709F489CDD8018C918823D1F102
:1036B00011966D917D918D919C9114979B01AC0118
:1036C0002C193D094E095F0912161306140615063A
:1036D0004CF117964D915C9118971596ED91FC91D0
:1036E00016970995611571058105910581F0F8011D
:1036F0002181328143815481DC01CB01820F931FF0
:10370000A41FB51F81839283A383B4830BC0D80108
:103710001C92F80111821282138214821682158281
:1037200010861782075F1F4FBACF80E09091F20496
:10373000992309F413CE8111DECDD7CDF110DBCD65
:1037400081E0F4CF2139314008F014CF51CF2091DE
:10375000C0059091870557E02917A9F030E0529FE6
:10376000F001539FF00D1124E857FA4F7181761341
:1037700006C07081781303C07581741306C02F5F73
:103780003F4F2770E9CF80E0089581E008951F93AF
:10379000CF93DF930E94BB16EC01C11580E5D807DB
:1037A000E8F5C11590E4D90708F0A8C0C03ED105DE
:1037B00030F5CD3CD10508F094C0C83AD10578F475
:1037C000C53AD10508F083C0C130D10509F47CC0E9
:1037D00008F4F2C0C430D10508F0F1C0EDC0C33C1C
:1037E000D10508F0E9C0C85AD0E0CC0FDD1FC85E93
:1037F000DE4F0990D881C02DCE019464E1C0C1157F
:1038000080E2D80708F0CBC0C11591E0D90708F0D5
:103810006BC0C83ED10508F4D2C0CEC0C03682E528
:10382000D80728F5C03492E5D90708F079C0C0322E
:1038300082E5D80708F06CC0C11592E5D90708F4F5
:1038400081C04C2F4695469580E2489FA0011124E7
:10385000C37021E030E0C90102C0880F991FCA95EA
:10386000E2F7EA01C82BD92BCE019D68A9C0C03A66
:1038700082E5D807B8F48C2F8F71C03892E5D9074C
:1038800008F07BC08695869590E2899F900111246F
:10389000C37081E090E002C0880F991FCA95E2F7DB
:1038A0009A6868C0C03C82E5D80708F46DC0C03E85
:1038B00092E5D90708F080C0CF71DD27DC2FCC2737
:1038C000CE01806F906A7CC081E090E079C0C55ADB
:1038D000D0E0CB5EDE4F8881C82FD0E0CE0190646F
:1038E0006FC0CE0190656CC08D2F0E947816182F86
:1038F000CE0199270E94BB161F715CC0CE0199278B
:103900000E94BB16CC27DF70D06A8C2B9D2B58C031
:10391000CF71D0E0DC2FCC27CE01816F906A50C0F0
:103920008C2F8F718695869590E2899F9001112446
:10393000C37081E090E002C0880F991FCA95E2F73A
:103940009C6818C08C2F8F710E94781695E0D695D0
:10395000C7959A95E1F7CF70D0E0DC2FCC27282FC0
:1039600030E084FF05C084E0220F331F8A95E1F721
:10397000D069CE01822B932B23C090E0D82FCC2787
:10398000CE01846F906A1CC08C2F8F710E947816B4
:103990008F7190E0D82FCC27CE01906211C08D2F6F
:1039A0008F710E947816182FCE0199270E94BB169E
:1039B0001F719062912B04C080E090E001C0CE01A5
:1039C000DF91CF911F91089580959091E40589230F
:1039D0008093E40508959091E4058091E305982B88
:1039E000909329058091E2058823D9F0892B809353
:1039F000290580911401882331F08091360687FFD4
:103A000002C08EE101C086E0EBE2F5E090E081507B
:103A100028F021912223D9F39F5FF9CF91111092C1
:103A2000E20540E250E062EC75E089E295E00E9438
:103A30008333892B21F180E2E9E2F5E0A2ECB5E0E5
:103A400001900D928A95E1F7E0912E06F0912F06F4
:103A50003097A9F080911401882359F0809136069F
:103A600087FF07C08091290580932A0586E080930F
:103A700029050280F381E02D89E295E009950895FA
:103A80008091C00590918705891719F08F5F877025
:103A9000FBCF0895CF93DF938091860582958F7039
:103AA00009F04EC080918505882309F449C08091B2
:103AB000C005409187055091810560918005C091B6
:103AC0008205D091830577E08417D1F190E0789F4B
:103AD000F001799FF00D1124DF01A857BA4F149619
:103AE0002C911497222349F111962C9111972513AB
:103AF00024C02C91261321C015962C9115972111C5
:103B00001CC012962D913C9113972C1B3D0B2F3A04
:103B1000310598F4809186058F70806180938605C9
:103B2000E257FA4F80818F708061808380E895E052
:103B30000E94D40E0E94401D03C001968770C4CF1E
:103B4000DF91CF910895A0E0B0E0E9EAFDE10C94A7
:103B5000B6318C01C0902506D0902606E09027064D
:103B6000F09028068091EB049091EC04A091ED0474
:103B7000B091EE04C82AD92AEA2AFB2ACFE1D0E084
:103B8000D701C6010C2E04C0B695A79597958795C9
:103B90000A94D2F780FD04C0219790F7B12C09C098
:103BA000BC2EB8018C2F0E9457170E94C71B01978B
:103BB00099F38B2DCDB7DEB7E9E00C94D231CF93DA
:103BC000DF93EC010E94A31DBE010E9457170E94C3
:103BD000C71BDF91CF910895FC0124812223D9F0E6
:103BE000808191810E94DF1D92959F70963079F0BF
:103BF00010F4925001C09A50923068F4803F69F0FE
:103C000018F4883E40F409C0843F29F406C0883E79
:103C100020F0813F11F080E0089581E00895A4E153
:103C2000B0E0E5E1FEE10C94B3318C0186E0F801EF
:103C3000DE011F9601900D928A95E1F7F8018481CB
:103C4000E58090E8892E95E0992E90918405911158
:103C500020C0882309F463C1EE2009F442C0C801E2
:103C60000E94EC1DF82E8823E1F187E0F801D401D1
:103C700001900D928A95E1F780918405813031F4AD
:103C800080918005909181050E94DF1D0E944A1D50
:103C900048C1F801D080C180A280B380F090850532
:103CA0002091820530918305FF2009F4E7C0A5012A
:103CB000421B530B4F3A510508F09DC0882309F46D
:103CC00030C180918605282F207F90918105222385
:103CD00061F09C1509F460C0C8010E94EC1D8111BF
:103CE00063C0C8010E94D40E1AC19C1113C09091E8
:103CF00080059D110FC0E1100DC08F708061809311
:103D0000860580E895E00E94D40E80918605F80132
:103D1000868303C1E1103AC040E06C2D8D2D0E94D6
:103D2000A71B40E06C2D8D2D0E94A71BE82E811152
:103D3000F4C0DF86C88A8F8598890E94DF1D292FED
:103D400022952F70243020F49F70223028F009C073
:103D50002A50223080F014C0992349F0811107C005
:103D600013C0992321F0F8019681907F69F0805E5D
:103D7000883030F409C0803F38F0815F833020F014
:103D8000C8010E94D40EEF2CFE2CCBC0809186057A
:103D9000816080938605C1C0909180059D119CCF64
:103DA000E1109ACFF80198C0EE2009F49ACF209143
:103DB0008605822F82958F7090E002978CF080911B
:103DC00080059091810599878887BB86AA86809116
:103DD00084058C871D862E87CE0108960E94D40EFE
:103DE00087E0F801A0E8B5E001900D928A95E1F72F
:103DF0000E944A1D94C090918605292F207F51F47E
:103E000080E895E00E94D40E87E0F40111928A9533
:103E1000E9F783C0882309F484C0809181058C115F
:103E20000CC0809180058D1108C0E11006C0F8011A
:103E30009683C8010E94D40E6AC0C8010E94EC1D7E
:103E4000882309F44ECFEE2009F44BCF209186054C
:103E5000822F82958F7090E0029714F280918005F6
:103E6000909181059A838983BC82AB82809184057D
:103E70008D831E822F83CE010196B0CFA21AB30A82
:103E8000FFEAAF16B10408F042C0882309F447C026
:103E9000FE2CEE2009F425CF809181058C1129C0DC
:103EA000809180058D1125C09091860590FD18C0E8
:103EB000892F82958F70282F30E02115310581F0F0
:103EC000F80196832F30310541F08F5F982F92953E
:103ED000907F86818F70892B8683C8010E94D40EC3
:103EE00087E0F801A0E8B5E001900D928A95E1F72E
:103EF00018C0C8010E94EC1D811172CF8091860507
:103F0000816080938605C8010E94D40E0AC087E0B4
:103F1000F40111928A95E9F704C0F12C02C0FF2444
:103F2000F3948F2D6496ECE00C94CF31292F9E30C2
:103F300080F5863070F590E036E0239F800D911D6E
:103F40001124682F677023E0969587952A95E1F7ED
:103F500025E0289FF001299FF00D1124E75BFA4F1F
:103F600040E050E080E0219130E0062E02C036951E
:103F700027950A94E2F721703327042E01C0220FFF
:103F80000A94EAF7822B4F5F5F4F4530510559F78E
:103F9000089580E00895292F9E3090F5863080F5B1
:103FA00090E036E0239F800D911D1124282F27706B
:103FB00051E001C0550F2A95EAF723E096958795C1
:103FC0002A95E1F725E0289FF001299FF00D1124A3
:103FD000E75BFA4F20E030E070E04081CB01022E39
:103FE00002C0969587950A94E2F78170819584279F
:103FF0008523842781932F5F3F4F2530310569F753
:1040000008950E9468276093250670932606809382
:1040100027069093280608950F931F9341E050E0E0
:1040200060E070E004C0440F551F661F771F8A953B
:10403000D2F74095509560957095809125069091A6
:104040002606A0912706B09128068A019B01082325
:1040500019232A233B23C901B8010E9401201F9183
:104060000F9108959091C105809589238093C10592
:10407000282F277069F4981759F09091370692FF0E
:1040800007C08695869586950E940C201092C105E2
:1040900008959091370692FB222720F9281779F08E
:1040A00080FB92F99093370660913606709137063F
:1040B00084E090E00E94263282E00E94322008953F
:1040C0000F931F9341E050E060E070E004C0440FA4
:1040D000551F661F771F8A95D2F78091250690910C
:1040E0002606A0912706B09128068A019B01082B7D
:1040F000192B2A2B3B2BC901B8010E9401201F91CB
:104100000F91089560E070E0CB010E9401200895B6
:104110006093EB047093EC048093ED049093EE04B1
:1041200008951092E40580911401882331F0809164
:10413000360687FF02C08EE101C086E0EBE2F5E0C3
:10414000DF011D928A95E9F780E090E00E94392C0A
:1041500080E090E00E94142C1092E3050E94EB1C7A
:10416000E0E2F6E085E0DF011D928A95E9F7109222
:104170001A0610922305109219060E940B2D08951D
:10418000882321F00E94E41C0E94EB1C08958823E0
:1041900039F09091E405892B8093E4050E94EB1C93
:1041A0000895882309F460C0823869F40E945E2C67
:1041B00081FF5AC069E389E295E00E94DF2B0E94EB
:1041C000EB1C69E30EC0833899F40E945E2C80FFDB
:1041D0004BC063E589E295E00E94DF2B0E94EB1C57
:1041E00063E589E295E00E94B72B0E94EB1C0895DD
:1041F000843869F40E945E2C82FF36C067E489E24D
:1042000095E00E94DF2B0E94EB1C67E4EACF9CEF55
:10421000980F913A10F4682FE4CF90E2980F9830FD
:1042200050F4877091E001C0990F8A95EAF7892FC1
:104230000E94E41CDACF9BE5980F933028F480E0CD
:1042400090E00E94392C089598E5980F9B3128F44E
:1042500080E090E00E94142C089593E3980F93312E
:1042600018F460E00E94F82D08951F93CF93DF9318
:10427000182F893319F0C0E0D0E002C0C0E5D0E0CB
:10428000812F0E94D02E209741F08FE99FE0019767
:10429000F1F700C000002197F6CF812F0E94D120B6
:1042A000DF91CF911F910895A6E0B0E0EAE5F1E239
:1042B0000C94BB310E94862B8C018091E505909176
:1042C000E6050817190781F019821A820E94862BC9
:1042D000682F49815A81792F80E090E00E94C226A0
:1042E0001093E6050093E5052696E4E00C94D7319B
:1042F000AAE2B0E0EEE7F1E20C94BC31E0E1F6E0D6
:104300008091F100819346E0E831F407C9F780918C
:104310001106833009F463C030F4813071F08230CB
:1043200009F49DC0B4C08A3009F489C08B3009F407
:104330006EC0893009F0ABC020C080911006813A70
:1043400009F0A5C08091E800877F8093E800809104
:10435000140690911506892B21F460E28CEE95E00D
:1043600003C060E080E090E070E00E94E72A809166
:10437000E8008B778093E8008AC080911006813234
:1043800009F085C08091140690911506009719F0E8
:10439000029709F07CC08091E800877F8093E80055
:1043A0008091E80082FD05C080910E068111F8CF52
:1043B0006EC02091F3008091F20090E0922B029762
:1043C00031F48091F100813011F0863021F4809138
:1043D000F1008093EB058091E8008B7754C08091C9
:1043E0001006813A09F053C0809114069091150689
:1043F000892B09F04CC08091E800877F8093E8000A
:104400008091E80080FFFCCF8091140137C080913B
:1044100010068132E1F58091140690911506892BE2
:10442000B1F58091E800877F8093E8000E94932A8D
:1044300080911206809314010E94912028C08091DF
:104440001006813221F58091E800877F8093E80093
:104450000E94932A809113068093EA0518C08091E8
:104460001006813AA1F48091E800877F8093E800EC
:104470008091E80080FFFCCF8091EA058093F100F5
:104480008091E8008E778093E8000E94932A8091C3
:10449000E80083FFE0C18091100690911106492F3A
:1044A00050E04A30510508F0D6C1FA01EB54FF4FF5
:1044B0000C945C32803821F0823809F0CCC108C0FD
:1044C00080910C0690910D06992389F082600FC0AF
:1044D000809114068F70873008F0BDC18093E90089
:1044E0008091EB0085FB882780F91092E90090917C
:1044F000E800977F9093E8008093F1001092F1001C
:1045000071C1282F2D7F09F0A6C1882319F08230B0
:1045100061F0A1C180911206813009F09CC19330F5
:1045200009F080E080930D062EC080911206811163
:104530002AC0809114068F702FEF280F263008F0C4
:104540008AC18093E9002091EB0020FF1CC09330CA
:1045500021F48091EB00806214C09091EB00906197
:104560009093EB0021E030E0A90102C0440F551FF9
:104570008A95E2F74093EA001092EA008091EB00FE
:1045800088608093EB001092E9008091E800877FBB
:104590008093E8000E94932A5EC181115CC1109152
:1045A00012061F778091E3008078812B8093E300CF
:1045B0008091E800877F8093E8000E94932A809191
:1045C000E80080FFFCCF8091E30080688093E300E7
:1045D000111102C082E001C083E080930E063BC14E
:1045E0008058823008F037C12091120630911306AE
:1045F0002C3D53E0350779F583E08A838AE289838D
:104600004FB7F894DE01139620E03EE051E2E32F2D
:10461000F0E050935700E49120FF03C0E295EF7063
:104620003F5FEF708E2F90E0EA3010F0C79601C028
:10463000C0968D939D932F5F243149F74FBF809192
:10464000E800877F8093E8006AE270E0CE0101967F
:104650000E94E72AB5C08091140690911506432F59
:10466000552743305105A9F068F44130510509F44C
:1046700001C14230510509F0EEC084E790E0E4E367
:10468000FAE14BC04132510529F14232510589F11D
:10469000E2C0C901992781309105A1F058F0029735
:1046A00009F0D9C0EAEBFAE1E4918E2F90E0EAEB51
:1046B000FAE130C0ECEFFAE1E4918E2F90E0ECEFFC
:1046C000FAE128C0E2EDFAE1E4918E2F90E0E2ED0C
:1046D000FAE120C08430910508F0BDC0880F991F11
:1046E000FC01E65AFE4F0190F081E02D89E090E058
:1046F00014C08430910508F0AEC0FC01EE0FFF1F1E
:10470000EE5AFE4F0190F081E02DDC01A25BBE4F1E
:104710008C9190E0009709F49EC02091E800277FDB
:104720002093E80020911606309117068217930710
:1047300008F49C0140E02115310589F180910E06B5
:10474000882309F43DC08530D9F18091E80083FDCC
:1047500037C08091E80082FD2FC08091E80080FF83
:10476000EACF4091F3008091F20090E0942B211564
:10477000310559F08830910540F444914093F1009F
:104780003196215031090196F2CF41E0089709F0A6
:1047900040E08091E8008E778093E800CCCF411113
:1047A000CDCF0AC080910E06882351F0853041F0AC
:1047B0008091E80083FD04C08091E80082FFF2CF81
:1047C0008091E8008B778093E80045C0803809F03D
:1047D00042C08091E800877F8093E80080910F06B7
:1047E0008093F1008091E8008E77D2CE811133C0A2
:1047F00080911206909113069927029764F5809193
:10480000E800877F8093E8001091120610930F064E
:104810000E94932A111106C08091E30087FD02C017
:1048200081E001C084E080930E0642E061EC81E00B
:104830000E94B22A42E061EC82E00E94B22A42E287
:1048400061EC83E00E94B22A42E261EC84E00E94C3
:10485000B22A80910E068091E80083FF10C08091FB
:10486000E800877F8093E8008091EB00806280936E
:10487000EB0005C082E190E0E8EAFAE14ECFAA96AB
:10488000E3E00C94D8311F920F920FB60F921124CF
:104890002F933F934F935F936F937F938F939F9348
:1048A000AF93BF93CF93DF93EF93FF93C091E90052
:1048B000CF708091EC00D82FD17080FDD0E810929D
:1048C000E9008091F000877F8093F00078940E9447
:1048D00078211092E9008091F00088608093F000C8
:1048E000CD2BCF70C093E900FF91EF91DF91CF9175
:1048F000BF91AF919F918F917F916F915F914F91F8
:104900003F912F910F900FBE0F901F901895E8EDDB
:10491000F0E080818E7F80831092E2001092DA00B6
:104920001092E100A0EEB0E08C9181608C938081C8
:104930008F77808319BCA7EDB0E08C918E7F8C932C
:1049400080818F7E80831092E9050895A0E0B0E019
:10495000ECEAF4E20C94B731C8EDD0E088818F7EA8
:104960008883E7EDF0E080818160808384E082BF0E
:1049700081E08093E90588818E7F888302EE10E0D4
:10498000F80110821092DA0081EEC82ED12CF601C7
:10499000108288818F778883888180688883888166
:1049A0008F7D888319BC10920E0610920F0610920C
:1049B0000D0610920C0690EEE92EF12CF701808185
:1049C0008B7F808388818160888342E060E080E023
:1049D0000E94B22AF60180818E7F8083F801808157
:1049E00081608083808188608083F70180818E7FF1
:1049F0008083888180618883CDB7DEB7E8E00C943E
:104A0000D3311F920F920FB60F9211242F933F9321
:104A10004F935F936F937F938F939F93AF93BF93C6
:104A2000EF93FF938091E10082FF49C08091E20003
:104A300082FF45C08091E1008B7F8093E10020914F
:104A4000E8052F5F822F62E30E943C32992319F020
:104A50002093E80534C01092E8058091E70588238B
:104A600071F180910E06843041F58091E9008F70DC
:104A70002091EC00922F917020FD90E8892B94E01A
:104A80009093E9009091EB0090FF14C09091EE009C
:104A900097FF10C09091E80095FF03C01092F100BD
:104AA000F9CF9091E80090FF05C09091E8009E77C3
:104AB0009093E8008F708093E9001092E705809151
:104AC000DA0080FF32C08091D80080FF2EC0809134
:104AD000DA008E7F8093DA008091D90080FF1CC0BD
:104AE00080E189BD82E189BD09B400FEFDCF81E08E
:104AF00080930E0680E29AE10E94320E8091E905D1
:104B0000811113C00E9487240E94A6248091E20094
:104B100084608093E20009C019BC10920E0684E202
:104B20009AE10E94320E1092E9058091E10080FF27
:104B30001BC08091E20080FF17C08091E2008E7F51
:104B40008093E2008091E20080618093E200809196
:104B5000D80080628093D80019BC85E080930E064F
:104B600088E29AE10E94320E8091E10084FF38C011
:104B70008091E20084FF34C080E189BD82E189BD7B
:104B800009B400FEFDCF8091D8008F7D8093D800BE
:104B90008091E1008F7E8093E1008091E2008F7E22
:104BA0008093E2008091E20081608093E200809136
:104BB0000F06882311F084E007C08091E30087FD91
:104BC00002C081E001C083E080930E068CE29AE18E
:104BD0000E94320E0E9491200E945E2C80910E064F
:104BE0008091E10083FF2BC08091E20083FF27C00A
:104BF0008091E100877F8093E10082E080930E0640
:104C000010920F068091E1008E7F8093E1008091E9
:104C1000E2008E7F8093E2008091E20080618093C9
:104C2000E20042E060E080E00E94B22A8091F00061
:104C300088608093F00080E39AE10E94320EFF9139
:104C4000EF91BF91AF919F918F917F916F915F9104
:104C50004F913F912F910F900FBE0F901F9018957D
:104C60002091E4003091E50095E64091EC00842F1E
:104C7000817040FF23C08091E80080FD1DC08091BD
:104C80000E06882399F0853099F08091EB0085FD20
:104C900011C04091E4005091E5002417350729F335
:104CA000915011F09A01E1CF84E0089582E00895D7
:104CB00083E0089581E0089580E008954091E80040
:104CC00042FFDDCF089580E19BE10E94F92F60E073
:104CD00070E0CB0108958CE09BE10E94F92F60E029
:104CE00070E0CB01089588E09BE10E94F92F60E01D
:104CF00070E0CB01089584E09BE10E94F92F60E011
:104D000070E0CB01089580E09BE10E94F92F60E004
:104D100070E0CB0108958295982F937344E0949F9F
:104D2000900111248C7C86958695282B822F857581
:104D3000880F2A7A2695822B0895A6E0B0E0E3EA50
:104D4000F6E20C94BC3149835A8349815A819923F4
:104D500061F0222351F0CA010E94A31D182F682F71
:104D600089819A810E94CB1F04C0CA010E94961FAC
:104D7000182F69817A81812F0E9457172696E3E0C8
:104D80000C94D831ABE1B0E0E8ECF6E20C94BB3126
:104D90004E8B5F8B688F798F8A8F9B8F192F911124
:104DA0001092E305DE011F9687E0FD0111928A95BE
:104DB000E9F786E0FE01769601900D928A95E1F77B
:104DC0000A8D002341F021E04F85588969897A894D
:104DD000C8010E949D260B8B1C8B87E0FE013F962D
:104DE000DE01189601900D928A95E1F7CE010896A2
:104DF0000E940F1E81112CC087E0FE013896DE0153
:104E0000119601900D928A95E1F76C85662301F168
:104E10002091870530E0C90101968770992740915C
:104E2000C00550E08417950761F16D8397E0929F6C
:104E3000D001939FB00D1124A857BA4FFE013196AF
:104E400001900D929A95E1F7809387050E94401D8D
:104E500017E08091C005909187058917F9F0189F98
:104E6000C001112488579A4F0E940F1E8823B1F069
:104E70008091C00590E00196877099278093C005C6
:104E8000E8CF0E949120109287051092C005E0E8BB
:104E9000F5E087E0DF011D928A95E9F76B96E4E083
:104EA0000C94D7310E9491202FEF84E39CE0215095
:104EB00080409040E1F700C000009AE088E10FB622
:104EC000F894A895809360000FBE90936000FFCF88
:104ED0008F929F92AF92BF92CF92DF92EF92FF920A
:104EE0006C01EE24FF24C114D104E104F10411F09B
:104EF00020E103C06B017C0120E08D2C9E2CAF2CA7
:104F0000BB2481149104A104B10419F0285F750138
:104F100064014601570154E0B694A794979487948E
:104F20005A95D1F781149104A104B10419F02C5FB2
:104F3000750164014601570142E0B694A794979425
:104F400087944A95D1F781149104A104B10419F012
:104F50002E5F75016401F694E794D794C794CD2829
:104F6000CE28CF2809F02F5F293151F028F42431C1
:104F700039F0283129F007C02B3111F02E3119F406
:104F8000259A2D9A02C025982D986B017C0120E26C
:104F9000C22220E8D222EE24FF24DC01CB0120E251
:104FA000C21620E8D206E104F10411F4A26001C0A7
:104FB000AD7F6C017D0128E8C222DD24EE24FF24B0
:104FC00028E8C216D104E104F10411F4A16001C083
:104FD000AE7F6C017D0124E0C22222E0D222EE24C9
:104FE000FF2424E0C21622E0D206E104F10411F409
:104FF000A46001C0AB7F6C017D0120E4C22222E0ED
:10500000D222EE24FF2420E4C21622E0D206E104DC
:10501000F10411F4A06401C0AF7B6C017D0122E0BA
:10502000C22220E8D222EE24FF2422E0C21620E889
:10503000D206E104F10411F4A86001C0A77F6C015D
:105040007D0126E0C222DD24EE24FF2426E0C216E4
:10505000D104E104F10411F4A06801C0AF776C0140
:105060007D0120E1C22221E0D222EE24FF24BC01F6
:10507000CD0120E1C21621E0D206E104F10411F4D1
:10508000906201C09F7DFF90EF90DF90CF90BF9026
:10509000AF909F908F90089580E290E090931301DD
:1050A000809312018091180681110EC00E94C930B0
:1050B00081E0809318062FEF83ED90E3215080402C
:1050C0009040E1F700C0000064E670E080E40E94D8
:1050D000CF309093130180931201892B09F04EC0B9
:1050E00064E670E080E00E94423190931301809367
:1050F0001201892B09F042C064E670E080E00E9452
:1051000042319093130180931201892BB9F564E623
:1051100070E08FE30E94423190931301809312015B
:10512000892B61F50E94953164E670E080E40E946D
:10513000CF309093130180931201892BF9F464E628
:1051400070E08CE00E944231909313018093120131
:10515000892BA1F464E670E080E00E9442319093D4
:10516000130180931201892B49F464E670E08FE308
:105170000E94423190931301809312010E94953155
:1051800080911201089556985E9825982D9826983A
:105190002E9827982F988FEF90E090938900809316
:1051A000880090938B0080938A0090938D00809369
:1051B0008C00259A2D9A2FEF80E792E021508040B5
:1051C0009040E1F700C00000269A2E9A2FEF80E76A
:1051D00092E0215080409040E1F700C00000279A03
:1051E0002F9A2FEF80E792E0215080409040E1F726
:1051F00000C0000025982D982FEF80E792E0215005
:1052000080409040E1F700C0000026982E982FEFD4
:1052100080E792E0215080409040E1F700C000001C
:1052200027982F9856985E9825982D9826982E980E
:1052300027982F980895CF93E82F873080F5809195
:10524000120190911301892B09F047C0CE2F64E61B
:1052500070E080E40E94CF3090931301809312019C
:10526000892BD1F464E670E082E10E944231909390
:10527000130180931201892B79F481E090E001C041
:10528000880FCA95EAF764E670E080950E94423183
:1052900090931301809312010E9495311EC090E0FB
:1052A000FC013797E730F105C0F4E154FF4F0C944F
:1052B0005C32209A289811C0219A29980EC0229A0F
:1052C0002A980BC0239A2B9808C0529A5A9805C066
:1052D000539A5B9802C03E9A4698CF9108952098C1
:1052E00028982198299822982A9823982B985298A0
:1052F0005A9853985B983E9846980895CF93873074
:1053000040F58091120190911301892B59F564E6C3
:1053100070E081E40E94CF309093130180931201DA
:10532000892B11F0C0E011C084E690E00E94713139
:1053300097FF05C09093130180931201F3CFC82FFC
:10534000C09510921301109212010E9495318C2F7A
:105350000AC09FB18FB1807F869586959370892B07
:10536000809501C080E0CF91089581E08093F8049A
:105370000E94862B259A2D9A08958091EB05089519
:105380009FB7F8941092E7059FBF90910E06943056
:1053900009F057C09091E9009F703091EC00232FE5
:1053A000217030FD20E8922B24E02093E900209129
:1053B000EB0020FF43C02091EE0027FF3FC020916B
:1053C0003806222321F02091E80025FF37C01092F3
:1053D000380626E03091E80035FD15C030910E0604
:1053E000343061F53091EB0035FD28C0215021F4B7
:1053F00081E08093380622C0EFE9FFE03197F1F7B2
:1054000000C00000E7CF8093F1008091E80085FDA7
:105410000AC08091E80080FFFCCF8091E8008E7781
:105420008093E80006C08FB7F89421E02093E70549
:105430008FBF9F709093E90080E008959F709093D4
:10544000E9008FEF08950F931F93CF93DF938B01A4
:10545000EA0190910E06943079F58F708093E900FF
:105460008FEF9091E800815095FD06C095ED9A95DB
:10547000F1F700008111F5CF8091E80085FF1CC095
:105480000E943026882361F08091E8008E77809317
:10549000E80012C0F80181918F018093F1002197FB
:1054A000209791F38091E80085FDF4CF8091E8008A
:1054B0008E778093E800E4CFDF91CF911F910F9119
:1054C000089543E050E0BC0183E00E94232A089540
:1054D00045E050E0BC0182E00E94232A0895CF936A
:1054E000DF93EC0180911401811105C048E050E088
:1054F000BE0181E00BC08091360687FF03C040E209
:1055000083E002C048E081E050E0BE010E94232A0F
:1055100080E2FE01ACEEB5E001900D928A95E1F7D4
:10552000DF91CF9108958091100687FF11C080917F
:10553000E80082FD05C080910E068111F8CF11C0F0
:105540008091E8008B770BC080910E06882349F08C
:105550008091E80080FFF8CF8091E8008E778093FB
:10556000E8000895982F973068F59093E900981710
:1055700039F07091EC002091ED005091F00003C0E3
:10558000242F762F50E021FD02C09F5FECCF309199
:10559000EB003E7F3093EB003091ED003D7F309388
:1055A000ED003091EB0031603093EB007093EC0034
:1055B0002093ED005093F0002091EE0027FDE5CF01
:1055C00080E008958F708093E90081E00895209134
:1055D0001606309117062617370748F06115710532
:1055E00039F42091E8002E772093E80001C0B9013A
:1055F000FC0120E06115710579F180910E06882388
:10560000F1F18530F1F18091E80083FD3CC080919B
:10561000E80082FD2EC08091E80080FFEBCF209152
:10562000F3008091F20090E0922B6115710551F02A
:105630008830910538F421912093F100615071096F
:105640000196F3CF21E0089709F020E08091E8006F
:105650008E778093E800CECF2111CFCF0AC0809102
:105660000E06882361F0853061F08091E80083FDAB
:105670000AC08091E80082FFF2CF80E0089582E0C6
:10568000089583E0089581E0089578941F920F9221
:105690000FB60F9211248F939F93AF93BF93809176
:1056A000320690913306A0913406B09135060196EA
:1056B000A11DB11D8093320690933306A09334064A
:1056C000B0933506BF91AF919F918F910F900FBE10
:1056D0000F901F9018959C014FB7F8948091320657
:1056E00090913306A0913406B09135064FBF821BCE
:1056F000930B08952FB7F89460913206709133069A
:1057000080913406909135062FBF08952FB7F894F5
:105710008091320690913306A0913406B0913506FF
:105720002FBF08951F920F920FB60F9211248F93DF
:105730009F93AF93BF938091320690913306A091CF
:105740003406B09135064196A11DB11D80933206F5
:1057500090933306A0933406B0933506BF91AF9172
:105760009F918F910F900FBE0F901F9018952091D1
:1057700014012223C9F02091360627FF15C0262FD9
:105780002695269526952E31C8F4FC01E20FF11DD1
:10579000677081E090E001C0880F6A95EAF7809514
:1057A0009281892382830895FC01069622816213E7
:1057B00001C012823196E817F907C1F708952091C8
:1057C00014012223C1F02091360627FF14C0262F92
:1057D0002695269526952E3130F5FC01E20FF11D18
:1057E000677081E090E001C0880F6A95EAF79281C6
:1057F000892B82830895FC0132962FEF30E041918E
:10580000641789F02F3F19F4411101C0232F3F5F26
:105810003630A9F72F3F39F0FC01E20FF11D27FDCB
:10582000FA95628308950895A3E0B0E0EAE1FCE20E
:105830000C94BD312091300630913106281739077C
:10584000A1F09093310680933006E0912E06F091FE
:105850002F06309751F024E029839B838A830680AA
:10586000F781E02DCE01019609952396E2E00C9494
:10587000D931A3E0B0E0EFE3FCE20C94BD3120911C
:105880002C0630912D0628173907A1F090932D068C
:1058900080932C06E0912E06F0912F06309751F060
:1058A00023E029839B838A830680F781E02DCE0144
:1058B000019609952396E2E00C94D931E0912E06E9
:1058C000F0912F06309729F00190F081E02D099595
:1058D000089580E008950F931F93CF93DF93C42F13
:1058E000D22FFC0185818823B1F040932B060E94C2
:1058F000862B90932A068093290680E28C0F8830AD
:1059000008F04DC0C77081E001C0880FCA95EAF762
:105910000E94C72044C080912B06481330C080915C
:10592000290690912A060E946B2B8F3A910538F533
:1059300010E21D0FCD17B9F080E28C0F883040F4D3
:10594000C77081E001C0880FCA95EAF70E94C020A5
:10595000183010F581E09D2F977001C0880F9A953F
:10596000EAF70E94C720802F0E9435211830B8F432
:10597000D77081E001C0880FDA95EAF70AC080E2AB
:105980008C0F883060F4C77081E001C0880FCA9521
:10599000EAF70E94C02003C0802F0E943521DF91CA
:1059A000CF911F910F9108958F929F92AF92BF92C6
:1059B000EF92FF920F931F93CF93DF93EC017B0144
:1059C000042F8090250690902606A0902706B09080
:1059D00028060E9491200E94822087E00802800110
:1059E0001124CE15DF0531F0CE010E94D40EC00F78
:1059F000D11FF7CF0E949120C501B4010E94012060
:105A0000DF91CF911F910F91FF90EF90BF90AF90DA
:105A10009F908F90089580911B0683FF7EC08BE33B
:105A20009BE10E94320E809120061F928F9386E3A5
:105A30009BE19F938F930E94CB0E84E39BE10E9496
:105A4000320E80912106282F082E000C330B3F9335
:105A50008F9381E39BE19F938F930E94CB0E8FE204
:105A60009BE10E94320E80912206282F082E000C06
:105A7000330B3F938F938CE29BE19F938F930E9414
:105A8000CB0E8AE29BE10E94320E80912306282FE2
:105A9000082E000C330B3F938F9387E29BE19F937B
:105AA0008F930E94CB0E85E29BE10E94320E809183
:105AB0002406282F082E000C330B3F938F9382E28D
:105AC0009BE19F938F930E94CB0E8FE19BE10E94FD
:105AD000320E80911A061F928F938CE19BE19F9367
